{
	"homework3/ProxyContract.sol": {
		"ProxyContract": {
			"abi": [
				{
					"inputs": [
						{
							"internalType": "address",
							"name": "_logicContract",
							"type": "address"
						}
					],
					"stateMutability": "nonpayable",
					"type": "constructor"
				},
				{
					"stateMutability": "payable",
					"type": "fallback"
				},
				{
					"inputs": [],
					"name": "increment",
					"outputs": [
						{
							"internalType": "bool",
							"name": "",
							"type": "bool"
						}
					],
					"stateMutability": "nonpayable",
					"type": "function"
				},
				{
					"inputs": [],
					"name": "logicContract",
					"outputs": [
						{
							"internalType": "address",
							"name": "",
							"type": "address"
						}
					],
					"stateMutability": "view",
					"type": "function"
				},
				{
					"inputs": [
						{
							"internalType": "address",
							"name": "_logicContract",
							"type": "address"
						}
					],
					"name": "setLogicContract",
					"outputs": [],
					"stateMutability": "nonpayable",
					"type": "function"
				},
				{
					"inputs": [
						{
							"internalType": "uint256",
							"name": "_newValue",
							"type": "uint256"
						}
					],
					"name": "setValue",
					"outputs": [
						{
							"internalType": "bool",
							"name": "",
							"type": "bool"
						}
					],
					"stateMutability": "nonpayable",
					"type": "function"
				},
				{
					"inputs": [],
					"name": "value",
					"outputs": [
						{
							"internalType": "uint256",
							"name": "",
							"type": "uint256"
						}
					],
					"stateMutability": "view",
					"type": "function"
				},
				{
					"stateMutability": "payable",
					"type": "receive"
				}
			],
			"devdoc": {
				"kind": "dev",
				"methods": {},
				"version": 1
			},
			"userdoc": {
				"kind": "user",
				"methods": {},
				"version": 1
			},
			"storageLayout": {
				"storage": [
					{
						"astId": 26,
						"contract": "homework3/ProxyContract.sol:ProxyContract",
						"label": "value",
						"offset": 0,
						"slot": "0",
						"type": "t_uint256"
					},
					{
						"astId": 28,
						"contract": "homework3/ProxyContract.sol:ProxyContract",
						"label": "logicContract",
						"offset": 0,
						"slot": "1",
						"type": "t_address"
					}
				],
				"types": {
					"t_address": {
						"encoding": "inplace",
						"label": "address",
						"numberOfBytes": "20"
					},
					"t_uint256": {
						"encoding": "inplace",
						"label": "uint256",
						"numberOfBytes": "32"
					}
				}
			},
			"evm": {
				"assembly": "// RO data = 0/0 bytes\n// RW data = 0/65552 bytes\n// Stack size = 16384 bytes\n\n// Instructions = 4025\n// Code size = 12109 bytes\n\n      : @0 (gas: 2)\n     0: i32 a2 = a0 >> 0x10\n     3: jump @6 if a2 != 0\n      : @1 (gas: 2)\n     6: a2 = 0x10001\n    11: jump @6 if a1 >=u a2\n      : @2 (gas: 4)\n    14: a1 = a1 + a0\n    17: i32 a1 = a1 + 0x1f\n    20: a1 = a1 & 0xffffffffffffffe0\n    23: jump @7 if a1 >=u 65537\n      : @3 (gas: 2)\n    29: a3 = i32 [0x20000]\n    34: jump @5 if a3 >=u a1\n      : @4 (gas: 4)\n    37: u32 [0x20000] = a1\n    42: a1 = 0x20010\n    47: a0 = a0 + a1\n    50: ret\n      : @5 (gas: 3)\n    52: a1 = 0x20010\n    57: a0 = a0 + a1\n    60: ret\n      : @6 (gas: 1)\n    62: trap\n      : @7 (gas: 1)\n    63: trap\n      : @8 (gas: 13)\n    64: sp = sp + 0xffffffffffffffd8\n    67: u64 [sp + 0x20] = ra\n    70: u64 [sp + 0x18] = s0\n    73: u64 [sp + 0x10] = s1\n    76: a2 = u64 [a1]\n    78: u64 [sp + 0x8] = a2\n    81: a2 = u64 [a1 + 0x8]\n    84: u64 [sp] = a2\n    86: s0 = u64 [a1 + 0x10]\n    89: s1 = u64 [a1 + 0x18]\n    92: i32 a0 = a0 + 0\n    94: a1 = 0x20\n    97: ra = 2, jump @0\n      : @9 [@dyn 1] (gas: 71)\n   101: a1 = reverse s1\n   103: a2 = reverse s0\n   105: a3 = u64 [sp]\n   107: a3 = reverse a3\n   109: a4 = u64 [sp + 0x8]\n   112: a4 = reverse a4\n   114: u8 [a0 + 0x18] = a4\n   117: u8 [a0 + 0x10] = a3\n   120: u8 [a0 + 0x8] = a2\n   123: u8 [a0] = a1\n   125: a5 = a4 >> 0x38\n   128: u8 [a0 + 0x1f] = a5\n   131: a5 = a4 >> 0x30\n   134: u8 [a0 + 0x1e] = a5\n   137: a5 = a4 >> 0x28\n   140: u8 [a0 + 0x1d] = a5\n   143: a5 = a4 >> 0x20\n   146: u8 [a0 + 0x1c] = a5\n   149: a5 = a4 >> 0x18\n   152: u8 [a0 + 0x1b] = a5\n   155: a5 = a4 >> 0x10\n   158: u8 [a0 + 0x1a] = a5\n   161: a4 = a4 >> 0x8\n   164: u8 [a0 + 0x19] = a4\n   167: a4 = a3 >> 0x38\n   170: u8 [a0 + 0x17] = a4\n   173: a4 = a3 >> 0x30\n   176: u8 [a0 + 0x16] = a4\n   179: a4 = a3 >> 0x28\n   182: u8 [a0 + 0x15] = a4\n   185: a4 = a3 >> 0x20\n   188: u8 [a0 + 0x14] = a4\n   191: a4 = a3 >> 0x18\n   194: u8 [a0 + 0x13] = a4\n   197: a4 = a3 >> 0x10\n   200: u8 [a0 + 0x12] = a4\n   203: a3 = a3 >> 0x8\n   206: u8 [a0 + 0x11] = a3\n   209: a3 = a2 >> 0x38\n   212: u8 [a0 + 0xf] = a3\n   215: a3 = a2 >> 0x30\n   218: u8 [a0 + 0xe] = a3\n   221: a3 = a2 >> 0x28\n   224: u8 [a0 + 0xd] = a3\n   227: a3 = a2 >> 0x20\n   230: u8 [a0 + 0xc] = a3\n   233: a3 = a2 >> 0x18\n   236: u8 [a0 + 0xb] = a3\n   239: a3 = a2 >> 0x10\n   242: u8 [a0 + 0xa] = a3\n   245: a2 = a2 >> 0x8\n   248: u8 [a0 + 0x9] = a2\n   251: a2 = a1 >> 0x38\n   254: u8 [a0 + 0x7] = a2\n   257: a2 = a1 >> 0x30\n   260: u8 [a0 + 0x6] = a2\n   263: a2 = a1 >> 0x28\n   266: u8 [a0 + 0x5] = a2\n   269: a2 = a1 >> 0x20\n   272: u8 [a0 + 0x4] = a2\n   275: a2 = a1 >> 0x18\n   278: u8 [a0 + 0x3] = a2\n   281: a2 = a1 >> 0x10\n   284: u8 [a0 + 0x2] = a2\n   287: a1 = a1 >> 0x8\n   290: u8 [a0 + 0x1] = a1\n   293: ra = u64 [sp + 0x20]\n   296: s0 = u64 [sp + 0x18]\n   299: s1 = u64 [sp + 0x10]\n   302: sp = sp + 0x28\n   305: ret\n      : @10 (gas: 6)\n   307: sp = sp + 0xfffffffffffffff0\n   310: u64 [sp + 0x8] = ra\n   313: u64 [sp] = s0\n   315: s0 = a0 & 0x1\n   318: ecalli 2 // 'call_data_size'\n   320: fallthrough\n      : @11 (gas: 2)\n   321: u32 [0x20004] = a0\n   326: jump @13 if s0 == 0\n      : @12 (gas: 1)\n   329: ra = 4, jump @14\n      : @13 [@dyn 2] (gas: 1)\n   333: ra = 6, jump @29\n      : @14 [@dyn 3] (gas: 9)\n   338: sp = sp + 0xffffffffffffff20\n   342: u64 [sp + 0xd8] = ra\n   346: u64 [sp + 0xd0] = s0\n   350: u64 [sp + 0xc8] = s1\n   354: s0 = sp + 0xe0\n   358: sp = sp & 0xffffffffffffffe0\n   361: a0 = 0x40\n   364: a1 = 0x20\n   367: ra = 8, jump @0\n      : @15 [@dyn 4] (gas: 39)\n   372: u8 [a0 + 31] = 0x80\n   377: u8 [a0 + 30] = 0\n   380: u8 [a0 + 29] = 0\n   383: u8 [a0 + 28] = 0\n   386: u8 [a0 + 27] = 0\n   389: u8 [a0 + 26] = 0\n   392: u8 [a0 + 25] = 0\n   395: u8 [a0 + 24] = 0\n   398: u8 [a0 + 23] = 0\n   401: u8 [a0 + 22] = 0\n   404: u8 [a0 + 21] = 0\n   407: u8 [a0 + 20] = 0\n   410: u8 [a0 + 19] = 0\n   413: u8 [a0 + 18] = 0\n   416: u8 [a0 + 17] = 0\n   419: u8 [a0 + 16] = 0\n   422: u8 [a0 + 15] = 0\n   425: u8 [a0 + 14] = 0\n   428: u8 [a0 + 13] = 0\n   431: u8 [a0 + 12] = 0\n   434: u8 [a0 + 11] = 0\n   437: u8 [a0 + 10] = 0\n   440: u8 [a0 + 9] = 0\n   443: u8 [a0 + 8] = 0\n   446: u8 [a0 + 7] = 0\n   449: u8 [a0 + 6] = 0\n   452: u8 [a0 + 5] = 0\n   455: u8 [a0 + 4] = 0\n   458: u8 [a0 + 3] = 0\n   461: u8 [a0 + 2] = 0\n   464: u8 [a0 + 1] = 0\n   467: u8 [a0 + 0] = 0\n   469: u64 [sp + 88] = 0\n   472: u64 [sp + 64] = 0\n   475: u64 [sp + 72] = 0\n   478: u64 [sp + 80] = 0\n   481: i32 a0 = sp + 0x40\n   484: ecalli 11 // 'value_transferred'\n   486: fallthrough\n      : @16 (gas: 8)\n   487: a0 = u64 [sp + 0x50]\n   490: a1 = u64 [sp + 0x58]\n   493: a2 = u64 [sp + 0x48]\n   496: a3 = u64 [sp + 0x40]\n   499: a1 = a1 | a2\n   502: a0 = a0 | a3\n   505: a0 = a0 | a1\n   508: jump @21 if a0 != 0\n      : @17 (gas: 20)\n   512: a0 = sp + 0x20\n   515: ra = 0xa\n   518: sp = sp + 0xffffffffffffff90\n   521: u64 [sp + 0x68] = ra\n   524: u64 [sp + 0x60] = s0\n   527: u64 [sp + 0x58] = s1\n   530: s0 = sp + 0x70\n   533: sp = sp & 0xfffffffffffffff0\n   536: s1 = i32 [0x20004]\n   541: u64 [sp + 0x8] = a0\n   544: a0 = s1 << 0x20\n   547: a0 = a0 >> 0x20\n   550: u64 [sp + 40] = 0\n   553: u64 [sp + 32] = 0\n   556: u64 [sp + 0x10] = a0\n   559: a0 = sp + 0x30\n   562: a1 = sp + 0x10\n   565: u64 [sp + 24] = 0\n   568: ra = 0x36\n   571: jump @50\n      : @18 [@dyn 5] (gas: 43)\n   574: a0 = u64 [sp + 0x20]\n   577: u64 [sp + 0x18] = a0\n   580: a0 = u64 [sp + 0x28]\n   583: u64 [sp + 0x10] = a0\n   586: s1 = u32 [sp + 0x30]\n   589: u64 [sp + 152] = 0\n   593: u64 [sp + 144] = 0\n   597: u64 [sp + 136] = 0\n   601: u64 [sp + 128] = 0x1\n   606: u64 [sp + 184] = 0\n   610: u64 [sp + 176] = 0\n   614: u64 [sp + 168] = 0\n   618: u64 [sp + 160] = 0\n   622: u32 [sp + 96] = 0x20\n   626: i32 a1 = sp + 0x80\n   630: i32 a3 = sp + 0xa0\n   634: i32 a4 = sp + 0x60\n   637: a2 = 0xffffffffffffffff\n   640: a0 = 0\n   642: ecalli 4 // 'get_storage'\n   644: a0 = u32 [sp + 0xb4]\n   648: a0 = a0 << 0x20\n   651: a1 = u64 [sp + 0xb8]\n   655: a0 = a0 | s1\n   658: u64 [sp + 152] = 0\n   662: u64 [sp + 144] = 0\n   666: u64 [sp + 136] = 0\n   670: u64 [sp + 128] = 0x1\n   675: u64 [sp + 0xb8] = a1\n   679: u64 [sp + 0xb0] = a0\n   683: a0 = u64 [sp + 0x10]\n   686: u64 [sp + 0xa8] = a0\n   690: a0 = u64 [sp + 0x18]\n   693: u64 [sp + 0xa0] = a0\n   697: i32 a1 = sp + 0x80\n   701: i32 a3 = sp + 0xa0\n   705: a2 = 0xffffffffffffffff\n   708: a4 = 0x20\n   711: a0 = 0\n   713: ecalli 10 // 'set_storage'\n   715: a0 = 0x40\n   718: a1 = 0x20\n   721: ra = 12, jump @0\n      : @19 [@dyn 6] (gas: 100)\n   726: a1 = u8 [a0 + 0x11]\n   729: a2 = u8 [a0 + 0x10]\n   732: a3 = u8 [a0 + 0x12]\n   735: a4 = u8 [a0 + 0x13]\n   738: a1 = a1 << 0x8\n   741: a1 = a1 | a2\n   744: a3 = a3 << 0x10\n   747: a4 = a4 << 0x18\n   750: a3 = a3 | a4\n   753: a1 = a1 | a3\n   756: a2 = u8 [a0 + 0x15]\n   759: a3 = u8 [a0 + 0x14]\n   762: a4 = u8 [a0 + 0x16]\n   765: a5 = u8 [a0 + 0x17]\n   768: a2 = a2 << 0x8\n   771: a2 = a2 | a3\n   774: a4 = a4 << 0x10\n   777: a5 = a5 << 0x18\n   780: a4 = a4 | a5\n   783: a2 = a2 | a4\n   786: a2 = a2 << 0x20\n   789: t0 = a2 | a1\n   792: a2 = u8 [a0 + 0x1]\n   795: a3 = u8 [a0]\n   797: a4 = u8 [a0 + 0x2]\n   800: a5 = u8 [a0 + 0x3]\n   803: a2 = a2 << 0x8\n   806: a2 = a2 | a3\n   809: a4 = a4 << 0x10\n   812: a5 = a5 << 0x18\n   815: a4 = a4 | a5\n   818: a2 = a2 | a4\n   821: a3 = u8 [a0 + 0x5]\n   824: a4 = u8 [a0 + 0x4]\n   827: a5 = u8 [a0 + 0x6]\n   830: s1 = u8 [a0 + 0x7]\n   833: a3 = a3 << 0x8\n   836: a3 = a3 | a4\n   839: a5 = a5 << 0x10\n   842: s1 = s1 << 0x18\n   845: a5 = a5 | s1\n   848: a3 = a3 | a5\n   851: a3 = a3 << 0x20\n   854: a2 = a2 | a3\n   857: a3 = u8 [a0 + 0x19]\n   860: a4 = u8 [a0 + 0x18]\n   863: a5 = u8 [a0 + 0x1a]\n   866: s1 = u8 [a0 + 0x1b]\n   869: a3 = a3 << 0x8\n   872: a3 = a3 | a4\n   875: a5 = a5 << 0x10\n   878: s1 = s1 << 0x18\n   881: a5 = a5 | s1\n   884: a3 = a3 | a5\n   887: a4 = u8 [a0 + 0x1d]\n   890: a5 = u8 [a0 + 0x1c]\n   893: s1 = u8 [a0 + 0x1e]\n   896: a1 = u8 [a0 + 0x1f]\n   899: a4 = a4 << 0x8\n   902: a4 = a4 | a5\n   905: s1 = s1 << 0x10\n   908: a1 = a1 << 0x18\n   911: a1 = a1 | s1\n   914: a1 = a1 | a4\n   917: a1 = a1 << 0x20\n   920: a3 = a3 | a1\n   923: a1 = u8 [a0 + 0x9]\n   926: a4 = u8 [a0 + 0x8]\n   929: a5 = u8 [a0 + 0xa]\n   932: s1 = u8 [a0 + 0xb]\n   935: a1 = a1 << 0x8\n   938: a1 = a1 | a4\n   941: a5 = a5 << 0x10\n   944: s1 = s1 << 0x18\n   947: a5 = a5 | s1\n   950: a1 = a1 | a5\n   953: a4 = u8 [a0 + 0xd]\n   956: a5 = u8 [a0 + 0xc]\n   959: s1 = u8 [a0 + 0xe]\n   962: a0 = u8 [a0 + 0xf]\n   965: a4 = a4 << 0x8\n   968: a4 = a4 | a5\n   971: s1 = s1 << 0x10\n   974: a0 = a0 << 0x18\n   977: a0 = a0 | s1\n   980: a0 = a0 | a4\n   983: a0 = a0 << 0x20\n   986: a0 = a0 | a1\n   989: a0 = reverse a0\n   991: s1 = reverse a3\n   993: a1 = reverse a2\n   995: a2 = reverse t0\n   997: a1 = a1 | a2\n  1000: a2 = s1 | a0\n  1003: a2 = a2 | a1\n  1006: a2 = a2 >> 0x20\n  1009: a0 = a0 | a1\n  1012: a0 = a0 << 0x20\n  1015: a0 = a0 | a2\n  1018: jump @23 if a0 == 0\n      : @20 (gas: 1)\n  1021: trap\n      : @21 (gas: 3)\n  1022: a0 = 0\n  1024: a1 = 0\n  1026: ra = 14, jump @0\n      : @22 [@dyn 7] (gas: 5)\n  1031: i32 a1 = a0 + 0\n  1033: a0 = 0x1\n  1036: a2 = 0\n  1038: ecalli 8 // 'seal_return'\n  1040: fallthrough\n      : @23 (gas: 4)\n  1041: i32 s1 = s1 + 0\n  1043: a0 = s1\n  1045: a1 = 0\n  1047: ra = 16, jump @0\n      : @24 [@dyn 8] (gas: 5)\n  1052: i32 a0 = a0 + 0\n  1054: a1 = 0\n  1056: a2 = 0\n  1058: ecalli 0 // 'call_data_copy'\n  1059: fallthrough\n      : @25 (gas: 2)\n  1060: a1 = i32 [0x20008]\n  1065: jump @27 if a1 == 0\n      : @26 (gas: 4)\n  1068: a0 = 0x30010\n  1073: i32 a0 = a0 + 0\n  1075: ecalli 9 // 'set_immutable_data'\n  1077: fallthrough\n      : @27 (gas: 3)\n  1078: a0 = s1\n  1080: a1 = 0\n  1082: ra = 18, jump @0\n      : @28 [@dyn 9] (gas: 6)\n  1087: i32 a1 = a0 + 0\n  1089: a0 = 0\n  1091: a2 = 0\n  1093: ra = 0x14\n  1096: ecalli 8 // 'seal_return'\n  1098: fallthrough\n      : @29 [@dyn 10] (gas: 9)\n  1099: sp = sp + 0xffffffffffffffc0\n  1102: u64 [sp + 0x38] = ra\n  1105: u64 [sp + 0x30] = s0\n  1108: u64 [sp + 0x28] = s1\n  1111: s0 = sp + 0x40\n  1114: sp = sp & 0xffffffffffffffe0\n  1117: a0 = 0x40\n  1120: a1 = 0x20\n  1123: ra = 22, jump @0\n      : @30 [@dyn 11] (gas: 35)\n  1128: u8 [a0 + 31] = 0x80\n  1133: u8 [a0 + 30] = 0\n  1136: u8 [a0 + 29] = 0\n  1139: u8 [a0 + 28] = 0\n  1142: u8 [a0 + 27] = 0\n  1145: u8 [a0 + 26] = 0\n  1148: u8 [a0 + 25] = 0\n  1151: u8 [a0 + 24] = 0\n  1154: u8 [a0 + 23] = 0\n  1157: u8 [a0 + 22] = 0\n  1160: u8 [a0 + 21] = 0\n  1163: u8 [a0 + 20] = 0\n  1166: u8 [a0 + 19] = 0\n  1169: u8 [a0 + 18] = 0\n  1172: u8 [a0 + 17] = 0\n  1175: u8 [a0 + 16] = 0\n  1178: u8 [a0 + 15] = 0\n  1181: u8 [a0 + 14] = 0\n  1184: u8 [a0 + 13] = 0\n  1187: u8 [a0 + 12] = 0\n  1190: u8 [a0 + 11] = 0\n  1193: u8 [a0 + 10] = 0\n  1196: u8 [a0 + 9] = 0\n  1199: u8 [a0 + 8] = 0\n  1202: u8 [a0 + 7] = 0\n  1205: u8 [a0 + 3] = 0\n  1208: s1 = 0x20004\n  1213: u8 [a0 + 2] = 0\n  1216: u8 [a0 + 1] = 0\n  1219: u8 [a0 + 0] = 0\n  1221: a1 = i32 [0x20004]\n  1226: u8 [a0 + 6] = 0\n  1229: u8 [a0 + 5] = 0\n  1232: u8 [a0 + 4] = 0\n  1235: jump @44 if a1 <u 4\n      : @31 (gas: 4)\n  1240: i32 a0 = sp + 0\n  1242: a1 = 0\n  1244: ecalli 1 // 'call_data_load'\n  1246: fallthrough\n      : @32 (gas: 2)\n  1247: a0 = i32 [sp + 0x1c]\n  1250: jump @37 if a0 <=s 1067774532\n      : @33 (gas: 1)\n  1257: jump @40 if a0 == 1067774533\n      : @34 (gas: 1)\n  1264: jump @41 if a0 == 1428426871\n      : @35 (gas: 1)\n  1271: jump @43 if a0 != 1520715535\n      : @36 (gas: 14)\n  1279: ra = 0x18\n  1282: sp = sp + 0xffffffffffffff40\n  1286: u64 [sp + 0xb8] = ra\n  1290: u64 [sp + 0xb0] = s0\n  1294: u64 [sp + 0xa8] = s1\n  1298: s0 = sp + 0xc0\n  1302: sp = sp & 0xffffffffffffffe0\n  1305: u64 [sp + 56] = 0\n  1308: u64 [sp + 48] = 0\n  1311: u64 [sp + 40] = 0\n  1314: u64 [sp + 32] = 0\n  1317: i32 a0 = sp + 0x20\n  1320: ecalli 11 // 'value_transferred'\n  1322: jump @109\n      : @37 [@dyn 12] (gas: 1)\n  1325: jump @42 if a0 == 3423508425\n      : @38 (gas: 1)\n  1332: jump @43 if a0 != 3500007562\n      : @39 (gas: 1)\n  1340: ra = 26, jump @132\n      : @40 [@dyn 13] (gas: 14)\n  1345: ra = 0x1c\n  1348: sp = sp + 0xffffffffffffff60\n  1352: u64 [sp + 0x98] = ra\n  1356: u64 [sp + 0x90] = s0\n  1360: u64 [sp + 0x88] = s1\n  1364: s0 = sp + 0xa0\n  1368: sp = sp & 0xffffffffffffffe0\n  1371: u64 [sp + 56] = 0\n  1374: u64 [sp + 48] = 0\n  1377: u64 [sp + 40] = 0\n  1380: u64 [sp + 32] = 0\n  1383: i32 a0 = sp + 0x20\n  1386: ecalli 11 // 'value_transferred'\n  1388: jump @71\n      : @41 [@dyn 14] (gas: 14)\n  1391: ra = 0x1e\n  1394: sp = sp + 0xffffffffffffff40\n  1398: u64 [sp + 0xb8] = ra\n  1402: u64 [sp + 0xb0] = s0\n  1406: u64 [sp + 0xa8] = s1\n  1410: s0 = sp + 0xc0\n  1414: sp = sp & 0xffffffffffffffe0\n  1417: u64 [sp + 120] = 0\n  1420: u64 [sp + 112] = 0\n  1423: u64 [sp + 104] = 0\n  1426: u64 [sp + 96] = 0\n  1429: i32 a0 = sp + 0x60\n  1432: ecalli 11 // 'value_transferred'\n  1434: jump @82\n      : @42 [@dyn 15] (gas: 14)\n  1437: ra = 0x20\n  1440: sp = sp + 0xffffffffffffff60\n  1444: u64 [sp + 0x98] = ra\n  1448: u64 [sp + 0x90] = s0\n  1452: u64 [sp + 0x88] = s1\n  1456: s0 = sp + 0xa0\n  1460: sp = sp & 0xffffffffffffffe0\n  1463: u64 [sp + 56] = 0\n  1466: u64 [sp + 48] = 0\n  1469: u64 [sp + 40] = 0\n  1472: u64 [sp + 32] = 0\n  1475: i32 a0 = sp + 0x20\n  1478: ecalli 11 // 'value_transferred'\n  1480: jump @122\n      : @43 [@dyn 16] (gas: 2)\n  1483: a1 = i32 [s1]\n  1485: fallthrough\n      : @44 (gas: 1)\n  1486: jump @46 if a1 == 0\n      : @45 (gas: 32)\n  1489: ra = 0x22\n  1492: sp = sp + 0xfffffffffffffee0\n  1496: u64 [sp + 0x118] = ra\n  1500: u64 [sp + 0x110] = s0\n  1504: u64 [sp + 0x108] = s1\n  1508: s0 = sp + 0x120\n  1512: sp = sp & 0xffffffffffffffe0\n  1515: u64 [sp + 216] = 0\n  1519: u64 [sp + 208] = 0\n  1523: u64 [sp + 200] = 0\n  1527: u64 [sp + 192] = 0x1\n  1532: u64 [sp + 248] = 0\n  1536: u64 [sp + 240] = 0\n  1540: u64 [sp + 232] = 0\n  1544: u64 [sp + 224] = 0\n  1548: u32 [sp + 256] = 0x20\n  1553: i32 a1 = sp + 0xc0\n  1557: i32 a3 = sp + 0xe0\n  1561: i32 a4 = sp + 0x100\n  1565: a2 = 0xffffffffffffffff\n  1568: a0 = 0\n  1570: ecalli 4 // 'get_storage'\n  1572: a0 = u64 [sp + 0xf0]\n  1576: u64 [sp + 0x30] = a0\n  1579: a0 = u64 [sp + 0xe8]\n  1583: u64 [sp + 0x28] = a0\n  1586: a0 = u64 [sp + 0xe0]\n  1590: u64 [sp + 0x38] = a0\n  1593: a0 = 0x40\n  1596: a1 = 0x20\n  1599: ra = 0xae\n  1603: jump @0\n      : @46 [@dyn 17] (gas: 2)\n  1606: a0 = 0\n  1608: ra = 36, jump @0\n      : @47 [@dyn 18] (gas: 6)\n  1613: i32 a1 = a0 + 0\n  1615: a0 = 0\n  1617: a2 = 0\n  1619: ra = 0x26\n  1622: ecalli 8 // 'seal_return'\n  1624: fallthrough\n      : @48 [@dyn 19] (gas: 7)\n  1625: sp = sp + 0xfffffffffffffff0\n  1628: u64 [sp + 0x8] = ra\n  1631: u64 [sp] = s0\n  1633: s0 = a0\n  1635: a0 = 0x40\n  1638: a1 = 0x20\n  1641: ra = 40, jump @0\n      : @49 [@dyn 20] (gas: 100)\n  1646: a1 = u8 [a0 + 0x1]\n  1649: a2 = u8 [a0]\n  1651: a3 = u8 [a0 + 0x2]\n  1654: a4 = u8 [a0 + 0x3]\n  1657: a1 = a1 << 0x8\n  1660: a1 = a1 | a2\n  1663: a3 = a3 << 0x10\n  1666: a4 = a4 << 0x18\n  1669: a3 = a3 | a4\n  1672: a1 = a1 | a3\n  1675: a2 = u8 [a0 + 0x5]\n  1678: a3 = u8 [a0 + 0x4]\n  1681: a4 = u8 [a0 + 0x6]\n  1684: a5 = u8 [a0 + 0x7]\n  1687: a2 = a2 << 0x8\n  1690: a2 = a2 | a3\n  1693: a4 = a4 << 0x10\n  1696: a5 = a5 << 0x18\n  1699: a4 = a4 | a5\n  1702: a2 = a2 | a4\n  1705: a2 = a2 << 0x20\n  1708: t0 = a2 | a1\n  1711: a2 = u8 [a0 + 0x9]\n  1714: a3 = u8 [a0 + 0x8]\n  1717: a4 = u8 [a0 + 0xa]\n  1720: a5 = u8 [a0 + 0xb]\n  1723: a2 = a2 << 0x8\n  1726: a2 = a2 | a3\n  1729: a4 = a4 << 0x10\n  1732: a5 = a5 << 0x18\n  1735: a4 = a4 | a5\n  1738: a2 = a2 | a4\n  1741: a3 = u8 [a0 + 0xd]\n  1744: a4 = u8 [a0 + 0xc]\n  1747: a5 = u8 [a0 + 0xe]\n  1750: a1 = u8 [a0 + 0xf]\n  1753: a3 = a3 << 0x8\n  1756: a3 = a3 | a4\n  1759: a5 = a5 << 0x10\n  1762: a1 = a1 << 0x18\n  1765: a1 = a1 | a5\n  1768: a1 = a1 | a3\n  1771: a1 = a1 << 0x20\n  1774: t1 = a1 | a2\n  1777: a1 = u8 [a0 + 0x11]\n  1780: a3 = u8 [a0 + 0x10]\n  1783: a4 = u8 [a0 + 0x12]\n  1786: a5 = u8 [a0 + 0x13]\n  1789: a1 = a1 << 0x8\n  1792: a1 = a1 | a3\n  1795: a4 = a4 << 0x10\n  1798: a5 = a5 << 0x18\n  1801: a4 = a4 | a5\n  1804: a1 = a1 | a4\n  1807: a3 = u8 [a0 + 0x15]\n  1810: a4 = u8 [a0 + 0x14]\n  1813: a5 = u8 [a0 + 0x16]\n  1816: a2 = u8 [a0 + 0x17]\n  1819: a3 = a3 << 0x8\n  1822: a3 = a3 | a4\n  1825: a5 = a5 << 0x10\n  1828: a2 = a2 << 0x18\n  1831: a2 = a2 | a5\n  1834: a2 = a2 | a3\n  1837: a2 = a2 << 0x20\n  1840: a3 = a2 | a1\n  1843: a1 = u8 [a0 + 0x19]\n  1846: a2 = u8 [a0 + 0x18]\n  1849: a4 = u8 [a0 + 0x1a]\n  1852: a5 = u8 [a0 + 0x1b]\n  1855: a1 = a1 << 0x8\n  1858: a1 = a1 | a2\n  1861: a4 = a4 << 0x10\n  1864: a5 = a5 << 0x18\n  1867: a4 = a4 | a5\n  1870: a1 = a1 | a4\n  1873: a2 = u8 [a0 + 0x1d]\n  1876: a4 = u8 [a0 + 0x1c]\n  1879: a5 = u8 [a0 + 0x1e]\n  1882: a0 = u8 [a0 + 0x1f]\n  1885: a2 = a2 << 0x8\n  1888: a2 = a2 | a4\n  1891: a5 = a5 << 0x10\n  1894: a0 = a0 << 0x18\n  1897: a0 = a0 | a5\n  1900: a0 = a0 | a2\n  1903: a0 = a0 << 0x20\n  1906: a0 = a0 | a1\n  1909: a0 = reverse a0\n  1911: a1 = reverse a3\n  1913: a2 = reverse t1\n  1915: a3 = reverse t0\n  1917: u64 [s0 + 0x18] = a3\n  1920: u64 [s0 + 0x10] = a2\n  1923: u64 [s0 + 0x8] = a1\n  1926: u64 [s0] = a0\n  1928: ra = u64 [sp + 0x8]\n  1931: s0 = u64 [sp]\n  1933: sp = sp + 0x10\n  1936: ret\n      : @50 (gas: 18)\n  1938: sp = sp + 0xffffffffffffff60\n  1942: u64 [sp + 0x98] = ra\n  1946: u64 [sp + 0x90] = s0\n  1950: u64 [sp + 0x88] = s1\n  1954: s0 = sp + 0xa0\n  1958: sp = sp & 0xfffffffffffffff0\n  1961: a2 = u64 [a1 + 0x18]\n  1964: u64 [sp + 0x30] = a2\n  1967: a2 = u64 [a1 + 0x10]\n  1970: u64 [sp + 0x28] = a2\n  1973: a2 = u64 [a1 + 0x8]\n  1976: u64 [sp + 0x20] = a2\n  1979: a1 = u64 [a1]\n  1981: u64 [sp + 0x18] = a1\n  1984: u64 [sp + 0x38] = a0\n  1987: a0 = 0x40\n  1990: a1 = 0x20\n  1993: ra = 42, jump @0\n      : @51 [@dyn 21] (gas: 130)\n  1998: a1 = u8 [a0 + 0x19]\n  2001: a2 = u8 [a0 + 0x18]\n  2004: a3 = u8 [a0 + 0x1a]\n  2007: a4 = u8 [a0 + 0x1b]\n  2010: a1 = a1 << 0x8\n  2013: a1 = a1 | a2\n  2016: a3 = a3 << 0x10\n  2019: a4 = a4 << 0x18\n  2022: a3 = a3 | a4\n  2025: a1 = a1 | a3\n  2028: a2 = u8 [a0 + 0x1d]\n  2031: a3 = u8 [a0 + 0x1c]\n  2034: a4 = u8 [a0 + 0x1e]\n  2037: a5 = u8 [a0 + 0x1f]\n  2040: a2 = a2 << 0x8\n  2043: a2 = a2 | a3\n  2046: a4 = a4 << 0x10\n  2049: a5 = a5 << 0x18\n  2052: a4 = a4 | a5\n  2055: a2 = a2 | a4\n  2058: a2 = a2 << 0x20\n  2061: t0 = a2 | a1\n  2064: a2 = u8 [a0 + 0x11]\n  2067: a3 = u8 [a0 + 0x10]\n  2070: a4 = u8 [a0 + 0x12]\n  2073: a5 = u8 [a0 + 0x13]\n  2076: a2 = a2 << 0x8\n  2079: a2 = a2 | a3\n  2082: a4 = a4 << 0x10\n  2085: a5 = a5 << 0x18\n  2088: a4 = a4 | a5\n  2091: a2 = a2 | a4\n  2094: a3 = u8 [a0 + 0x15]\n  2097: a4 = u8 [a0 + 0x14]\n  2100: a5 = u8 [a0 + 0x16]\n  2103: s1 = u8 [a0 + 0x17]\n  2106: a3 = a3 << 0x8\n  2109: a3 = a3 | a4\n  2112: a5 = a5 << 0x10\n  2115: s1 = s1 << 0x18\n  2118: a5 = a5 | s1\n  2121: a3 = a3 | a5\n  2124: a3 = a3 << 0x20\n  2127: a2 = a2 | a3\n  2130: a3 = u8 [a0 + 0x9]\n  2133: a4 = u8 [a0 + 0x8]\n  2136: a5 = u8 [a0 + 0xa]\n  2139: s1 = u8 [a0 + 0xb]\n  2142: a3 = a3 << 0x8\n  2145: a3 = a3 | a4\n  2148: a5 = a5 << 0x10\n  2151: s1 = s1 << 0x18\n  2154: a5 = a5 | s1\n  2157: a3 = a3 | a5\n  2160: a4 = u8 [a0 + 0xd]\n  2163: a5 = u8 [a0 + 0xc]\n  2166: s1 = u8 [a0 + 0xe]\n  2169: a1 = u8 [a0 + 0xf]\n  2172: a4 = a4 << 0x8\n  2175: a4 = a4 | a5\n  2178: s1 = s1 << 0x10\n  2181: a1 = a1 << 0x18\n  2184: a1 = a1 | s1\n  2187: a1 = a1 | a4\n  2190: a1 = a1 << 0x20\n  2193: a3 = a3 | a1\n  2196: a1 = u8 [a0 + 0x1]\n  2199: a4 = u8 [a0]\n  2201: a5 = u8 [a0 + 0x2]\n  2204: s1 = u8 [a0 + 0x3]\n  2207: a1 = a1 << 0x8\n  2210: a1 = a1 | a4\n  2213: a5 = a5 << 0x10\n  2216: s1 = s1 << 0x18\n  2219: a5 = a5 | s1\n  2222: a1 = a1 | a5\n  2225: a4 = u8 [a0 + 0x5]\n  2228: a5 = u8 [a0 + 0x4]\n  2231: s1 = u8 [a0 + 0x6]\n  2234: a0 = u8 [a0 + 0x7]\n  2237: a4 = a4 << 0x8\n  2240: a4 = a4 | a5\n  2243: s1 = s1 << 0x10\n  2246: a0 = a0 << 0x18\n  2249: a0 = a0 | s1\n  2252: a0 = a0 | a4\n  2255: a0 = a0 << 0x20\n  2258: a0 = a0 | a1\n  2261: t1 = reverse a0\n  2263: t2 = reverse a3\n  2265: s1 = reverse a2\n  2267: a5 = reverse t0\n  2269: a1 = u64 [sp + 0x18]\n  2272: a0 = a1 + 0x1f\n  2275: a1 = a0 <u a1\n  2278: a3 = u64 [sp + 0x20]\n  2281: a2 = a3 + a1\n  2284: a3 = a2 <u a3\n  2287: a3 = a1 if a1 == 0\n  2290: a1 = u64 [sp + 0x28]\n  2293: a3 = a3 + a1\n  2296: a1 = a3 <u a1\n  2299: a4 = u64 [sp + 0x30]\n  2302: a1 = a1 + a4\n  2305: a0 = a0 & 0xffffffffffffffe0\n  2308: a0 = a0 + a5\n  2311: u64 [sp + 0x28] = a5\n  2314: u64 [sp + 0x10] = a0\n  2317: a4 = a0 <u a5\n  2320: a2 = a2 + s1\n  2323: a5 = a2 + a4\n  2326: a2 = a5 ^ s1\n  2329: u64 [sp + 0x30] = s1\n  2332: a0 = a5 <u s1\n  2335: a0 = a4 if a2 == 0\n  2338: a3 = a3 + t2\n  2341: a4 = a3 + a0\n  2344: s1 = a4 <u a3\n  2347: a2 = a3 <u t2\n  2350: a1 = a1 + t1\n  2353: a1 = a1 + a2\n  2356: s1 = s1 + a1\n  2359: a1 = a4 >u 0\n  2361: a2 = s1 >u 0\n  2363: a2 = a1 if s1 == 0\n  2366: a1 = a4 | s1\n  2369: u64 [sp + 0x8] = a5\n  2372: a3 = a5 >u 0\n  2374: a3 = a2 if a1 != 0\n  2377: jump @55 if a3 != 0\n      : @52 (gas: 8)\n  2381: a1 = a4 <u t2\n  2384: a2 = s1 ^ t1\n  2387: a3 = s1 <u t1\n  2390: a3 = a1 if a2 == 0\n  2393: a1 = a4 ^ t2\n  2396: a1 = a1 | a2\n  2399: a0 = a3 if a1 != 0\n  2402: jump @55 if a0 != 0\n      : @53 (gas: 6)\n  2406: a0 = 0x40\n  2409: a1 = 0x20\n  2412: u64 [sp + 0x20] = t2\n  2415: u64 [sp + 0x18] = t1\n  2418: u64 [sp] = a4\n  2420: ra = 44, jump @0\n      : @54 [@dyn 22] (gas: 82)\n  2425: a1 = reverse s1\n  2427: a2 = u64 [sp]\n  2429: a2 = reverse a2\n  2431: a3 = u64 [sp + 0x8]\n  2434: a3 = reverse a3\n  2436: a4 = u64 [sp + 0x10]\n  2439: a4 = reverse a4\n  2441: u8 [a0 + 0x18] = a4\n  2444: a5 = a4 >> 0x38\n  2447: u8 [a0 + 0x1f] = a5\n  2450: a5 = a4 >> 0x30\n  2453: u8 [a0 + 0x1e] = a5\n  2456: a5 = a4 >> 0x28\n  2459: u8 [a0 + 0x1d] = a5\n  2462: a5 = a4 >> 0x20\n  2465: u8 [a0 + 0x1c] = a5\n  2468: a5 = a4 >> 0x18\n  2471: u8 [a0 + 0x1b] = a5\n  2474: a5 = a4 >> 0x10\n  2477: u8 [a0 + 0x1a] = a5\n  2480: a4 = a4 >> 0x8\n  2483: u8 [a0 + 0x19] = a4\n  2486: u8 [a0 + 0x10] = a3\n  2489: a4 = a3 >> 0x38\n  2492: u8 [a0 + 0x17] = a4\n  2495: a4 = a3 >> 0x30\n  2498: u8 [a0 + 0x16] = a4\n  2501: a4 = a3 >> 0x28\n  2504: u8 [a0 + 0x15] = a4\n  2507: a4 = a3 >> 0x20\n  2510: u8 [a0 + 0x14] = a4\n  2513: a4 = a3 >> 0x18\n  2516: u8 [a0 + 0x13] = a4\n  2519: a4 = a3 >> 0x10\n  2522: u8 [a0 + 0x12] = a4\n  2525: a3 = a3 >> 0x8\n  2528: u8 [a0 + 0x11] = a3\n  2531: u8 [a0 + 0x8] = a2\n  2534: a3 = a2 >> 0x38\n  2537: u8 [a0 + 0xf] = a3\n  2540: a3 = a2 >> 0x30\n  2543: u8 [a0 + 0xe] = a3\n  2546: a3 = a2 >> 0x28\n  2549: u8 [a0 + 0xd] = a3\n  2552: a3 = a2 >> 0x20\n  2555: u8 [a0 + 0xc] = a3\n  2558: a3 = a2 >> 0x18\n  2561: u8 [a0 + 0xb] = a3\n  2564: a3 = a2 >> 0x10\n  2567: u8 [a0 + 0xa] = a3\n  2570: a2 = a2 >> 0x8\n  2573: u8 [a0 + 0x9] = a2\n  2576: u8 [a0] = a1\n  2578: a2 = a1 >> 0x38\n  2581: u8 [a0 + 0x7] = a2\n  2584: a2 = a1 >> 0x30\n  2587: u8 [a0 + 0x6] = a2\n  2590: a2 = a1 >> 0x28\n  2593: u8 [a0 + 0x5] = a2\n  2596: a2 = a1 >> 0x20\n  2599: u8 [a0 + 0x4] = a2\n  2602: a2 = a1 >> 0x18\n  2605: u8 [a0 + 0x3] = a2\n  2608: a2 = a1 >> 0x10\n  2611: u8 [a0 + 0x2] = a2\n  2614: a1 = a1 >> 0x8\n  2617: u8 [a0 + 0x1] = a1\n  2620: a0 = u64 [sp + 0x38]\n  2623: a1 = u64 [sp + 0x28]\n  2626: u64 [a0] = a1\n  2628: a1 = u64 [sp + 0x18]\n  2631: u64 [a0 + 0x18] = a1\n  2634: a1 = u64 [sp + 0x30]\n  2637: u64 [a0 + 0x8] = a1\n  2640: a1 = u64 [sp + 0x20]\n  2643: u64 [a0 + 0x10] = a1\n  2646: sp = s0 + 0xffffffffffffff60\n  2650: ra = u64 [sp + 0x98]\n  2654: s0 = u64 [sp + 0x90]\n  2658: s1 = u64 [sp + 0x88]\n  2662: sp = sp + 0xa0\n  2666: ret\n      : @55 (gas: 8)\n  2668: u64 [sp + 112] = 0\n  2671: u64 [sp + 104] = 0\n  2674: u64 [sp + 96] = 0\n  2677: a0 = 0x4e487b7100000000\n  2687: a1 = sp + 0x60\n  2690: u64 [sp + 0x78] = a0\n  2693: a0 = 0\n  2695: ra = 46, jump @8\n      : @56 [@dyn 23] (gas: 7)\n  2700: u64 [sp + 88] = 0\n  2703: u64 [sp + 80] = 0\n  2706: u64 [sp + 64] = 0x41\n  2710: a0 = 0x4\n  2713: a1 = sp + 0x40\n  2716: u64 [sp + 72] = 0\n  2719: ra = 48, jump @8\n      : @57 [@dyn 24] (gas: 3)\n  2724: a1 = 0x24\n  2727: a0 = 0\n  2729: ra = 50, jump @0\n      : @58 [@dyn 25] (gas: 6)\n  2734: i32 a1 = a0 + 0\n  2736: a0 = 0x1\n  2739: a2 = 0x24\n  2742: ra = 0x34\n  2745: ecalli 8 // 'seal_return'\n  2747: fallthrough\n      : @59 [@dyn 26] (gas: 8)\n  2748: a2 = u32 [a1 + 0x10]\n  2751: a3 = u64 [a1 + 0x8]\n  2754: a1 = u64 [a1]\n  2756: u64 [a0 + 24] = 0\n  2759: u64 [a0 + 0x10] = a2\n  2762: u64 [a0 + 0x8] = a3\n  2765: u64 [a0] = a1\n  2767: ret\n      : @60 [@dyn 27] (gas: 12)\n  2769: a1 = u64 [sp + 0x48]\n  2772: a2 = u64 [sp + 0x40]\n  2775: a3 = u64 [sp + 0x38]\n  2778: a0 = u64 [sp + 0x30]\n  2781: a1 = a1 | a3\n  2784: a3 = a0 | a2\n  2787: a3 = a3 | a1\n  2790: a3 = a3 >> 0x20\n  2793: a1 = a1 | a2\n  2796: a1 = a1 << 0x20\n  2799: a1 = a1 | a3\n  2802: jump @67 if a1 != 0\n      : @61 (gas: 4)\n  2806: i32 a0 = a0 + 0\n  2808: u64 [sp] = a0\n  2810: a1 = s1\n  2812: ra = 56, jump @0\n      : @62 [@dyn 28] (gas: 5)\n  2817: i32 a0 = a0 + 0\n  2819: a1 = s1\n  2821: a2 = 0\n  2823: ecalli 0 // 'call_data_copy'\n  2824: fallthrough\n      : @63 (gas: 1)\n  2825: jump @68 if s1 <=u 31\n      : @64 (gas: 3)\n  2830: a1 = 0x20\n  2833: a0 = u64 [sp]\n  2835: ra = 58, jump @0\n      : @65 [@dyn 29] (gas: 54)\n  2840: a1 = u8 [a0 + 0x9]\n  2843: a2 = u8 [a0 + 0x8]\n  2846: a3 = u8 [a0 + 0xa]\n  2849: a4 = u8 [a0 + 0xb]\n  2852: a1 = a1 << 0x8\n  2855: a1 = a1 | a2\n  2858: a3 = a3 << 0x10\n  2861: a4 = a4 << 0x18\n  2864: a3 = a3 | a4\n  2867: a1 = a1 | a3\n  2870: a2 = u8 [a0 + 0xd]\n  2873: a3 = u8 [a0 + 0xc]\n  2876: a4 = u8 [a0 + 0xe]\n  2879: a5 = u8 [a0 + 0xf]\n  2882: a2 = a2 << 0x8\n  2885: a2 = a2 | a3\n  2888: a4 = a4 << 0x10\n  2891: a5 = a5 << 0x18\n  2894: a4 = a4 | a5\n  2897: a2 = a2 | a4\n  2900: a2 = a2 << 0x20\n  2903: a2 = a2 | a1\n  2906: a1 = u8 [a0 + 0x1]\n  2909: a3 = u8 [a0]\n  2911: a4 = u8 [a0 + 0x2]\n  2914: a5 = u8 [a0 + 0x3]\n  2917: a1 = a1 << 0x8\n  2920: a1 = a1 | a3\n  2923: a4 = a4 << 0x10\n  2926: a5 = a5 << 0x18\n  2929: a4 = a4 | a5\n  2932: a1 = a1 | a4\n  2935: a3 = u8 [a0 + 0x5]\n  2938: a4 = u8 [a0 + 0x4]\n  2941: a5 = u8 [a0 + 0x6]\n  2944: s1 = u8 [a0 + 0x7]\n  2947: a3 = a3 << 0x8\n  2950: a3 = a3 | a4\n  2953: a5 = a5 << 0x10\n  2956: s1 = s1 << 0x18\n  2959: a5 = a5 | s1\n  2962: a3 = a3 | a5\n  2965: a3 = a3 << 0x20\n  2968: a1 = a1 | a3\n  2971: t0 = reverse a1\n  2973: a2 = reverse a2\n  2975: a3 = 0x100000000\n  2985: a3 = a3 ^ a2\n  2988: a3 = a3 | t0\n  2991: a4 = a2 >> 0x20\n  2994: a4 = a4 <u 0x1\n  2997: a4 = 0 if t0 != 0\n  2999: a4 = 0 if a3 == 0\n  3001: jump @68 if a4 == 0\n      : @66 (gas: 57)\n  3005: a3 = u8 [a0 + 0x19]\n  3008: a4 = u8 [a0 + 0x18]\n  3011: a5 = u8 [a0 + 0x1a]\n  3014: s1 = u8 [a0 + 0x1b]\n  3017: a3 = a3 << 0x8\n  3020: a3 = a3 | a4\n  3023: a5 = a5 << 0x10\n  3026: s1 = s1 << 0x18\n  3029: a5 = a5 | s1\n  3032: a3 = a3 | a5\n  3035: a4 = u8 [a0 + 0x1d]\n  3038: a5 = u8 [a0 + 0x1c]\n  3041: s1 = u8 [a0 + 0x1e]\n  3044: a1 = u8 [a0 + 0x1f]\n  3047: a4 = a4 << 0x8\n  3050: a4 = a4 | a5\n  3053: s1 = s1 << 0x10\n  3056: a1 = a1 << 0x18\n  3059: a1 = a1 | s1\n  3062: a1 = a1 | a4\n  3065: a1 = a1 << 0x20\n  3068: a3 = a3 | a1\n  3071: a1 = u8 [a0 + 0x11]\n  3074: a4 = u8 [a0 + 0x10]\n  3077: a5 = u8 [a0 + 0x12]\n  3080: s1 = u8 [a0 + 0x13]\n  3083: a1 = a1 << 0x8\n  3086: a1 = a1 | a4\n  3089: a5 = a5 << 0x10\n  3092: s1 = s1 << 0x18\n  3095: a5 = a5 | s1\n  3098: a1 = a1 | a5\n  3101: a4 = u8 [a0 + 0x15]\n  3104: a5 = u8 [a0 + 0x14]\n  3107: s1 = u8 [a0 + 0x16]\n  3110: a0 = u8 [a0 + 0x17]\n  3113: a4 = a4 << 0x8\n  3116: a4 = a4 | a5\n  3119: s1 = s1 << 0x10\n  3122: a0 = a0 << 0x18\n  3125: a0 = a0 | s1\n  3128: a0 = a0 | a4\n  3131: a0 = a0 << 0x20\n  3134: a0 = a0 | a1\n  3137: a0 = reverse a0\n  3139: a1 = reverse a3\n  3141: a3 = u64 [sp + 0x8]\n  3144: u64 [a3] = a1\n  3146: u64 [a3 + 0x8] = a0\n  3149: u64 [a3 + 0x10] = a2\n  3152: u64 [a3 + 0x18] = t0\n  3155: sp = s0 + 0xffffffffffffff90\n  3158: ra = u64 [sp + 0x68]\n  3161: s0 = u64 [sp + 0x60]\n  3164: s1 = u64 [sp + 0x58]\n  3167: sp = sp + 0x70\n  3170: ret\n      : @67 (gas: 1)\n  3172: trap\n      : @68 (gas: 3)\n  3173: a0 = 0\n  3175: a1 = 0\n  3177: ra = 60, jump @0\n      : @69 [@dyn 30] (gas: 6)\n  3182: i32 a1 = a0 + 0\n  3184: a0 = 0x1\n  3187: a2 = 0\n  3189: ra = 0x3e\n  3192: ecalli 8 // 'seal_return'\n  3194: fallthrough\n      : @70 [@dyn 31] (gas: 9)\n  3195: a2 = u64 [a1 + 0x18]\n  3198: a3 = u64 [a1 + 0x10]\n  3201: a4 = u64 [a1 + 0x8]\n  3204: a1 = u64 [a1]\n  3206: u64 [a0 + 0x18] = a2\n  3209: u64 [a0 + 0x10] = a3\n  3212: u64 [a0 + 0x8] = a4\n  3215: u64 [a0] = a1\n  3217: ret\n      : @71 (gas: 8)\n  3219: a0 = u64 [sp + 0x30]\n  3222: a1 = u64 [sp + 0x38]\n  3225: a2 = u64 [sp + 0x28]\n  3228: a3 = u64 [sp + 0x20]\n  3231: a1 = a1 | a2\n  3234: a0 = a0 | a3\n  3237: a0 = a0 | a1\n  3240: jump @76 if a0 != 0\n      : @72 (gas: 2)\n  3244: a0 = i32 [0x20004]\n  3249: jump @76 if a0 <=u 3\n      : @73 (gas: 26)\n  3254: u64 [sp + 88] = 0\n  3257: u64 [sp + 80] = 0\n  3260: u64 [sp + 72] = 0\n  3263: u64 [sp + 64] = 0\n  3266: u64 [sp + 120] = 0\n  3269: u64 [sp + 112] = 0\n  3272: u64 [sp + 104] = 0\n  3275: u64 [sp + 96] = 0\n  3278: u32 [sp + 128] = 0x20\n  3283: i32 a1 = sp + 0x40\n  3286: i32 a3 = sp + 0x60\n  3289: i32 a4 = sp + 0x80\n  3293: a2 = 0xffffffffffffffff\n  3296: a0 = 0\n  3298: ecalli 4 // 'get_storage'\n  3300: a0 = u64 [sp + 0x78]\n  3303: u64 [sp] = a0\n  3305: a0 = u64 [sp + 0x70]\n  3308: u64 [sp + 0x8] = a0\n  3311: a0 = u64 [sp + 0x68]\n  3314: u64 [sp + 0x10] = a0\n  3317: a0 = u64 [sp + 0x60]\n  3320: u64 [sp + 0x18] = a0\n  3323: a0 = 0x40\n  3326: a1 = 0x20\n  3329: ra = 64, jump @0\n      : @74 [@dyn 32] (gas: 100)\n  3334: a1 = u8 [a0 + 0x11]\n  3337: a2 = u8 [a0 + 0x10]\n  3340: a3 = u8 [a0 + 0x12]\n  3343: a4 = u8 [a0 + 0x13]\n  3346: a1 = a1 << 0x8\n  3349: a1 = a1 | a2\n  3352: a3 = a3 << 0x10\n  3355: a4 = a4 << 0x18\n  3358: a3 = a3 | a4\n  3361: a1 = a1 | a3\n  3364: a2 = u8 [a0 + 0x15]\n  3367: a3 = u8 [a0 + 0x14]\n  3370: a4 = u8 [a0 + 0x16]\n  3373: a5 = u8 [a0 + 0x17]\n  3376: a2 = a2 << 0x8\n  3379: a2 = a2 | a3\n  3382: a4 = a4 << 0x10\n  3385: a5 = a5 << 0x18\n  3388: a4 = a4 | a5\n  3391: a2 = a2 | a4\n  3394: a2 = a2 << 0x20\n  3397: t0 = a2 | a1\n  3400: a2 = u8 [a0 + 0x1]\n  3403: a3 = u8 [a0]\n  3405: a4 = u8 [a0 + 0x2]\n  3408: a5 = u8 [a0 + 0x3]\n  3411: a2 = a2 << 0x8\n  3414: a2 = a2 | a3\n  3417: a4 = a4 << 0x10\n  3420: a5 = a5 << 0x18\n  3423: a4 = a4 | a5\n  3426: a2 = a2 | a4\n  3429: a3 = u8 [a0 + 0x5]\n  3432: a4 = u8 [a0 + 0x4]\n  3435: a5 = u8 [a0 + 0x6]\n  3438: s1 = u8 [a0 + 0x7]\n  3441: a3 = a3 << 0x8\n  3444: a3 = a3 | a4\n  3447: a5 = a5 << 0x10\n  3450: s1 = s1 << 0x18\n  3453: a5 = a5 | s1\n  3456: a3 = a3 | a5\n  3459: a3 = a3 << 0x20\n  3462: a2 = a2 | a3\n  3465: a3 = u8 [a0 + 0x19]\n  3468: a4 = u8 [a0 + 0x18]\n  3471: a5 = u8 [a0 + 0x1a]\n  3474: s1 = u8 [a0 + 0x1b]\n  3477: a3 = a3 << 0x8\n  3480: a3 = a3 | a4\n  3483: a5 = a5 << 0x10\n  3486: s1 = s1 << 0x18\n  3489: a5 = a5 | s1\n  3492: a3 = a3 | a5\n  3495: a4 = u8 [a0 + 0x1d]\n  3498: a5 = u8 [a0 + 0x1c]\n  3501: s1 = u8 [a0 + 0x1e]\n  3504: a1 = u8 [a0 + 0x1f]\n  3507: a4 = a4 << 0x8\n  3510: a4 = a4 | a5\n  3513: s1 = s1 << 0x10\n  3516: a1 = a1 << 0x18\n  3519: a1 = a1 | s1\n  3522: a1 = a1 | a4\n  3525: a1 = a1 << 0x20\n  3528: a3 = a3 | a1\n  3531: a1 = u8 [a0 + 0x9]\n  3534: a4 = u8 [a0 + 0x8]\n  3537: a5 = u8 [a0 + 0xa]\n  3540: s1 = u8 [a0 + 0xb]\n  3543: a1 = a1 << 0x8\n  3546: a1 = a1 | a4\n  3549: a5 = a5 << 0x10\n  3552: s1 = s1 << 0x18\n  3555: a5 = a5 | s1\n  3558: a1 = a1 | a5\n  3561: a4 = u8 [a0 + 0xd]\n  3564: a5 = u8 [a0 + 0xc]\n  3567: s1 = u8 [a0 + 0xe]\n  3570: a0 = u8 [a0 + 0xf]\n  3573: a4 = a4 << 0x8\n  3576: a4 = a4 | a5\n  3579: s1 = s1 << 0x10\n  3582: a0 = a0 << 0x18\n  3585: a0 = a0 | s1\n  3588: a0 = a0 | a4\n  3591: a0 = a0 << 0x20\n  3594: a0 = a0 | a1\n  3597: a1 = reverse a0\n  3599: a0 = reverse a3\n  3601: a2 = reverse a2\n  3603: a3 = reverse t0\n  3605: a2 = a2 | a3\n  3608: a3 = a0 | a1\n  3611: a3 = a3 | a2\n  3614: a3 = a3 >> 0x20\n  3617: a1 = a1 | a2\n  3620: a1 = a1 << 0x20\n  3623: a1 = a1 | a3\n  3626: jump @78 if a1 == 0\n      : @75 (gas: 1)\n  3629: trap\n      : @76 (gas: 3)\n  3630: a0 = 0\n  3632: a1 = 0\n  3634: ra = 66, jump @0\n      : @77 [@dyn 33] (gas: 5)\n  3639: i32 a1 = a0 + 0\n  3641: a0 = 0x1\n  3644: a2 = 0\n  3646: ecalli 8 // 'seal_return'\n  3648: fallthrough\n      : @78 (gas: 4)\n  3649: i32 s1 = a0 + 0\n  3651: a1 = 0x20\n  3654: a0 = s1\n  3656: ra = 68, jump @0\n      : @79 [@dyn 34] (gas: 71)\n  3661: a1 = u64 [sp]\n  3663: a1 = reverse a1\n  3665: a2 = u64 [sp + 0x8]\n  3668: a2 = reverse a2\n  3670: a3 = u64 [sp + 0x10]\n  3673: a3 = reverse a3\n  3675: a4 = u64 [sp + 0x18]\n  3678: a4 = reverse a4\n  3680: a5 = a4 >> 0x38\n  3683: u8 [a0 + 0x1f] = a5\n  3686: a5 = a4 >> 0x30\n  3689: u8 [a0 + 0x1e] = a5\n  3692: a5 = a4 >> 0x28\n  3695: u8 [a0 + 0x1d] = a5\n  3698: a5 = a4 >> 0x20\n  3701: u8 [a0 + 0x1c] = a5\n  3704: a5 = a4 >> 0x18\n  3707: u8 [a0 + 0x1b] = a5\n  3710: a5 = a4 >> 0x10\n  3713: u8 [a0 + 0x1a] = a5\n  3716: a5 = a4 >> 0x8\n  3719: u8 [a0 + 0x19] = a5\n  3722: u8 [a0 + 0x18] = a4\n  3725: u8 [a0 + 0x10] = a3\n  3728: a4 = a3 >> 0x38\n  3731: u8 [a0 + 0x17] = a4\n  3734: a4 = a3 >> 0x30\n  3737: u8 [a0 + 0x16] = a4\n  3740: a4 = a3 >> 0x28\n  3743: u8 [a0 + 0x15] = a4\n  3746: a4 = a3 >> 0x20\n  3749: u8 [a0 + 0x14] = a4\n  3752: a4 = a3 >> 0x18\n  3755: u8 [a0 + 0x13] = a4\n  3758: a4 = a3 >> 0x10\n  3761: u8 [a0 + 0x12] = a4\n  3764: a3 = a3 >> 0x8\n  3767: u8 [a0 + 0x11] = a3\n  3770: u8 [a0 + 0x8] = a2\n  3773: a3 = a2 >> 0x38\n  3776: u8 [a0 + 0xf] = a3\n  3779: a3 = a2 >> 0x30\n  3782: u8 [a0 + 0xe] = a3\n  3785: a3 = a2 >> 0x28\n  3788: u8 [a0 + 0xd] = a3\n  3791: a3 = a2 >> 0x20\n  3794: u8 [a0 + 0xc] = a3\n  3797: a3 = a2 >> 0x18\n  3800: u8 [a0 + 0xb] = a3\n  3803: a3 = a2 >> 0x10\n  3806: u8 [a0 + 0xa] = a3\n  3809: a2 = a2 >> 0x8\n  3812: u8 [a0 + 0x9] = a2\n  3815: u8 [a0] = a1\n  3817: a2 = a1 >> 0x38\n  3820: u8 [a0 + 0x7] = a2\n  3823: a2 = a1 >> 0x30\n  3826: u8 [a0 + 0x6] = a2\n  3829: a2 = a1 >> 0x28\n  3832: u8 [a0 + 0x5] = a2\n  3835: a2 = a1 >> 0x20\n  3838: u8 [a0 + 0x4] = a2\n  3841: a2 = a1 >> 0x18\n  3844: u8 [a0 + 0x3] = a2\n  3847: a2 = a1 >> 0x10\n  3850: u8 [a0 + 0x2] = a2\n  3853: a1 = a1 >> 0x8\n  3856: u8 [a0 + 0x1] = a1\n  3859: a1 = 0x20\n  3862: a0 = s1\n  3864: ra = 70, jump @0\n      : @80 [@dyn 35] (gas: 6)\n  3869: i32 a1 = a0 + 0\n  3871: a2 = 0x20\n  3874: a0 = 0\n  3876: ra = 0x48\n  3879: ecalli 8 // 'seal_return'\n  3881: fallthrough\n      : @81 [@dyn 36] (gas: 1)\n  3882: ret\n      : @82 (gas: 8)\n  3884: a0 = u64 [sp + 0x70]\n  3887: a1 = u64 [sp + 0x78]\n  3890: a2 = u64 [sp + 0x68]\n  3893: a3 = u64 [sp + 0x60]\n  3896: a1 = a1 | a2\n  3899: a0 = a0 | a3\n  3902: a0 = a0 | a1\n  3905: jump @88 if a0 != 0\n      : @83 (gas: 2)\n  3909: a0 = i32 [0x20004]\n  3914: jump @88 if a0 <=u 35\n      : @84 (gas: 54)\n  3919: i32 a0 = sp + 0x80\n  3923: a1 = 0x4\n  3926: ecalli 1 // 'call_data_load'\n  3928: a2 = u64 [sp + 0x80]\n  3932: a0 = u64 [sp + 0x88]\n  3936: a1 = u64 [sp + 0x90]\n  3940: a3 = u64 [sp + 0x98]\n  3944: u64 [sp + 0x38] = a3\n  3947: u64 [sp + 0x30] = a1\n  3950: u64 [sp + 0x28] = a0\n  3953: a0 = sp + 0x40\n  3956: a1 = sp + 0x20\n  3959: u64 [sp + 0x20] = a2\n  3962: ra = 0x4a\n  3965: sp = sp + 0xfffffffffffffea0\n  3969: u64 [sp + 0x158] = ra\n  3973: u64 [sp + 0x150] = s0\n  3977: u64 [sp + 0x148] = s1\n  3981: s0 = sp + 0x160\n  3985: sp = sp & 0xffffffffffffffe0\n  3988: u64 [sp + 0x20] = a0\n  3991: a0 = u64 [a1 + 0x18]\n  3994: u64 [sp + 0x40] = a0\n  3997: a0 = u64 [a1 + 0x10]\n  4000: u64 [sp + 0x48] = a0\n  4003: a0 = u64 [a1 + 0x8]\n  4006: u64 [sp + 0x50] = a0\n  4009: a0 = u64 [a1]\n  4011: u64 [sp + 0x58] = a0\n  4014: u64 [sp + 280] = 0\n  4018: u64 [sp + 272] = 0\n  4022: u64 [sp + 264] = 0\n  4026: u64 [sp + 256] = 0x1\n  4031: u64 [sp + 312] = 0\n  4035: u64 [sp + 304] = 0\n  4039: u64 [sp + 296] = 0\n  4043: u64 [sp + 288] = 0\n  4047: u32 [sp + 320] = 0x20\n  4052: i32 a1 = sp + 0x100\n  4056: i32 a3 = sp + 0x120\n  4060: i32 a4 = sp + 0x140\n  4064: a2 = 0xffffffffffffffff\n  4067: a0 = 0\n  4069: ecalli 4 // 'get_storage'\n  4071: a0 = u64 [sp + 0x130]\n  4075: u64 [sp + 0x30] = a0\n  4078: a0 = u64 [sp + 0x128]\n  4082: u64 [sp + 0x28] = a0\n  4085: a0 = u64 [sp + 0x120]\n  4089: u64 [sp + 0x38] = a0\n  4092: a0 = 0x40\n  4095: a1 = 0x20\n  4098: ra = 0x8c\n  4102: jump @0\n      : @85 [@dyn 37] (gas: 11)\n  4105: a0 = u64 [sp + 0x58]\n  4108: u64 [sp + 0x18] = a0\n  4111: a0 = u64 [sp + 0x50]\n  4114: u64 [sp + 0x8] = a0\n  4117: a0 = u64 [sp + 0x48]\n  4120: u64 [sp + 0x10] = a0\n  4123: a0 = u64 [sp + 0x40]\n  4126: u64 [sp] = a0\n  4128: a0 = 0x40\n  4131: a1 = 0x20\n  4134: ra = 76, jump @0\n      : @86 [@dyn 38] (gas: 100)\n  4139: a1 = u8 [a0 + 0x11]\n  4142: a2 = u8 [a0 + 0x10]\n  4145: a3 = u8 [a0 + 0x12]\n  4148: a4 = u8 [a0 + 0x13]\n  4151: a1 = a1 << 0x8\n  4154: a1 = a1 | a2\n  4157: a3 = a3 << 0x10\n  4160: a4 = a4 << 0x18\n  4163: a3 = a3 | a4\n  4166: a1 = a1 | a3\n  4169: a2 = u8 [a0 + 0x15]\n  4172: a3 = u8 [a0 + 0x14]\n  4175: a4 = u8 [a0 + 0x16]\n  4178: a5 = u8 [a0 + 0x17]\n  4181: a2 = a2 << 0x8\n  4184: a2 = a2 | a3\n  4187: a4 = a4 << 0x10\n  4190: a5 = a5 << 0x18\n  4193: a4 = a4 | a5\n  4196: a2 = a2 | a4\n  4199: a2 = a2 << 0x20\n  4202: t0 = a2 | a1\n  4205: a2 = u8 [a0 + 0x1]\n  4208: a3 = u8 [a0]\n  4210: a4 = u8 [a0 + 0x2]\n  4213: a5 = u8 [a0 + 0x3]\n  4216: a2 = a2 << 0x8\n  4219: a2 = a2 | a3\n  4222: a4 = a4 << 0x10\n  4225: a5 = a5 << 0x18\n  4228: a4 = a4 | a5\n  4231: a2 = a2 | a4\n  4234: a3 = u8 [a0 + 0x5]\n  4237: a4 = u8 [a0 + 0x4]\n  4240: a5 = u8 [a0 + 0x6]\n  4243: s1 = u8 [a0 + 0x7]\n  4246: a3 = a3 << 0x8\n  4249: a3 = a3 | a4\n  4252: a5 = a5 << 0x10\n  4255: s1 = s1 << 0x18\n  4258: a5 = a5 | s1\n  4261: a3 = a3 | a5\n  4264: a3 = a3 << 0x20\n  4267: a2 = a2 | a3\n  4270: a3 = u8 [a0 + 0x19]\n  4273: a4 = u8 [a0 + 0x18]\n  4276: a5 = u8 [a0 + 0x1a]\n  4279: s1 = u8 [a0 + 0x1b]\n  4282: a3 = a3 << 0x8\n  4285: a3 = a3 | a4\n  4288: a5 = a5 << 0x10\n  4291: s1 = s1 << 0x18\n  4294: a5 = a5 | s1\n  4297: a3 = a3 | a5\n  4300: a4 = u8 [a0 + 0x1d]\n  4303: a5 = u8 [a0 + 0x1c]\n  4306: s1 = u8 [a0 + 0x1e]\n  4309: a1 = u8 [a0 + 0x1f]\n  4312: a4 = a4 << 0x8\n  4315: a4 = a4 | a5\n  4318: s1 = s1 << 0x10\n  4321: a1 = a1 << 0x18\n  4324: a1 = a1 | s1\n  4327: a1 = a1 | a4\n  4330: a1 = a1 << 0x20\n  4333: a3 = a3 | a1\n  4336: a1 = u8 [a0 + 0x9]\n  4339: a4 = u8 [a0 + 0x8]\n  4342: a5 = u8 [a0 + 0xa]\n  4345: s1 = u8 [a0 + 0xb]\n  4348: a1 = a1 << 0x8\n  4351: a1 = a1 | a4\n  4354: a5 = a5 << 0x10\n  4357: s1 = s1 << 0x18\n  4360: a5 = a5 | s1\n  4363: a1 = a1 | a5\n  4366: a4 = u8 [a0 + 0xd]\n  4369: a5 = u8 [a0 + 0xc]\n  4372: s1 = u8 [a0 + 0xe]\n  4375: a0 = u8 [a0 + 0xf]\n  4378: a4 = a4 << 0x8\n  4381: a4 = a4 | a5\n  4384: s1 = s1 << 0x10\n  4387: a0 = a0 << 0x18\n  4390: a0 = a0 | s1\n  4393: a0 = a0 | a4\n  4396: a0 = a0 << 0x20\n  4399: a0 = a0 | a1\n  4402: a1 = reverse a0\n  4404: a0 = reverse a3\n  4406: a2 = reverse a2\n  4408: a3 = reverse t0\n  4410: a2 = a2 | a3\n  4413: a3 = a0 | a1\n  4416: a3 = a3 | a2\n  4419: a3 = a3 >> 0x20\n  4422: a1 = a1 | a2\n  4425: a1 = a1 << 0x20\n  4428: a1 = a1 | a3\n  4431: jump @90 if a1 == 0\n      : @87 (gas: 1)\n  4434: trap\n      : @88 (gas: 3)\n  4435: a0 = 0\n  4437: a1 = 0\n  4439: ra = 78, jump @0\n      : @89 [@dyn 39] (gas: 5)\n  4444: i32 a1 = a0 + 0\n  4446: a0 = 0x1\n  4449: a2 = 0\n  4451: ecalli 8 // 'seal_return'\n  4453: fallthrough\n      : @90 (gas: 13)\n  4454: a1 = u64 [sp + 0x8]\n  4457: a2 = u64 [sp]\n  4459: a1 = a1 | a2\n  4462: a2 = u64 [sp + 0x18]\n  4465: a3 = u64 [sp + 0x10]\n  4468: a2 = a2 | a3\n  4471: a1 = a1 | a2\n  4474: a1 = a1 >u 0\n  4476: u64 [sp + 0x18] = a1\n  4479: i32 s1 = a0 + 0\n  4481: a1 = 0x20\n  4484: a0 = s1\n  4486: ra = 80, jump @0\n      : @91 [@dyn 40] (gas: 36)\n  4491: u8 [a0 + 30] = 0\n  4494: u8 [a0 + 29] = 0\n  4497: u8 [a0 + 28] = 0\n  4500: u8 [a0 + 27] = 0\n  4503: u8 [a0 + 26] = 0\n  4506: u8 [a0 + 25] = 0\n  4509: u8 [a0 + 24] = 0\n  4512: u8 [a0 + 23] = 0\n  4515: u8 [a0 + 22] = 0\n  4518: u8 [a0 + 21] = 0\n  4521: u8 [a0 + 20] = 0\n  4524: u8 [a0 + 19] = 0\n  4527: u8 [a0 + 18] = 0\n  4530: u8 [a0 + 17] = 0\n  4533: u8 [a0 + 16] = 0\n  4536: u8 [a0 + 15] = 0\n  4539: u8 [a0 + 14] = 0\n  4542: u8 [a0 + 13] = 0\n  4545: u8 [a0 + 12] = 0\n  4548: u8 [a0 + 11] = 0\n  4551: u8 [a0 + 10] = 0\n  4554: u8 [a0 + 9] = 0\n  4557: u8 [a0 + 8] = 0\n  4560: u8 [a0 + 7] = 0\n  4563: u8 [a0 + 6] = 0\n  4566: u8 [a0 + 5] = 0\n  4569: u8 [a0 + 4] = 0\n  4572: u8 [a0 + 3] = 0\n  4575: u8 [a0 + 2] = 0\n  4578: u8 [a0 + 1] = 0\n  4581: u8 [a0 + 0] = 0\n  4583: a1 = u64 [sp + 0x18]\n  4586: u8 [a0 + 0x1f] = a1\n  4589: a1 = 0x20\n  4592: a0 = s1\n  4594: ra = 82, jump @0\n      : @92 [@dyn 41] (gas: 6)\n  4599: i32 a1 = a0 + 0\n  4601: a2 = 0x20\n  4604: a0 = 0\n  4606: ra = 0x54\n  4609: ecalli 8 // 'seal_return'\n  4611: fallthrough\n      : @93 [@dyn 42] (gas: 18)\n  4612: sp = sp + 0xffffffffffffffc0\n  4615: u64 [sp + 0x38] = ra\n  4618: u64 [sp + 0x30] = s0\n  4621: u64 [sp + 0x28] = s1\n  4624: s0 = sp + 0x40\n  4627: sp = sp & 0xffffffffffffffe0\n  4630: a2 = u64 [a1 + 0x10]\n  4633: a3 = u64 [a1 + 0x18]\n  4636: a4 = u64 [a1 + 0x8]\n  4639: a1 = u64 [a1]\n  4641: a3 = a3 | a4\n  4644: a4 = a1 | a2\n  4647: a4 = a4 | a3\n  4650: a4 = a4 >> 0x20\n  4653: a2 = a2 | a3\n  4656: a2 = a2 << 0x20\n  4659: a2 = a2 | a4\n  4662: jump @97 if a2 != 0\n      : @94 (gas: 5)\n  4665: s1 = a0\n  4667: i32 a1 = a1 + 0\n  4669: i32 a0 = sp + 0\n  4671: ecalli 1 // 'call_data_load'\n  4673: fallthrough\n      : @95 (gas: 10)\n  4674: a0 = u64 [sp + 0x10]\n  4677: a1 = u64 [sp + 0x18]\n  4680: a2 = 0x100000000\n  4690: a2 = a2 ^ a0\n  4693: a2 = a2 | a1\n  4696: a3 = a0 >> 0x20\n  4699: a3 = a3 <u 0x1\n  4702: a3 = 0 if a1 != 0\n  4704: a3 = 0 if a2 == 0\n  4706: jump @98 if a3 == 0\n      : @96 (gas: 12)\n  4709: a2 = u64 [sp]\n  4711: a3 = u64 [sp + 0x8]\n  4714: u64 [s1] = a2\n  4716: u64 [s1 + 0x8] = a3\n  4719: u64 [s1 + 0x10] = a0\n  4722: u64 [s1 + 0x18] = a1\n  4725: sp = s0 + 0xffffffffffffffc0\n  4728: ra = u64 [sp + 0x38]\n  4731: s0 = u64 [sp + 0x30]\n  4734: s1 = u64 [sp + 0x28]\n  4737: sp = sp + 0x40\n  4740: ret\n      : @97 (gas: 1)\n  4742: trap\n      : @98 (gas: 3)\n  4743: a0 = 0\n  4745: a1 = 0\n  4747: ra = 86, jump @0\n      : @99 [@dyn 43] (gas: 6)\n  4752: i32 a1 = a0 + 0\n  4754: a0 = 0x1\n  4757: a2 = 0\n  4759: ra = 0x58\n  4762: ecalli 8 // 'seal_return'\n  4764: fallthrough\n      : @100 [@dyn 44] (gas: 52)\n  4765: sp = sp + 0xffffffffffffff80\n  4768: u64 [sp + 0x78] = ra\n  4771: u64 [sp + 0x70] = s0\n  4774: u64 [sp + 0x68] = s1\n  4777: s0 = sp + 0x80\n  4781: sp = sp & 0xffffffffffffffe0\n  4784: t2 = u64 [a1 + 0x10]\n  4787: a5 = u64 [a1 + 0x8]\n  4790: t0 = u64 [a2 + 0x8]\n  4793: s1 = u64 [a1]\n  4795: u64 [sp + 0x10] = s1\n  4798: a4 = u64 [a2]\n  4800: u64 [sp + 0x18] = a4\n  4803: ra = u64 [a2 + 0x10]\n  4806: a3 = t0 ^ a5\n  4809: u64 [sp + 0x38] = a3\n  4812: a3 = t0 <u a5\n  4815: a4 = a4 <u s1\n  4818: t1 = u64 [sp + 0x38]\n  4821: a3 = a4 if t1 == 0\n  4824: t1 = a4\n  4826: a1 = u64 [a1 + 0x18]\n  4829: u64 [sp + 0x38] = a1\n  4832: a1 = u64 [a2 + 0x18]\n  4835: u64 [sp + 0x20] = a1\n  4838: a1 = ra - t2\n  4841: a2 = a1 - a3\n  4844: u64 [sp + 0x28] = a2\n  4847: a2 = a1 <u a3\n  4850: u64 [sp + 0x30] = t2\n  4853: a3 = ra <u t2\n  4856: a1 = u64 [sp + 0x38]\n  4859: a4 = u64 [sp + 0x20]\n  4862: a1 = a4 - a1\n  4865: a1 = a1 - a3\n  4868: t2 = a1 - a2\n  4871: s1 = t0 - a5\n  4874: a2 = s1 - t1\n  4877: t0 = u64 [sp + 0x10]\n  4880: a1 = u64 [sp + 0x18]\n  4883: a3 = a1 - t0\n  4886: a4 = a2 >u 0\n  4888: a3 = a3 <u 0x20\n  4891: a3 = a3 ^ 0x1\n  4894: a3 = a4 if a2 != 0\n  4897: a2 = t2 >s 0\n  4899: a1 = u64 [sp + 0x28]\n  4902: a4 = a1 >u 0\n  4904: a4 = a2 if t2 != 0\n  4907: a1 = a1 | t2\n  4910: a3 = a4 if a1 != 0\n  4913: jump @106 if a3 == 0\n      : @101 (gas: 11)\n  4916: s1 = a0\n  4918: a2 = u64 [sp + 0x30]\n  4921: a0 = t0 | a2\n  4924: a1 = u64 [sp + 0x38]\n  4927: a1 = a1 | a5\n  4930: a0 = a0 | a1\n  4933: a0 = a0 >> 0x20\n  4936: a1 = a1 | a2\n  4939: a1 = a1 << 0x20\n  4942: a0 = a0 | a1\n  4945: jump @105 if a0 != 0\n      : @102 (gas: 4)\n  4948: i32 a1 = t0 + 0\n  4950: i32 a0 = sp + 0x40\n  4953: ecalli 1 // 'call_data_load'\n  4955: fallthrough\n      : @103 (gas: 10)\n  4956: a0 = u64 [sp + 0x50]\n  4959: a1 = u64 [sp + 0x58]\n  4962: a2 = 0x100000000\n  4972: a2 = a2 ^ a0\n  4975: a2 = a2 | a1\n  4978: a3 = a0 >> 0x20\n  4981: a3 = a3 <u 0x1\n  4984: a3 = 0 if a1 != 0\n  4986: a3 = 0 if a2 == 0\n  4988: jump @106 if a3 == 0\n      : @104 (gas: 12)\n  4991: a2 = u64 [sp + 0x48]\n  4994: a3 = u64 [sp + 0x40]\n  4997: u64 [s1 + 0x8] = a2\n  5000: u64 [s1] = a3\n  5002: u64 [s1 + 0x10] = a0\n  5005: u64 [s1 + 0x18] = a1\n  5008: sp = s0 + 0xffffffffffffff80\n  5011: ra = u64 [sp + 0x78]\n  5014: s0 = u64 [sp + 0x70]\n  5017: s1 = u64 [sp + 0x68]\n  5020: sp = sp + 0x80\n  5024: ret\n      : @105 (gas: 1)\n  5026: trap\n      : @106 (gas: 3)\n  5027: a0 = 0\n  5029: a1 = 0\n  5031: ra = 90, jump @0\n      : @107 [@dyn 45] (gas: 6)\n  5036: i32 a1 = a0 + 0\n  5038: a0 = 0x1\n  5041: a2 = 0\n  5043: ra = 0x5c\n  5046: ecalli 8 // 'seal_return'\n  5048: fallthrough\n      : @108 [@dyn 46] (gas: 9)\n  5049: a2 = u64 [a1 + 0x18]\n  5052: a3 = u64 [a1 + 0x10]\n  5055: a4 = u64 [a1 + 0x8]\n  5058: a1 = u64 [a1]\n  5060: u64 [a0 + 0x18] = a2\n  5063: u64 [a0 + 0x10] = a3\n  5066: u64 [a0 + 0x8] = a4\n  5069: u64 [a0] = a1\n  5071: ret\n      : @109 (gas: 8)\n  5073: a0 = u64 [sp + 0x30]\n  5076: a1 = u64 [sp + 0x38]\n  5079: a2 = u64 [sp + 0x28]\n  5082: a3 = u64 [sp + 0x20]\n  5085: a1 = a1 | a2\n  5088: a0 = a0 | a3\n  5091: a0 = a0 | a1\n  5094: jump @116 if a0 != 0\n      : @110 (gas: 2)\n  5098: a0 = i32 [0x20004]\n  5103: jump @116 if a0 <=u 35\n      : @111 (gas: 4)\n  5108: i32 a0 = sp + 0x80\n  5112: a1 = 0x4\n  5115: ecalli 1 // 'call_data_load'\n  5117: fallthrough\n      : @112 (gas: 11)\n  5118: s1 = u64 [sp + 0x90]\n  5122: a3 = u64 [sp + 0x98]\n  5126: a0 = 0x100000000\n  5136: a0 = a0 ^ s1\n  5139: a0 = a0 | a3\n  5142: a1 = s1 >> 0x20\n  5145: a1 = a1 <u 0x1\n  5148: u64 [sp + 0x18] = a3\n  5151: a1 = 0 if a3 != 0\n  5153: a1 = 0 if a0 == 0\n  5155: jump @117 if a1 == 0\n      : @113 (gas: 44)\n  5159: a0 = u64 [sp + 0x88]\n  5163: u64 [sp + 0x8] = a0\n  5166: a0 = u64 [sp + 0x80]\n  5170: u64 [sp + 0x10] = a0\n  5173: u64 [sp + 120] = 0\n  5176: u64 [sp + 112] = 0\n  5179: u64 [sp + 104] = 0\n  5182: u64 [sp + 96] = 0x1\n  5186: u64 [sp + 152] = 0\n  5190: u64 [sp + 144] = 0\n  5194: u64 [sp + 136] = 0\n  5198: u64 [sp + 128] = 0\n  5202: u32 [sp + 64] = 0x20\n  5206: i32 a1 = sp + 0x60\n  5209: i32 a3 = sp + 0x80\n  5213: i32 a4 = sp + 0x40\n  5216: a2 = 0xffffffffffffffff\n  5219: a0 = 0\n  5221: ecalli 4 // 'get_storage'\n  5223: a0 = u32 [sp + 0x94]\n  5227: a1 = u64 [sp + 0x98]\n  5231: a0 = a0 << 0x20\n  5234: a0 = a0 | s1\n  5237: a2 = u64 [sp + 0x18]\n  5240: a1 = a1 | a2\n  5243: u64 [sp + 120] = 0\n  5246: u64 [sp + 112] = 0\n  5249: u64 [sp + 104] = 0\n  5252: u64 [sp + 96] = 0x1\n  5256: u64 [sp + 0x98] = a1\n  5260: u64 [sp + 0x90] = a0\n  5264: a0 = u64 [sp + 0x8]\n  5267: u64 [sp + 0x88] = a0\n  5271: a0 = u64 [sp + 0x10]\n  5274: u64 [sp + 0x80] = a0\n  5278: i32 a1 = sp + 0x60\n  5281: i32 a3 = sp + 0x80\n  5285: a2 = 0xffffffffffffffff\n  5288: a4 = 0x20\n  5291: a0 = 0\n  5293: ecalli 10 // 'set_storage'\n  5295: a0 = 0x40\n  5298: a1 = 0x20\n  5301: ra = 94, jump @0\n      : @114 [@dyn 47] (gas: 100)\n  5306: a1 = u8 [a0 + 0x11]\n  5309: a2 = u8 [a0 + 0x10]\n  5312: a3 = u8 [a0 + 0x12]\n  5315: a4 = u8 [a0 + 0x13]\n  5318: a1 = a1 << 0x8\n  5321: a1 = a1 | a2\n  5324: a3 = a3 << 0x10\n  5327: a4 = a4 << 0x18\n  5330: a3 = a3 | a4\n  5333: a1 = a1 | a3\n  5336: a2 = u8 [a0 + 0x15]\n  5339: a3 = u8 [a0 + 0x14]\n  5342: a4 = u8 [a0 + 0x16]\n  5345: a5 = u8 [a0 + 0x17]\n  5348: a2 = a2 << 0x8\n  5351: a2 = a2 | a3\n  5354: a4 = a4 << 0x10\n  5357: a5 = a5 << 0x18\n  5360: a4 = a4 | a5\n  5363: a2 = a2 | a4\n  5366: a2 = a2 << 0x20\n  5369: t0 = a2 | a1\n  5372: a2 = u8 [a0 + 0x1]\n  5375: a3 = u8 [a0]\n  5377: a4 = u8 [a0 + 0x2]\n  5380: a5 = u8 [a0 + 0x3]\n  5383: a2 = a2 << 0x8\n  5386: a2 = a2 | a3\n  5389: a4 = a4 << 0x10\n  5392: a5 = a5 << 0x18\n  5395: a4 = a4 | a5\n  5398: a2 = a2 | a4\n  5401: a3 = u8 [a0 + 0x5]\n  5404: a4 = u8 [a0 + 0x4]\n  5407: a5 = u8 [a0 + 0x6]\n  5410: s1 = u8 [a0 + 0x7]\n  5413: a3 = a3 << 0x8\n  5416: a3 = a3 | a4\n  5419: a5 = a5 << 0x10\n  5422: s1 = s1 << 0x18\n  5425: a5 = a5 | s1\n  5428: a3 = a3 | a5\n  5431: a3 = a3 << 0x20\n  5434: a2 = a2 | a3\n  5437: a3 = u8 [a0 + 0x19]\n  5440: a4 = u8 [a0 + 0x18]\n  5443: a5 = u8 [a0 + 0x1a]\n  5446: s1 = u8 [a0 + 0x1b]\n  5449: a3 = a3 << 0x8\n  5452: a3 = a3 | a4\n  5455: a5 = a5 << 0x10\n  5458: s1 = s1 << 0x18\n  5461: a5 = a5 | s1\n  5464: a3 = a3 | a5\n  5467: a4 = u8 [a0 + 0x1d]\n  5470: a5 = u8 [a0 + 0x1c]\n  5473: s1 = u8 [a0 + 0x1e]\n  5476: a1 = u8 [a0 + 0x1f]\n  5479: a4 = a4 << 0x8\n  5482: a4 = a4 | a5\n  5485: s1 = s1 << 0x10\n  5488: a1 = a1 << 0x18\n  5491: a1 = a1 | s1\n  5494: a1 = a1 | a4\n  5497: a1 = a1 << 0x20\n  5500: a3 = a3 | a1\n  5503: a1 = u8 [a0 + 0x9]\n  5506: a4 = u8 [a0 + 0x8]\n  5509: a5 = u8 [a0 + 0xa]\n  5512: s1 = u8 [a0 + 0xb]\n  5515: a1 = a1 << 0x8\n  5518: a1 = a1 | a4\n  5521: a5 = a5 << 0x10\n  5524: s1 = s1 << 0x18\n  5527: a5 = a5 | s1\n  5530: a1 = a1 | a5\n  5533: a4 = u8 [a0 + 0xd]\n  5536: a5 = u8 [a0 + 0xc]\n  5539: s1 = u8 [a0 + 0xe]\n  5542: a0 = u8 [a0 + 0xf]\n  5545: a4 = a4 << 0x8\n  5548: a4 = a4 | a5\n  5551: s1 = s1 << 0x10\n  5554: a0 = a0 << 0x18\n  5557: a0 = a0 | s1\n  5560: a0 = a0 | a4\n  5563: a0 = a0 << 0x20\n  5566: a0 = a0 | a1\n  5569: a1 = reverse a0\n  5571: a0 = reverse a3\n  5573: a2 = reverse a2\n  5575: a3 = reverse t0\n  5577: a2 = a2 | a3\n  5580: a3 = a0 | a1\n  5583: a3 = a3 | a2\n  5586: a3 = a3 >> 0x20\n  5589: a1 = a1 | a2\n  5592: a1 = a1 << 0x20\n  5595: a1 = a1 | a3\n  5598: jump @119 if a1 == 0\n      : @115 (gas: 1)\n  5601: trap\n      : @116 (gas: 4)\n  5602: a0 = 0\n  5604: a1 = 0\n  5606: ra = 0x60\n  5609: jump @0\n      : @117 (gas: 2)\n  5612: a0 = 0\n  5614: ra = 96, jump @0\n      : @118 [@dyn 48] (gas: 7)\n  5619: i32 a1 = a0 + 0\n  5621: a0 = 0x1\n  5624: a2 = 0\n  5626: ecalli 8 // 'seal_return'\n  5628: i32 a0 = a0 + 0\n  5630: ra = 0x62\n  5633: jump @0\n      : @119 (gas: 2)\n  5636: i32 a0 = a0 + 0\n  5638: ra = 98, jump @0\n      : @120 [@dyn 49] (gas: 6)\n  5643: i32 a1 = a0 + 0\n  5645: a0 = 0\n  5647: a2 = 0\n  5649: ra = 0x64\n  5652: ecalli 8 // 'seal_return'\n  5654: fallthrough\n      : @121 [@dyn 50] (gas: 194)\n  5655: sp = sp + 0xffffffffffffffa0\n  5658: u64 [sp + 0x58] = ra\n  5661: u64 [sp + 0x50] = s0\n  5664: u64 [sp + 0x48] = s1\n  5667: u64 [sp] = a0\n  5669: t1 = u64 [a1]\n  5671: ra = u64 [a1 + 0x8]\n  5674: a4 = u64 [a1 + 0x10]\n  5677: a1 = u64 [a1 + 0x18]\n  5680: t0 = u64 [a2]\n  5682: a3 = u64 [a2 + 0x8]\n  5685: t2 = u64 [a2 + 0x18]\n  5688: a2 = u64 [a2 + 0x10]\n  5691: s0 = t0 >> 0x3d\n  5694: s1 = a3 << 0x3\n  5697: s0 = s0 | s1\n  5700: a3 = a3 >> 0x3d\n  5703: s1 = a2 << 0x3\n  5706: a3 = a3 | s1\n  5709: a2 = a2 >> 0x3d\n  5712: t2 = t2 << 0x3\n  5715: s1 = t2 | a2\n  5718: t2 = t0 << 0x3\n  5721: a2 = s1 >u 0\n  5723: a5 = a3 >u 0\n  5725: a5 = a2 if s1 != 0\n  5728: a0 = s0 >u 0\n  5730: a2 = t2 <u 0x100\n  5734: t2 = a2 ^ 0x1\n  5737: t2 = a0 if s0 != 0\n  5740: a3 = a3 | s1\n  5743: t2 = a5 if a3 != 0\n  5746: u8 [sp + 71] = 0\n  5749: u8 [sp + 70] = 0\n  5752: u8 [sp + 69] = 0\n  5755: u8 [sp + 68] = 0\n  5758: u8 [sp + 67] = 0\n  5761: u8 [sp + 66] = 0\n  5764: u8 [sp + 65] = 0\n  5767: u8 [sp + 64] = 0\n  5770: u8 [sp + 63] = 0\n  5773: u8 [sp + 62] = 0\n  5776: u8 [sp + 61] = 0\n  5779: u8 [sp + 60] = 0\n  5782: u8 [sp + 59] = 0\n  5785: u8 [sp + 58] = 0\n  5788: u8 [sp + 57] = 0\n  5791: u8 [sp + 56] = 0\n  5794: u8 [sp + 55] = 0\n  5797: u8 [sp + 54] = 0\n  5800: u8 [sp + 53] = 0\n  5803: u8 [sp + 52] = 0\n  5806: u8 [sp + 51] = 0\n  5809: u8 [sp + 50] = 0\n  5812: u8 [sp + 49] = 0\n  5815: u8 [sp + 48] = 0\n  5818: u8 [sp + 47] = 0\n  5821: u8 [sp + 46] = 0\n  5824: u8 [sp + 45] = 0\n  5827: u8 [sp + 44] = 0\n  5830: u8 [sp + 43] = 0\n  5833: u8 [sp + 42] = 0\n  5836: u8 [sp + 41] = 0\n  5839: u8 [sp + 40] = 0\n  5842: u8 [sp + 0x20] = a1\n  5845: u8 [sp + 0x18] = a4\n  5848: u8 [sp + 0x10] = ra\n  5851: u8 [sp + 0x8] = t1\n  5854: a0 = a1 >> 0x38\n  5857: u8 [sp + 0x27] = a0\n  5860: a0 = a1 >> 0x30\n  5863: u8 [sp + 0x26] = a0\n  5866: a0 = a1 >> 0x28\n  5869: u8 [sp + 0x25] = a0\n  5872: a0 = a1 >> 0x20\n  5875: u8 [sp + 0x24] = a0\n  5878: a0 = a1 >> 0x18\n  5881: u8 [sp + 0x23] = a0\n  5884: a0 = a1 >> 0x10\n  5887: u8 [sp + 0x22] = a0\n  5890: a1 = a1 >> 0x8\n  5893: u8 [sp + 0x21] = a1\n  5896: a0 = a4 >> 0x38\n  5899: u8 [sp + 0x1f] = a0\n  5902: a0 = a4 >> 0x30\n  5905: u8 [sp + 0x1e] = a0\n  5908: a0 = a4 >> 0x28\n  5911: u8 [sp + 0x1d] = a0\n  5914: a0 = a4 >> 0x20\n  5917: u8 [sp + 0x1c] = a0\n  5920: a0 = a4 >> 0x18\n  5923: u8 [sp + 0x1b] = a0\n  5926: a0 = a4 >> 0x10\n  5929: u8 [sp + 0x1a] = a0\n  5932: a4 = a4 >> 0x8\n  5935: u8 [sp + 0x19] = a4\n  5938: a0 = ra >> 0x38\n  5941: u8 [sp + 0x17] = a0\n  5944: a0 = ra >> 0x30\n  5947: u8 [sp + 0x16] = a0\n  5950: a0 = ra >> 0x28\n  5953: u8 [sp + 0x15] = a0\n  5956: a0 = ra >> 0x20\n  5959: u8 [sp + 0x14] = a0\n  5962: a0 = ra >> 0x18\n  5965: u8 [sp + 0x13] = a0\n  5968: a0 = ra >> 0x10\n  5971: u8 [sp + 0x12] = a0\n  5974: a0 = ra >> 0x8\n  5977: u8 [sp + 0x11] = a0\n  5980: a0 = t1 >> 0x38\n  5983: u8 [sp + 0xf] = a0\n  5986: a0 = t1 >> 0x30\n  5989: u8 [sp + 0xe] = a0\n  5992: a0 = t1 >> 0x28\n  5995: u8 [sp + 0xd] = a0\n  5998: a0 = t1 >> 0x20\n  6001: u8 [sp + 0xc] = a0\n  6004: a0 = t1 >> 0x18\n  6007: u8 [sp + 0xb] = a0\n  6010: a0 = t1 >> 0x10\n  6013: u8 [sp + 0xa] = a0\n  6016: a0 = t1 >> 0x8\n  6019: u8 [sp + 0x9] = a0\n  6022: a1 = t0 & 0x1f\n  6025: a0 = sp + 0x8\n  6028: a1 = a1 + a0\n  6031: a0 = u8 [a1 + 0x9]\n  6034: a2 = u8 [a1 + 0x8]\n  6037: a3 = u8 [a1 + 0xa]\n  6040: a4 = u8 [a1 + 0xb]\n  6043: a0 = a0 << 0x8\n  6046: a0 = a0 | a2\n  6049: a3 = a3 << 0x10\n  6052: a4 = a4 << 0x18\n  6055: a3 = a3 | a4\n  6058: a0 = a0 | a3\n  6061: a2 = u8 [a1 + 0xd]\n  6064: a3 = u8 [a1 + 0xc]\n  6067: a4 = u8 [a1 + 0xe]\n  6070: a5 = u8 [a1 + 0xf]\n  6073: a2 = a2 << 0x8\n  6076: a2 = a2 | a3\n  6079: a4 = a4 << 0x10\n  6082: a5 = a5 << 0x18\n  6085: a4 = a4 | a5\n  6088: a2 = a2 | a4\n  6091: a2 = a2 << 0x20\n  6094: a3 = a2 | a0\n  6097: a0 = u8 [a1 + 0x1]\n  6100: a2 = u8 [a1]\n  6102: a4 = u8 [a1 + 0x2]\n  6105: a5 = u8 [a1 + 0x3]\n  6108: a0 = a0 << 0x8\n  6111: a0 = a0 | a2\n  6114: a4 = a4 << 0x10\n  6117: a5 = a5 << 0x18\n  6120: a4 = a4 | a5\n  6123: a0 = a0 | a4\n  6126: a2 = u8 [a1 + 0x5]\n  6129: a4 = u8 [a1 + 0x4]\n  6132: a5 = u8 [a1 + 0x6]\n  6135: s1 = u8 [a1 + 0x7]\n  6138: a2 = a2 << 0x8\n  6141: a2 = a2 | a4\n  6144: a5 = a5 << 0x10\n  6147: s1 = s1 << 0x18\n  6150: a5 = a5 | s1\n  6153: a2 = a2 | a5\n  6156: a2 = a2 << 0x20\n  6159: a0 = a0 | a2\n  6162: a2 = u8 [a1 + 0x11]\n  6165: a4 = u8 [a1 + 0x10]\n  6168: a5 = u8 [a1 + 0x12]\n  6171: a1 = u8 [a1 + 0x13]\n  6174: a2 = a2 << 0x8\n  6177: a2 = a2 | a4\n  6180: a5 = a5 << 0x10\n  6183: a1 = a1 << 0x18\n  6186: a1 = a1 | a5\n  6189: a1 = a1 | a2\n  6192: a0 = 0 if t2 != 0\n  6194: a3 = 0 if t2 != 0\n  6196: a1 = 0 if t2 != 0\n  6198: a2 = u64 [sp]\n  6200: u64 [a2 + 24] = 0\n  6203: u64 [a2 + 0x10] = a1\n  6206: u64 [a2 + 0x8] = a3\n  6209: u64 [a2] = a0\n  6211: ra = u64 [sp + 0x58]\n  6214: s0 = u64 [sp + 0x50]\n  6217: s1 = u64 [sp + 0x48]\n  6220: sp = sp + 0x60\n  6223: ret\n      : @122 (gas: 8)\n  6225: a0 = u64 [sp + 0x30]\n  6228: a1 = u64 [sp + 0x38]\n  6231: a2 = u64 [sp + 0x28]\n  6234: a3 = u64 [sp + 0x20]\n  6237: a1 = a1 | a2\n  6240: a0 = a0 | a3\n  6243: a0 = a0 | a1\n  6246: jump @127 if a0 != 0\n      : @123 (gas: 2)\n  6250: a0 = i32 [0x20004]\n  6255: jump @127 if a0 <=u 3\n      : @124 (gas: 24)\n  6260: u64 [sp + 88] = 0\n  6263: u64 [sp + 80] = 0\n  6266: u64 [sp + 72] = 0\n  6269: u64 [sp + 64] = 0x1\n  6273: u64 [sp + 120] = 0\n  6276: u64 [sp + 112] = 0\n  6279: u64 [sp + 104] = 0\n  6282: u64 [sp + 96] = 0\n  6285: u32 [sp + 128] = 0x20\n  6290: i32 a1 = sp + 0x40\n  6293: i32 a3 = sp + 0x60\n  6296: i32 a4 = sp + 0x80\n  6300: a2 = 0xffffffffffffffff\n  6303: a0 = 0\n  6305: ecalli 4 // 'get_storage'\n  6307: a0 = u64 [sp + 0x70]\n  6310: u64 [sp + 0x8] = a0\n  6313: a0 = u64 [sp + 0x68]\n  6316: u64 [sp + 0x10] = a0\n  6319: a0 = u64 [sp + 0x60]\n  6322: u64 [sp + 0x18] = a0\n  6325: a0 = 0x40\n  6328: a1 = 0x20\n  6331: ra = 102, jump @0\n      : @125 [@dyn 51] (gas: 100)\n  6336: a1 = u8 [a0 + 0x11]\n  6339: a2 = u8 [a0 + 0x10]\n  6342: a3 = u8 [a0 + 0x12]\n  6345: a4 = u8 [a0 + 0x13]\n  6348: a1 = a1 << 0x8\n  6351: a1 = a1 | a2\n  6354: a3 = a3 << 0x10\n  6357: a4 = a4 << 0x18\n  6360: a3 = a3 | a4\n  6363: a1 = a1 | a3\n  6366: a2 = u8 [a0 + 0x15]\n  6369: a3 = u8 [a0 + 0x14]\n  6372: a4 = u8 [a0 + 0x16]\n  6375: a5 = u8 [a0 + 0x17]\n  6378: a2 = a2 << 0x8\n  6381: a2 = a2 | a3\n  6384: a4 = a4 << 0x10\n  6387: a5 = a5 << 0x18\n  6390: a4 = a4 | a5\n  6393: a2 = a2 | a4\n  6396: a2 = a2 << 0x20\n  6399: t0 = a2 | a1\n  6402: a2 = u8 [a0 + 0x1]\n  6405: a3 = u8 [a0]\n  6407: a4 = u8 [a0 + 0x2]\n  6410: a5 = u8 [a0 + 0x3]\n  6413: a2 = a2 << 0x8\n  6416: a2 = a2 | a3\n  6419: a4 = a4 << 0x10\n  6422: a5 = a5 << 0x18\n  6425: a4 = a4 | a5\n  6428: a2 = a2 | a4\n  6431: a3 = u8 [a0 + 0x5]\n  6434: a4 = u8 [a0 + 0x4]\n  6437: a5 = u8 [a0 + 0x6]\n  6440: s1 = u8 [a0 + 0x7]\n  6443: a3 = a3 << 0x8\n  6446: a3 = a3 | a4\n  6449: a5 = a5 << 0x10\n  6452: s1 = s1 << 0x18\n  6455: a5 = a5 | s1\n  6458: a3 = a3 | a5\n  6461: a3 = a3 << 0x20\n  6464: a2 = a2 | a3\n  6467: a3 = u8 [a0 + 0x19]\n  6470: a4 = u8 [a0 + 0x18]\n  6473: a5 = u8 [a0 + 0x1a]\n  6476: s1 = u8 [a0 + 0x1b]\n  6479: a3 = a3 << 0x8\n  6482: a3 = a3 | a4\n  6485: a5 = a5 << 0x10\n  6488: s1 = s1 << 0x18\n  6491: a5 = a5 | s1\n  6494: a3 = a3 | a5\n  6497: a4 = u8 [a0 + 0x1d]\n  6500: a5 = u8 [a0 + 0x1c]\n  6503: s1 = u8 [a0 + 0x1e]\n  6506: a1 = u8 [a0 + 0x1f]\n  6509: a4 = a4 << 0x8\n  6512: a4 = a4 | a5\n  6515: s1 = s1 << 0x10\n  6518: a1 = a1 << 0x18\n  6521: a1 = a1 | s1\n  6524: a1 = a1 | a4\n  6527: a1 = a1 << 0x20\n  6530: a3 = a3 | a1\n  6533: a1 = u8 [a0 + 0x9]\n  6536: a4 = u8 [a0 + 0x8]\n  6539: a5 = u8 [a0 + 0xa]\n  6542: s1 = u8 [a0 + 0xb]\n  6545: a1 = a1 << 0x8\n  6548: a1 = a1 | a4\n  6551: a5 = a5 << 0x10\n  6554: s1 = s1 << 0x18\n  6557: a5 = a5 | s1\n  6560: a1 = a1 | a5\n  6563: a4 = u8 [a0 + 0xd]\n  6566: a5 = u8 [a0 + 0xc]\n  6569: s1 = u8 [a0 + 0xe]\n  6572: a0 = u8 [a0 + 0xf]\n  6575: a4 = a4 << 0x8\n  6578: a4 = a4 | a5\n  6581: s1 = s1 << 0x10\n  6584: a0 = a0 << 0x18\n  6587: a0 = a0 | s1\n  6590: a0 = a0 | a4\n  6593: a0 = a0 << 0x20\n  6596: a0 = a0 | a1\n  6599: a1 = reverse a0\n  6601: a0 = reverse a3\n  6603: a2 = reverse a2\n  6605: a3 = reverse t0\n  6607: a2 = a2 | a3\n  6610: a3 = a0 | a1\n  6613: a3 = a3 | a2\n  6616: a3 = a3 >> 0x20\n  6619: a1 = a1 | a2\n  6622: a1 = a1 << 0x20\n  6625: a1 = a1 | a3\n  6628: jump @129 if a1 == 0\n      : @126 (gas: 1)\n  6631: trap\n      : @127 (gas: 3)\n  6632: a0 = 0\n  6634: a1 = 0\n  6636: ra = 104, jump @0\n      : @128 [@dyn 52] (gas: 5)\n  6641: i32 a1 = a0 + 0\n  6643: a0 = 0x1\n  6646: a2 = 0\n  6648: ecalli 8 // 'seal_return'\n  6650: fallthrough\n      : @129 (gas: 7)\n  6651: a1 = u64 [sp + 0x8]\n  6654: a1 = a1 << 0x20\n  6657: s1 = a1 >> 0x20\n  6660: i32 a0 = a0 + 0\n  6662: u64 [sp + 0x8] = a0\n  6665: a1 = 0x20\n  6668: ra = 106, jump @0\n      : @130 [@dyn 53] (gas: 58)\n  6673: a1 = reverse s1\n  6675: a2 = u64 [sp + 0x10]\n  6678: a2 = reverse a2\n  6680: a3 = u64 [sp + 0x18]\n  6683: a3 = reverse a3\n  6685: a4 = a3 >> 0x38\n  6688: u8 [a0 + 0x1f] = a4\n  6691: a4 = a3 >> 0x30\n  6694: u8 [a0 + 0x1e] = a4\n  6697: a4 = a3 >> 0x28\n  6700: u8 [a0 + 0x1d] = a4\n  6703: a4 = a3 >> 0x20\n  6706: u8 [a0 + 0x1c] = a4\n  6709: a4 = a3 >> 0x18\n  6712: u8 [a0 + 0x1b] = a4\n  6715: a4 = a3 >> 0x10\n  6718: u8 [a0 + 0x1a] = a4\n  6721: a4 = a3 >> 0x8\n  6724: u8 [a0 + 0x19] = a4\n  6727: u8 [a0 + 0x18] = a3\n  6730: u8 [a0 + 0x10] = a2\n  6733: u8 [a0 + 11] = 0\n  6736: u8 [a0 + 10] = 0\n  6739: u8 [a0 + 9] = 0\n  6742: u8 [a0 + 7] = 0\n  6745: u8 [a0 + 6] = 0\n  6748: u8 [a0 + 5] = 0\n  6751: u8 [a0 + 4] = 0\n  6754: u8 [a0 + 3] = 0\n  6757: u8 [a0 + 2] = 0\n  6760: u8 [a0 + 1] = 0\n  6763: u8 [a0 + 0] = 0\n  6765: a3 = a2 >> 0x38\n  6768: u8 [a0 + 0x17] = a3\n  6771: a3 = a2 >> 0x30\n  6774: u8 [a0 + 0x16] = a3\n  6777: a3 = a2 >> 0x28\n  6780: u8 [a0 + 0x15] = a3\n  6783: a3 = a2 >> 0x20\n  6786: u8 [a0 + 0x14] = a3\n  6789: a3 = a2 >> 0x18\n  6792: u8 [a0 + 0x13] = a3\n  6795: a3 = a2 >> 0x10\n  6798: u8 [a0 + 0x12] = a3\n  6801: a2 = a2 >> 0x8\n  6804: u8 [a0 + 0x11] = a2\n  6807: u8 [a0 + 0x8] = a1\n  6810: a2 = a1 >> 0x38\n  6813: u8 [a0 + 0xf] = a2\n  6816: a2 = a1 >> 0x30\n  6819: u8 [a0 + 0xe] = a2\n  6822: a2 = a1 >> 0x28\n  6825: u8 [a0 + 0xd] = a2\n  6828: a1 = a1 >> 0x20\n  6831: u8 [a0 + 0xc] = a1\n  6834: a1 = 0x20\n  6837: a0 = u64 [sp + 0x8]\n  6840: ra = 108, jump @0\n      : @131 [@dyn 54] (gas: 6)\n  6845: i32 a1 = a0 + 0\n  6847: a2 = 0x20\n  6850: a0 = 0\n  6852: ra = 0x6e\n  6855: ecalli 8 // 'seal_return'\n  6857: fallthrough\n      : @132 [@dyn 55] (gas: 13)\n  6858: sp = sp + 0xffffffffffffff80\n  6861: u64 [sp + 0x78] = ra\n  6864: u64 [sp + 0x70] = s0\n  6867: u64 [sp + 0x68] = s1\n  6870: s0 = sp + 0x80\n  6874: sp = sp & 0xffffffffffffffe0\n  6877: u64 [sp + 88] = 0\n  6880: u64 [sp + 80] = 0\n  6883: u64 [sp + 72] = 0\n  6886: u64 [sp + 64] = 0\n  6889: i32 a0 = sp + 0x40\n  6892: ecalli 11 // 'value_transferred'\n  6894: fallthrough\n      : @133 (gas: 8)\n  6895: a0 = u64 [sp + 0x50]\n  6898: a1 = u64 [sp + 0x58]\n  6901: a2 = u64 [sp + 0x48]\n  6904: a3 = u64 [sp + 0x40]\n  6907: a1 = a1 | a2\n  6910: a0 = a0 | a3\n  6913: a0 = a0 | a1\n  6916: jump @139 if a0 != 0\n      : @134 (gas: 2)\n  6920: a0 = i32 [0x20004]\n  6925: jump @139 if a0 <=u 3\n      : @135 (gas: 34)\n  6930: a0 = sp + 0x20\n  6933: ra = 0x70\n  6936: sp = sp + 0xfffffffffffffec0\n  6940: u64 [sp + 0x138] = ra\n  6944: u64 [sp + 0x130] = s0\n  6948: u64 [sp + 0x128] = s1\n  6952: s0 = sp + 0x140\n  6956: sp = sp & 0xffffffffffffffe0\n  6959: u64 [sp + 0x28] = a0\n  6962: u64 [sp + 248] = 0\n  6966: u64 [sp + 240] = 0\n  6970: u64 [sp + 232] = 0\n  6974: u64 [sp + 224] = 0x1\n  6979: u64 [sp + 280] = 0\n  6983: u64 [sp + 272] = 0\n  6987: u64 [sp + 264] = 0\n  6991: u64 [sp + 256] = 0\n  6995: u32 [sp + 288] = 0x20\n  7000: i32 a1 = sp + 0xe0\n  7004: i32 a3 = sp + 0x100\n  7008: i32 a4 = sp + 0x120\n  7012: a2 = 0xffffffffffffffff\n  7015: a0 = 0\n  7017: ecalli 4 // 'get_storage'\n  7019: a0 = u64 [sp + 0x110]\n  7023: u64 [sp + 0x38] = a0\n  7026: a0 = u64 [sp + 0x108]\n  7030: u64 [sp + 0x30] = a0\n  7033: a0 = u64 [sp + 0x100]\n  7037: u64 [sp + 0x40] = a0\n  7040: a0 = 0x40\n  7043: a1 = 0x20\n  7046: ra = 0x9e\n  7050: jump @0\n      : @136 [@dyn 56] (gas: 11)\n  7053: a0 = u64 [sp + 0x38]\n  7056: u64 [sp + 0x18] = a0\n  7059: a0 = u64 [sp + 0x30]\n  7062: u64 [sp + 0x8] = a0\n  7065: a0 = u64 [sp + 0x28]\n  7068: u64 [sp + 0x10] = a0\n  7071: a0 = u64 [sp + 0x20]\n  7074: u64 [sp] = a0\n  7076: a0 = 0x40\n  7079: a1 = 0x20\n  7082: ra = 114, jump @0\n      : @137 [@dyn 57] (gas: 100)\n  7087: a1 = u8 [a0 + 0x11]\n  7090: a2 = u8 [a0 + 0x10]\n  7093: a3 = u8 [a0 + 0x12]\n  7096: a4 = u8 [a0 + 0x13]\n  7099: a1 = a1 << 0x8\n  7102: a1 = a1 | a2\n  7105: a3 = a3 << 0x10\n  7108: a4 = a4 << 0x18\n  7111: a3 = a3 | a4\n  7114: a1 = a1 | a3\n  7117: a2 = u8 [a0 + 0x15]\n  7120: a3 = u8 [a0 + 0x14]\n  7123: a4 = u8 [a0 + 0x16]\n  7126: a5 = u8 [a0 + 0x17]\n  7129: a2 = a2 << 0x8\n  7132: a2 = a2 | a3\n  7135: a4 = a4 << 0x10\n  7138: a5 = a5 << 0x18\n  7141: a4 = a4 | a5\n  7144: a2 = a2 | a4\n  7147: a2 = a2 << 0x20\n  7150: t0 = a2 | a1\n  7153: a2 = u8 [a0 + 0x1]\n  7156: a3 = u8 [a0]\n  7158: a4 = u8 [a0 + 0x2]\n  7161: a5 = u8 [a0 + 0x3]\n  7164: a2 = a2 << 0x8\n  7167: a2 = a2 | a3\n  7170: a4 = a4 << 0x10\n  7173: a5 = a5 << 0x18\n  7176: a4 = a4 | a5\n  7179: a2 = a2 | a4\n  7182: a3 = u8 [a0 + 0x5]\n  7185: a4 = u8 [a0 + 0x4]\n  7188: a5 = u8 [a0 + 0x6]\n  7191: s1 = u8 [a0 + 0x7]\n  7194: a3 = a3 << 0x8\n  7197: a3 = a3 | a4\n  7200: a5 = a5 << 0x10\n  7203: s1 = s1 << 0x18\n  7206: a5 = a5 | s1\n  7209: a3 = a3 | a5\n  7212: a3 = a3 << 0x20\n  7215: a2 = a2 | a3\n  7218: a3 = u8 [a0 + 0x19]\n  7221: a4 = u8 [a0 + 0x18]\n  7224: a5 = u8 [a0 + 0x1a]\n  7227: s1 = u8 [a0 + 0x1b]\n  7230: a3 = a3 << 0x8\n  7233: a3 = a3 | a4\n  7236: a5 = a5 << 0x10\n  7239: s1 = s1 << 0x18\n  7242: a5 = a5 | s1\n  7245: a3 = a3 | a5\n  7248: a4 = u8 [a0 + 0x1d]\n  7251: a5 = u8 [a0 + 0x1c]\n  7254: s1 = u8 [a0 + 0x1e]\n  7257: a1 = u8 [a0 + 0x1f]\n  7260: a4 = a4 << 0x8\n  7263: a4 = a4 | a5\n  7266: s1 = s1 << 0x10\n  7269: a1 = a1 << 0x18\n  7272: a1 = a1 | s1\n  7275: a1 = a1 | a4\n  7278: a1 = a1 << 0x20\n  7281: a3 = a3 | a1\n  7284: a1 = u8 [a0 + 0x9]\n  7287: a4 = u8 [a0 + 0x8]\n  7290: a5 = u8 [a0 + 0xa]\n  7293: s1 = u8 [a0 + 0xb]\n  7296: a1 = a1 << 0x8\n  7299: a1 = a1 | a4\n  7302: a5 = a5 << 0x10\n  7305: s1 = s1 << 0x18\n  7308: a5 = a5 | s1\n  7311: a1 = a1 | a5\n  7314: a4 = u8 [a0 + 0xd]\n  7317: a5 = u8 [a0 + 0xc]\n  7320: s1 = u8 [a0 + 0xe]\n  7323: a0 = u8 [a0 + 0xf]\n  7326: a4 = a4 << 0x8\n  7329: a4 = a4 | a5\n  7332: s1 = s1 << 0x10\n  7335: a0 = a0 << 0x18\n  7338: a0 = a0 | s1\n  7341: a0 = a0 | a4\n  7344: a0 = a0 << 0x20\n  7347: a0 = a0 | a1\n  7350: a1 = reverse a0\n  7352: a0 = reverse a3\n  7354: a2 = reverse a2\n  7356: a3 = reverse t0\n  7358: a2 = a2 | a3\n  7361: a3 = a0 | a1\n  7364: a3 = a3 | a2\n  7367: a3 = a3 >> 0x20\n  7370: a1 = a1 | a2\n  7373: a1 = a1 << 0x20\n  7376: a1 = a1 | a3\n  7379: jump @141 if a1 == 0\n      : @138 (gas: 1)\n  7382: trap\n      : @139 (gas: 3)\n  7383: a0 = 0\n  7385: a1 = 0\n  7387: ra = 116, jump @0\n      : @140 [@dyn 58] (gas: 5)\n  7392: i32 a1 = a0 + 0\n  7394: a0 = 0x1\n  7397: a2 = 0\n  7399: ecalli 8 // 'seal_return'\n  7401: fallthrough\n      : @141 (gas: 13)\n  7402: a1 = u64 [sp + 0x8]\n  7405: a2 = u64 [sp]\n  7407: a1 = a1 | a2\n  7410: a2 = u64 [sp + 0x18]\n  7413: a3 = u64 [sp + 0x10]\n  7416: a2 = a2 | a3\n  7419: a1 = a1 | a2\n  7422: a1 = a1 >u 0\n  7424: u64 [sp + 0x18] = a1\n  7427: i32 s1 = a0 + 0\n  7429: a1 = 0x20\n  7432: a0 = s1\n  7434: ra = 118, jump @0\n      : @142 [@dyn 59] (gas: 36)\n  7439: u8 [a0 + 30] = 0\n  7442: u8 [a0 + 29] = 0\n  7445: u8 [a0 + 28] = 0\n  7448: u8 [a0 + 27] = 0\n  7451: u8 [a0 + 26] = 0\n  7454: u8 [a0 + 25] = 0\n  7457: u8 [a0 + 24] = 0\n  7460: u8 [a0 + 23] = 0\n  7463: u8 [a0 + 22] = 0\n  7466: u8 [a0 + 21] = 0\n  7469: u8 [a0 + 20] = 0\n  7472: u8 [a0 + 19] = 0\n  7475: u8 [a0 + 18] = 0\n  7478: u8 [a0 + 17] = 0\n  7481: u8 [a0 + 16] = 0\n  7484: u8 [a0 + 15] = 0\n  7487: u8 [a0 + 14] = 0\n  7490: u8 [a0 + 13] = 0\n  7493: u8 [a0 + 12] = 0\n  7496: u8 [a0 + 11] = 0\n  7499: u8 [a0 + 10] = 0\n  7502: u8 [a0 + 9] = 0\n  7505: u8 [a0 + 8] = 0\n  7508: u8 [a0 + 7] = 0\n  7511: u8 [a0 + 6] = 0\n  7514: u8 [a0 + 5] = 0\n  7517: u8 [a0 + 4] = 0\n  7520: u8 [a0 + 3] = 0\n  7523: u8 [a0 + 2] = 0\n  7526: u8 [a0 + 1] = 0\n  7529: u8 [a0 + 0] = 0\n  7531: a1 = u64 [sp + 0x18]\n  7534: u8 [a0 + 0x1f] = a1\n  7537: a1 = 0x20\n  7540: a0 = s1\n  7542: ra = 120, jump @0\n      : @143 [@dyn 60] (gas: 6)\n  7547: i32 a1 = a0 + 0\n  7549: a2 = 0x20\n  7552: a0 = 0\n  7554: ra = 0x7a\n  7557: ecalli 8 // 'seal_return'\n  7559: fallthrough\n      : @144 [@dyn 61] (gas: 5)\n  7560: u64 [a0 + 24] = 0\n  7563: u64 [a0 + 16] = 0\n  7566: u64 [a0 + 8] = 0\n  7569: u64 [a0 + 0] = 0\n  7571: ret\n      : @145 (gas: 16)\n  7573: sp = sp + 0xffffffffffffff20\n  7577: u64 [sp + 0xd8] = ra\n  7581: u64 [sp + 0xd0] = s0\n  7585: u64 [sp + 0xc8] = s1\n  7589: s0 = sp + 0xe0\n  7593: sp = sp & 0xfffffffffffffff0\n  7596: a3 = u64 [a1 + 0x18]\n  7599: a2 = u64 [a1 + 0x10]\n  7602: a4 = u64 [a1 + 0x8]\n  7605: u64 [sp + 0x10] = a2\n  7608: u64 [sp + 0x8] = a3\n  7611: a2 = a2 | a3\n  7614: a3 = a4 <u 0x1\n  7617: a3 = 0 if a2 != 0\n  7619: u64 [sp + 0x38] = a0\n  7622: jump @151 if a3 == 0\n      : @146 (gas: 19)\n  7626: s1 = u64 [a1]\n  7628: a0 = s1 + 0x1f\n  7631: a1 = a0 <u s1\n  7634: u64 [sp + 0x18] = a4\n  7637: a1 = a1 + a4\n  7640: a1 = a1 & 0x1\n  7643: a0 = a0 & 0xffffffffffffffe0\n  7646: a2 = a0 + 0x20\n  7649: a0 = a2 <u a0\n  7652: a3 = a1 + a0\n  7655: a4 = a3 <u a1\n  7658: a4 = a0 if a0 == 0\n  7661: u64 [sp + 152] = 0\n  7665: u64 [sp + 0x80] = a2\n  7669: u64 [sp + 0x88] = a3\n  7673: a0 = sp + 0xa0\n  7677: a1 = sp + 0x80\n  7681: u64 [sp + 0x90] = a4\n  7685: ra = 124, jump @50\n      : @147 [@dyn 62] (gas: 15)\n  7690: a0 = u64 [sp + 0xb8]\n  7694: a2 = u64 [sp + 0xb0]\n  7698: a1 = u64 [sp + 0xa8]\n  7702: a3 = u64 [sp + 0xa0]\n  7706: u64 [sp + 0x28] = a0\n  7709: u64 [sp + 0x20] = a1\n  7712: a0 = a0 | a1\n  7715: a1 = a3 | a2\n  7718: a1 = a1 | a0\n  7721: a1 = a1 >> 0x20\n  7724: u64 [sp + 0x30] = a2\n  7727: a0 = a0 | a2\n  7730: a0 = a0 << 0x20\n  7733: a0 = a0 | a1\n  7736: jump @150 if a0 != 0\n      : @148 (gas: 4)\n  7740: i32 a0 = a3 + 0\n  7742: a1 = 0x20\n  7745: u64 [sp] = a3\n  7747: ra = 126, jump @0\n      : @149 [@dyn 63] (gas: 82)\n  7752: a1 = u64 [sp + 0x8]\n  7755: a1 = reverse a1\n  7757: a2 = u64 [sp + 0x10]\n  7760: a2 = reverse a2\n  7762: a3 = u64 [sp + 0x18]\n  7765: a3 = reverse a3\n  7767: a4 = reverse s1\n  7769: a5 = a4 >> 0x38\n  7772: u8 [a0 + 0x1f] = a5\n  7775: a5 = a4 >> 0x30\n  7778: u8 [a0 + 0x1e] = a5\n  7781: a5 = a4 >> 0x28\n  7784: u8 [a0 + 0x1d] = a5\n  7787: a5 = a4 >> 0x20\n  7790: u8 [a0 + 0x1c] = a5\n  7793: a5 = a4 >> 0x18\n  7796: u8 [a0 + 0x1b] = a5\n  7799: a5 = a4 >> 0x10\n  7802: u8 [a0 + 0x1a] = a5\n  7805: a5 = a4 >> 0x8\n  7808: u8 [a0 + 0x19] = a5\n  7811: u8 [a0 + 0x18] = a4\n  7814: u8 [a0 + 0x10] = a3\n  7817: a4 = a3 >> 0x38\n  7820: u8 [a0 + 0x17] = a4\n  7823: a4 = a3 >> 0x30\n  7826: u8 [a0 + 0x16] = a4\n  7829: a4 = a3 >> 0x28\n  7832: u8 [a0 + 0x15] = a4\n  7835: a4 = a3 >> 0x20\n  7838: u8 [a0 + 0x14] = a4\n  7841: a4 = a3 >> 0x18\n  7844: u8 [a0 + 0x13] = a4\n  7847: a4 = a3 >> 0x10\n  7850: u8 [a0 + 0x12] = a4\n  7853: a3 = a3 >> 0x8\n  7856: u8 [a0 + 0x11] = a3\n  7859: u8 [a0 + 0x8] = a2\n  7862: a3 = a2 >> 0x38\n  7865: u8 [a0 + 0xf] = a3\n  7868: a3 = a2 >> 0x30\n  7871: u8 [a0 + 0xe] = a3\n  7874: a3 = a2 >> 0x28\n  7877: u8 [a0 + 0xd] = a3\n  7880: a3 = a2 >> 0x20\n  7883: u8 [a0 + 0xc] = a3\n  7886: a3 = a2 >> 0x18\n  7889: u8 [a0 + 0xb] = a3\n  7892: a3 = a2 >> 0x10\n  7895: u8 [a0 + 0xa] = a3\n  7898: a2 = a2 >> 0x8\n  7901: u8 [a0 + 0x9] = a2\n  7904: u8 [a0] = a1\n  7906: a2 = a1 >> 0x38\n  7909: u8 [a0 + 0x7] = a2\n  7912: a2 = a1 >> 0x30\n  7915: u8 [a0 + 0x6] = a2\n  7918: a2 = a1 >> 0x28\n  7921: u8 [a0 + 0x5] = a2\n  7924: a2 = a1 >> 0x20\n  7927: u8 [a0 + 0x4] = a2\n  7930: a2 = a1 >> 0x18\n  7933: u8 [a0 + 0x3] = a2\n  7936: a2 = a1 >> 0x10\n  7939: u8 [a0 + 0x2] = a2\n  7942: a1 = a1 >> 0x8\n  7945: u8 [a0 + 0x1] = a1\n  7948: a0 = u64 [sp + 0x38]\n  7951: a1 = u64 [sp]\n  7953: u64 [a0] = a1\n  7955: a1 = u64 [sp + 0x28]\n  7958: u64 [a0 + 0x18] = a1\n  7961: a1 = u64 [sp + 0x20]\n  7964: u64 [a0 + 0x8] = a1\n  7967: a1 = u64 [sp + 0x30]\n  7970: u64 [a0 + 0x10] = a1\n  7973: sp = s0 + 0xffffffffffffff20\n  7977: ra = u64 [sp + 0xd8]\n  7981: s0 = u64 [sp + 0xd0]\n  7985: s1 = u64 [sp + 0xc8]\n  7989: sp = sp + 0xe0\n  7993: ret\n      : @150 (gas: 1)\n  7995: trap\n      : @151 (gas: 8)\n  7996: u64 [sp + 112] = 0\n  7999: u64 [sp + 104] = 0\n  8002: u64 [sp + 96] = 0\n  8005: a0 = 0x4e487b7100000000\n  8015: a1 = sp + 0x60\n  8018: u64 [sp + 0x78] = a0\n  8021: a0 = 0\n  8023: ra = 128, jump @8\n      : @152 [@dyn 64] (gas: 7)\n  8029: u64 [sp + 88] = 0\n  8032: u64 [sp + 80] = 0\n  8035: u64 [sp + 64] = 0x41\n  8039: a0 = 0x4\n  8042: a1 = sp + 0x40\n  8045: u64 [sp + 72] = 0\n  8048: ra = 130, jump @8\n      : @153 [@dyn 65] (gas: 3)\n  8054: a1 = 0x24\n  8057: a0 = 0\n  8059: ra = 132, jump @0\n      : @154 [@dyn 66] (gas: 6)\n  8065: i32 a1 = a0 + 0\n  8067: a0 = 0x1\n  8070: a2 = 0x24\n  8073: ra = 0x86\n  8077: ecalli 8 // 'seal_return'\n  8079: fallthrough\n      : @155 [@dyn 67] (gas: 6)\n  8080: u64 [a0 + 24] = 0\n  8083: u64 [a0 + 16] = 0\n  8086: u64 [a0 + 8] = 0\n  8089: a1 = 0x60\n  8092: u64 [a0] = a1\n  8094: ret\n      : @156 (gas: 9)\n  8096: sp = sp + 0xffffffffffffff60\n  8100: u64 [sp + 0x98] = ra\n  8104: u64 [sp + 0x90] = s0\n  8108: u64 [sp + 0x88] = s1\n  8112: s0 = sp + 0xa0\n  8116: sp = sp & 0xffffffffffffffe0\n  8119: s1 = a0\n  8121: ecalli 7 // 'return_data_size'\n  8123: fallthrough\n      : @157 (gas: 1)\n  8124: jump @166 if a0 == 0\n      : @158 (gas: 9)\n  8128: u64 [sp + 0x20] = s1\n  8131: ecalli 7 // 'return_data_size'\n  8133: u64 [sp + 88] = 0\n  8136: u64 [sp + 80] = 0\n  8139: u64 [sp + 0x40] = a0\n  8142: a0 = sp + 0x60\n  8145: a1 = sp + 0x40\n  8148: u64 [sp + 72] = 0\n  8151: ra = 136, jump @145\n      : @159 [@dyn 68] (gas: 9)\n  8157: a0 = u64 [sp + 0x78]\n  8160: u64 [sp + 0x38] = a0\n  8163: a0 = u64 [sp + 0x70]\n  8166: u64 [sp + 0x30] = a0\n  8169: a0 = u64 [sp + 0x68]\n  8172: u64 [sp + 0x28] = a0\n  8175: s1 = u64 [sp + 0x60]\n  8178: ecalli 7 // 'return_data_size'\n  8180: fallthrough\n      : @160 (gas: 20)\n  8181: a1 = s1 + 0x20\n  8184: u64 [sp + 0x18] = s1\n  8187: a2 = a1 <u s1\n  8190: a4 = u64 [sp + 0x28]\n  8193: a3 = a4 + a2\n  8196: a4 = a3 <u a4\n  8199: a4 = a2 if a2 == 0\n  8202: a2 = u64 [sp + 0x30]\n  8205: a4 = a4 + a2\n  8208: a2 = a4 <u a2\n  8211: a5 = u64 [sp + 0x38]\n  8214: a2 = a2 + a5\n  8217: a5 = a1 | a4\n  8220: a2 = a2 | a3\n  8223: a5 = a5 | a2\n  8226: a5 = a5 >> 0x20\n  8229: a2 = a2 | a4\n  8232: a2 = a2 << 0x20\n  8235: a2 = a2 | a5\n  8238: jump @165 if a2 != 0\n      : @161 (gas: 3)\n  8241: s1 = a0\n  8243: a0 = a0 >> 0x20\n  8246: jump @165 if a0 != 0\n      : @162 (gas: 4)\n  8249: i32 a0 = a1 + 0\n  8251: i32 a1 = s1 + 0\n  8253: u64 [sp + 0x10] = a1\n  8256: ra = 138, jump @0\n      : @163 [@dyn 69] (gas: 6)\n  8262: u32 [sp + 0x80] = s1\n  8266: i32 a0 = a0 + 0\n  8268: i32 a1 = sp + 0x80\n  8272: a2 = 0\n  8274: ecalli 6 // 'return_data_copy'\n  8276: fallthrough\n      : @164 (gas: 8)\n  8277: a0 = i32 [sp + 0x80]\n  8281: s1 = u64 [sp + 0x20]\n  8284: a1 = u64 [sp + 0x38]\n  8287: a2 = u64 [sp + 0x30]\n  8290: a3 = u64 [sp + 0x28]\n  8293: a4 = u64 [sp + 0x18]\n  8296: a5 = u64 [sp + 0x10]\n  8299: jump @167 if a0 >=u a5\n      : @165 (gas: 1)\n  8302: trap\n      : @166 (gas: 5)\n  8303: a3 = 0\n  8305: a2 = 0\n  8307: a1 = 0\n  8309: a4 = 0x60\n  8312: fallthrough\n      : @167 (gas: 10)\n  8313: u64 [s1] = a4\n  8315: u64 [s1 + 0x8] = a3\n  8318: u64 [s1 + 0x10] = a2\n  8321: u64 [s1 + 0x18] = a1\n  8324: sp = s0 + 0xffffffffffffff60\n  8328: ra = u64 [sp + 0x98]\n  8332: s0 = u64 [sp + 0x90]\n  8336: s1 = u64 [sp + 0x88]\n  8340: sp = sp + 0xa0\n  8344: ret\n      : @168 [@dyn 70] (gas: 112)\n  8346: a1 = u8 [a0 + 0x19]\n  8349: a2 = u8 [a0 + 0x18]\n  8352: a3 = u8 [a0 + 0x1a]\n  8355: a4 = u8 [a0 + 0x1b]\n  8358: a1 = a1 << 0x8\n  8361: a1 = a1 | a2\n  8364: a3 = a3 << 0x10\n  8367: a4 = a4 << 0x18\n  8370: a3 = a3 | a4\n  8373: a1 = a1 | a3\n  8376: a2 = u8 [a0 + 0x1d]\n  8379: a3 = u8 [a0 + 0x1c]\n  8382: a4 = u8 [a0 + 0x1e]\n  8385: a5 = u8 [a0 + 0x1f]\n  8388: a2 = a2 << 0x8\n  8391: a2 = a2 | a3\n  8394: a4 = a4 << 0x10\n  8397: a5 = a5 << 0x18\n  8400: a4 = a4 | a5\n  8403: a2 = a2 | a4\n  8406: a2 = a2 << 0x20\n  8409: t0 = a2 | a1\n  8412: a2 = u8 [a0 + 0x11]\n  8415: a3 = u8 [a0 + 0x10]\n  8418: a4 = u8 [a0 + 0x12]\n  8421: a5 = u8 [a0 + 0x13]\n  8424: a2 = a2 << 0x8\n  8427: a2 = a2 | a3\n  8430: a4 = a4 << 0x10\n  8433: a5 = a5 << 0x18\n  8436: a4 = a4 | a5\n  8439: a2 = a2 | a4\n  8442: a3 = u8 [a0 + 0x15]\n  8445: a4 = u8 [a0 + 0x14]\n  8448: a5 = u8 [a0 + 0x16]\n  8451: s1 = u8 [a0 + 0x17]\n  8454: a3 = a3 << 0x8\n  8457: a3 = a3 | a4\n  8460: a5 = a5 << 0x10\n  8463: s1 = s1 << 0x18\n  8466: a5 = a5 | s1\n  8469: a3 = a3 | a5\n  8472: a3 = a3 << 0x20\n  8475: a2 = a2 | a3\n  8478: a3 = u8 [a0 + 0x9]\n  8481: a4 = u8 [a0 + 0x8]\n  8484: a5 = u8 [a0 + 0xa]\n  8487: s1 = u8 [a0 + 0xb]\n  8490: a3 = a3 << 0x8\n  8493: a3 = a3 | a4\n  8496: a5 = a5 << 0x10\n  8499: s1 = s1 << 0x18\n  8502: a5 = a5 | s1\n  8505: a3 = a3 | a5\n  8508: a4 = u8 [a0 + 0xd]\n  8511: a5 = u8 [a0 + 0xc]\n  8514: s1 = u8 [a0 + 0xe]\n  8517: a1 = u8 [a0 + 0xf]\n  8520: a4 = a4 << 0x8\n  8523: a4 = a4 | a5\n  8526: s1 = s1 << 0x10\n  8529: a1 = a1 << 0x18\n  8532: a1 = a1 | s1\n  8535: a1 = a1 | a4\n  8538: a1 = a1 << 0x20\n  8541: a3 = a3 | a1\n  8544: a1 = u8 [a0 + 0x1]\n  8547: a4 = u8 [a0]\n  8549: a5 = u8 [a0 + 0x2]\n  8552: s1 = u8 [a0 + 0x3]\n  8555: a1 = a1 << 0x8\n  8558: a1 = a1 | a4\n  8561: a5 = a5 << 0x10\n  8564: s1 = s1 << 0x18\n  8567: a5 = a5 | s1\n  8570: a1 = a1 | a5\n  8573: a4 = u8 [a0 + 0x5]\n  8576: a5 = u8 [a0 + 0x4]\n  8579: s1 = u8 [a0 + 0x6]\n  8582: a0 = u8 [a0 + 0x7]\n  8585: a4 = a4 << 0x8\n  8588: a4 = a4 | a5\n  8591: s1 = s1 << 0x10\n  8594: a0 = a0 << 0x18\n  8597: a0 = a0 | s1\n  8600: a0 = a0 | a4\n  8603: a0 = a0 << 0x20\n  8606: a0 = a0 | a1\n  8609: a4 = reverse a0\n  8611: a5 = reverse a3\n  8613: a3 = reverse a2\n  8615: a1 = reverse t0\n  8617: a0 = a1 + 0x20\n  8620: u64 [sp + 0x60] = a1\n  8623: a1 = a0 <u a1\n  8626: a2 = a3 + a1\n  8629: u64 [sp + 0x68] = a3\n  8632: a3 = a2 <u a3\n  8635: a3 = a1 if a1 == 0\n  8638: a3 = a3 + a5\n  8641: u64 [sp + 0x70] = a5\n  8644: a1 = a3 <u a5\n  8647: u64 [sp + 0x78] = a4\n  8650: a1 = a1 + a4\n  8653: a4 = a0 | a3\n  8656: a1 = a1 | a2\n  8659: a4 = a4 | a1\n  8662: a4 = a4 >> 0x20\n  8665: a1 = a1 | a3\n  8668: a1 = a1 << 0x20\n  8671: a1 = a1 | a4\n  8674: jump @182 if a1 != 0\n      : @169 (gas: 4)\n  8678: i32 s1 = a0 + 0\n  8680: a1 = 0x20\n  8683: a0 = s1\n  8685: ra = 142, jump @0\n      : @170 [@dyn 71] (gas: 53)\n  8691: u8 [a0 + 31] = 0\n  8694: u8 [a0 + 30] = 0\n  8697: u8 [a0 + 29] = 0\n  8700: u8 [a0 + 28] = 0\n  8703: u8 [a0 + 27] = 0\n  8706: u8 [a0 + 26] = 0\n  8709: u8 [a0 + 25] = 0\n  8712: u8 [a0 + 24] = 0\n  8715: u8 [a0 + 23] = 0\n  8718: u8 [a0 + 22] = 0\n  8721: u8 [a0 + 21] = 0\n  8724: u8 [a0 + 20] = 0\n  8727: u8 [a0 + 19] = 0\n  8730: u8 [a0 + 18] = 0\n  8733: u8 [a0 + 17] = 0\n  8736: u8 [a0 + 16] = 0\n  8739: u8 [a0 + 15] = 0\n  8742: u8 [a0 + 14] = 0\n  8745: u8 [a0 + 13] = 0\n  8748: u8 [a0 + 12] = 0\n  8751: u8 [a0 + 11] = 0\n  8754: u8 [a0 + 10] = 0\n  8757: u8 [a0 + 9] = 0\n  8760: u8 [a0 + 8] = 0\n  8763: u8 [a0 + 7] = 0\n  8766: u8 [a0 + 6] = 0\n  8769: u8 [a0 + 5] = 0\n  8772: u8 [a0 + 4] = 0\n  8775: u8 [a0 + 3] = 0x77\n  8779: u8 [a0 + 2] = 0x10\n  8783: u8 [a0 + 1] = 0x24\n  8787: a2 = u64 [sp + 0x60]\n  8790: a1 = a2 + 0x24\n  8793: a2 = a1 <u a2\n  8796: a4 = u64 [sp + 0x68]\n  8799: a3 = a4 + a2\n  8802: a4 = a3 <u a4\n  8805: a4 = a2 if a2 == 0\n  8808: a2 = u64 [sp + 0x70]\n  8811: a4 = a4 + a2\n  8814: a2 = a4 <u a2\n  8817: a5 = u64 [sp + 0x78]\n  8820: a2 = a2 + a5\n  8823: a2 = a2 | a3\n  8826: a3 = a1 | a4\n  8829: a3 = a3 | a2\n  8832: a2 = a2 | a4\n  8835: a4 = 0x55\n  8838: a3 = a3 >> 0x20\n  8841: a2 = a2 << 0x20\n  8844: a2 = a2 | a3\n  8847: u8 [a0] = a4\n  8849: jump @182 if a2 != 0\n      : @171 (gas: 4)\n  8853: u64 [sp + 0x18] = s1\n  8856: i32 a0 = a1 + 0\n  8858: a1 = 0x20\n  8861: ra = 144, jump @0\n      : @172 [@dyn 72] (gas: 80)\n  8867: a1 = u64 [sp + 0x40]\n  8870: a1 = reverse a1\n  8872: a2 = u64 [sp + 0x48]\n  8875: a2 = reverse a2\n  8877: a3 = u64 [sp + 0x50]\n  8880: a3 = reverse a3\n  8882: a4 = u64 [sp + 0x58]\n  8885: a4 = reverse a4\n  8887: a5 = a4 >> 0x38\n  8890: u8 [a0 + 0x1f] = a5\n  8893: a5 = a4 >> 0x30\n  8896: u8 [a0 + 0x1e] = a5\n  8899: a5 = a4 >> 0x28\n  8902: u8 [a0 + 0x1d] = a5\n  8905: a5 = a4 >> 0x20\n  8908: u8 [a0 + 0x1c] = a5\n  8911: a5 = a4 >> 0x18\n  8914: u8 [a0 + 0x1b] = a5\n  8917: a5 = a4 >> 0x10\n  8920: u8 [a0 + 0x1a] = a5\n  8923: a5 = a4 >> 0x8\n  8926: u8 [a0 + 0x19] = a5\n  8929: u8 [a0 + 0x18] = a4\n  8932: u8 [a0 + 0x10] = a3\n  8935: a4 = a3 >> 0x38\n  8938: u8 [a0 + 0x17] = a4\n  8941: a4 = a3 >> 0x30\n  8944: u8 [a0 + 0x16] = a4\n  8947: a4 = a3 >> 0x28\n  8950: u8 [a0 + 0x15] = a4\n  8953: a4 = a3 >> 0x20\n  8956: u8 [a0 + 0x14] = a4\n  8959: a4 = a3 >> 0x18\n  8962: u8 [a0 + 0x13] = a4\n  8965: a4 = a3 >> 0x10\n  8968: u8 [a0 + 0x12] = a4\n  8971: a3 = a3 >> 0x8\n  8974: u8 [a0 + 0x11] = a3\n  8977: u8 [a0 + 0x8] = a2\n  8980: a3 = a2 >> 0x38\n  8983: u8 [a0 + 0xf] = a3\n  8986: a3 = a2 >> 0x30\n  8989: u8 [a0 + 0xe] = a3\n  8992: a3 = a2 >> 0x28\n  8995: u8 [a0 + 0xd] = a3\n  8998: a3 = a2 >> 0x20\n  9001: u8 [a0 + 0xc] = a3\n  9004: a3 = a2 >> 0x18\n  9007: u8 [a0 + 0xb] = a3\n  9010: a3 = a2 >> 0x10\n  9013: u8 [a0 + 0xa] = a3\n  9016: a2 = a2 >> 0x8\n  9019: u8 [a0 + 0x9] = a2\n  9022: u8 [a0] = a1\n  9024: a2 = a1 >> 0x38\n  9027: u8 [a0 + 0x7] = a2\n  9030: a2 = a1 >> 0x30\n  9033: u8 [a0 + 0x6] = a2\n  9036: a2 = a1 >> 0x28\n  9039: u8 [a0 + 0x5] = a2\n  9042: a2 = a1 >> 0x20\n  9045: u8 [a0 + 0x4] = a2\n  9048: a2 = a1 >> 0x18\n  9051: u8 [a0 + 0x3] = a2\n  9054: a2 = a1 >> 0x10\n  9057: u8 [a0 + 0x2] = a2\n  9060: a1 = a1 >> 0x8\n  9063: a4 = u64 [sp + 0x70]\n  9066: a2 = u64 [sp + 0x60]\n  9069: a2 = a2 | a4\n  9072: a3 = u64 [sp + 0x78]\n  9075: a5 = u64 [sp + 0x68]\n  9078: a3 = a3 | a5\n  9081: a2 = a2 | a3\n  9084: a2 = a2 >> 0x20\n  9087: a3 = a3 | a4\n  9090: a3 = a3 << 0x20\n  9093: a2 = a2 | a3\n  9096: u8 [a0 + 0x1] = a1\n  9099: jump @182 if a2 != 0\n      : @173 (gas: 5)\n  9103: s1 = u64 [sp + 0x60]\n  9106: i32 a0 = s1 + 0\n  9108: u64 [sp + 0x58] = a0\n  9111: a1 = 0x20\n  9114: ra = 146, jump @0\n      : @174 [@dyn 73] (gas: 49)\n  9120: u8 [a0 + 31] = 0x24\n  9124: u8 [a0 + 30] = 0\n  9127: u8 [a0 + 29] = 0\n  9130: u8 [a0 + 28] = 0\n  9133: u8 [a0 + 27] = 0\n  9136: u8 [a0 + 26] = 0\n  9139: u8 [a0 + 25] = 0\n  9142: u8 [a0 + 24] = 0\n  9145: u8 [a0 + 23] = 0\n  9148: u8 [a0 + 22] = 0\n  9151: u8 [a0 + 21] = 0\n  9154: u8 [a0 + 20] = 0\n  9157: u8 [a0 + 19] = 0\n  9160: u8 [a0 + 18] = 0\n  9163: u8 [a0 + 17] = 0\n  9166: u8 [a0 + 16] = 0\n  9169: u8 [a0 + 15] = 0\n  9172: u8 [a0 + 14] = 0\n  9175: u8 [a0 + 13] = 0\n  9178: u8 [a0 + 12] = 0\n  9181: u8 [a0 + 11] = 0\n  9184: u8 [a0 + 10] = 0\n  9187: u8 [a0 + 9] = 0\n  9190: u8 [a0 + 8] = 0\n  9193: u8 [a0 + 7] = 0\n  9196: u8 [a0 + 6] = 0\n  9199: u8 [a0 + 5] = 0\n  9202: u8 [a0 + 4] = 0\n  9205: u8 [a0 + 3] = 0\n  9208: u8 [a0 + 2] = 0\n  9211: u8 [a0 + 1] = 0\n  9214: u8 [a0 + 0] = 0\n  9216: a0 = s1 + 0x60\n  9219: u64 [sp + 0x50] = a0\n  9222: a0 = a0 <u s1\n  9225: a1 = u64 [sp + 0x68]\n  9228: a2 = a1 + a0\n  9231: u64 [sp + 0x60] = a2\n  9234: a1 = a2 <u a1\n  9237: a1 = a0 if a0 == 0\n  9240: a0 = u64 [sp + 0x70]\n  9243: s1 = a0 + a1\n  9246: a0 = s1 <u a0\n  9249: a1 = u64 [sp + 0x78]\n  9252: a0 = a0 + a1\n  9255: u64 [sp + 0x78] = a0\n  9258: a0 = 0x40\n  9261: a1 = 0x20\n  9264: ra = 148, jump @0\n      : @175 [@dyn 74] (gas: 70)\n  9270: a1 = u64 [sp + 0x78]\n  9273: a1 = reverse a1\n  9275: a2 = reverse s1\n  9277: a3 = u64 [sp + 0x60]\n  9280: a3 = reverse a3\n  9282: a4 = u64 [sp + 0x50]\n  9285: a4 = reverse a4\n  9287: a5 = a4 >> 0x38\n  9290: u8 [a0 + 0x1f] = a5\n  9293: a5 = a4 >> 0x30\n  9296: u8 [a0 + 0x1e] = a5\n  9299: a5 = a4 >> 0x28\n  9302: u8 [a0 + 0x1d] = a5\n  9305: a5 = a4 >> 0x20\n  9308: u8 [a0 + 0x1c] = a5\n  9311: a5 = a4 >> 0x18\n  9314: u8 [a0 + 0x1b] = a5\n  9317: a5 = a4 >> 0x10\n  9320: u8 [a0 + 0x1a] = a5\n  9323: a5 = a4 >> 0x8\n  9326: u8 [a0 + 0x19] = a5\n  9329: u8 [a0 + 0x18] = a4\n  9332: a4 = a3 >> 0x38\n  9335: u8 [a0 + 0x17] = a4\n  9338: a4 = a3 >> 0x30\n  9341: u8 [a0 + 0x16] = a4\n  9344: a4 = a3 >> 0x28\n  9347: u8 [a0 + 0x15] = a4\n  9350: a4 = a3 >> 0x20\n  9353: u8 [a0 + 0x14] = a4\n  9356: a4 = a3 >> 0x18\n  9359: u8 [a0 + 0x13] = a4\n  9362: a4 = a3 >> 0x10\n  9365: u8 [a0 + 0x12] = a4\n  9368: a4 = a3 >> 0x8\n  9371: u8 [a0 + 0x11] = a4\n  9374: u8 [a0 + 0x10] = a3\n  9377: u8 [a0 + 0x8] = a2\n  9380: a3 = a2 >> 0x38\n  9383: u8 [a0 + 0xf] = a3\n  9386: a3 = a2 >> 0x30\n  9389: u8 [a0 + 0xe] = a3\n  9392: a3 = a2 >> 0x28\n  9395: u8 [a0 + 0xd] = a3\n  9398: a3 = a2 >> 0x20\n  9401: u8 [a0 + 0xc] = a3\n  9404: a3 = a2 >> 0x18\n  9407: u8 [a0 + 0xb] = a3\n  9410: a3 = a2 >> 0x10\n  9413: u8 [a0 + 0xa] = a3\n  9416: a2 = a2 >> 0x8\n  9419: u8 [a0 + 0x9] = a2\n  9422: u8 [a0] = a1\n  9424: a2 = a1 >> 0x38\n  9427: u8 [a0 + 0x7] = a2\n  9430: a2 = a1 >> 0x30\n  9433: u8 [a0 + 0x6] = a2\n  9436: a2 = a1 >> 0x28\n  9439: u8 [a0 + 0x5] = a2\n  9442: a2 = a1 >> 0x20\n  9445: u8 [a0 + 0x4] = a2\n  9448: a2 = a1 >> 0x18\n  9451: u8 [a0 + 0x3] = a2\n  9454: a2 = a1 >> 0x10\n  9457: u8 [a0 + 0x2] = a2\n  9460: a1 = a1 >> 0x8\n  9463: u8 [a0 + 0x1] = a1\n  9466: a1 = 0x20\n  9469: a0 = u64 [sp + 0x58]\n  9472: ra = 150, jump @0\n      : @176 [@dyn 75] (gas: 97)\n  9478: a1 = u8 [a0 + 0x11]\n  9481: a2 = u8 [a0 + 0x10]\n  9484: a3 = u8 [a0 + 0x12]\n  9487: a4 = u8 [a0 + 0x13]\n  9490: a1 = a1 << 0x8\n  9493: a1 = a1 | a2\n  9496: a3 = a3 << 0x10\n  9499: a4 = a4 << 0x18\n  9502: a3 = a3 | a4\n  9505: a1 = a1 | a3\n  9508: a2 = u8 [a0 + 0x15]\n  9511: a3 = u8 [a0 + 0x14]\n  9514: a4 = u8 [a0 + 0x16]\n  9517: a5 = u8 [a0 + 0x17]\n  9520: a2 = a2 << 0x8\n  9523: a2 = a2 | a3\n  9526: a4 = a4 << 0x10\n  9529: a5 = a5 << 0x18\n  9532: a4 = a4 | a5\n  9535: a2 = a2 | a4\n  9538: a2 = a2 << 0x20\n  9541: t0 = a2 | a1\n  9544: a2 = u8 [a0 + 0x1]\n  9547: a3 = u8 [a0]\n  9549: a4 = u8 [a0 + 0x2]\n  9552: a5 = u8 [a0 + 0x3]\n  9555: a2 = a2 << 0x8\n  9558: a2 = a2 | a3\n  9561: a4 = a4 << 0x10\n  9564: a5 = a5 << 0x18\n  9567: a4 = a4 | a5\n  9570: a2 = a2 | a4\n  9573: a3 = u8 [a0 + 0x5]\n  9576: a4 = u8 [a0 + 0x4]\n  9579: a5 = u8 [a0 + 0x6]\n  9582: s1 = u8 [a0 + 0x7]\n  9585: a3 = a3 << 0x8\n  9588: a3 = a3 | a4\n  9591: a5 = a5 << 0x10\n  9594: s1 = s1 << 0x18\n  9597: a5 = a5 | s1\n  9600: a3 = a3 | a5\n  9603: a3 = a3 << 0x20\n  9606: a2 = a2 | a3\n  9609: a3 = u8 [a0 + 0x19]\n  9612: a4 = u8 [a0 + 0x18]\n  9615: a5 = u8 [a0 + 0x1a]\n  9618: s1 = u8 [a0 + 0x1b]\n  9621: a3 = a3 << 0x8\n  9624: a3 = a3 | a4\n  9627: a5 = a5 << 0x10\n  9630: s1 = s1 << 0x18\n  9633: a5 = a5 | s1\n  9636: a3 = a3 | a5\n  9639: a4 = u8 [a0 + 0x1d]\n  9642: a5 = u8 [a0 + 0x1c]\n  9645: s1 = u8 [a0 + 0x1e]\n  9648: a1 = u8 [a0 + 0x1f]\n  9651: a4 = a4 << 0x8\n  9654: a4 = a4 | a5\n  9657: s1 = s1 << 0x10\n  9660: a1 = a1 << 0x18\n  9663: a1 = a1 | s1\n  9666: a1 = a1 | a4\n  9669: a1 = a1 << 0x20\n  9672: a3 = a3 | a1\n  9675: a1 = u8 [a0 + 0x9]\n  9678: a4 = u8 [a0 + 0x8]\n  9681: a5 = u8 [a0 + 0xa]\n  9684: s1 = u8 [a0 + 0xb]\n  9687: a1 = a1 << 0x8\n  9690: a1 = a1 | a4\n  9693: a5 = a5 << 0x10\n  9696: s1 = s1 << 0x18\n  9699: a5 = a5 | s1\n  9702: a1 = a1 | a5\n  9705: a4 = u8 [a0 + 0xd]\n  9708: a5 = u8 [a0 + 0xc]\n  9711: s1 = u8 [a0 + 0xe]\n  9714: a0 = u8 [a0 + 0xf]\n  9717: a4 = a4 << 0x8\n  9720: a4 = a4 | a5\n  9723: s1 = s1 << 0x10\n  9726: a0 = a0 << 0x18\n  9729: a0 = a0 | s1\n  9732: a0 = a0 | a4\n  9735: a0 = a0 << 0x20\n  9738: a0 = a0 | a1\n  9741: a0 = reverse a0\n  9743: u64 [sp + 0x78] = a0\n  9746: s1 = reverse a3\n  9748: a0 = reverse a2\n  9750: u64 [sp + 0x70] = a0\n  9753: a0 = reverse t0\n  9755: u64 [sp + 0x68] = a0\n  9758: ecalli 5 // 'ref_time_left'\n  9760: fallthrough\n      : @177 (gas: 27)\n  9761: a0 = u64 [sp + 0x28]\n  9764: a0 = reverse a0\n  9766: a1 = a0 << 0x20\n  9769: a2 = u64 [sp + 0x30]\n  9772: a2 = reverse a2\n  9774: a2 = a2 >> 0x20\n  9777: a1 = a1 | a2\n  9780: a2 = u64 [sp + 0x38]\n  9783: a2 = reverse a2\n  9785: a3 = a2 << 0x20\n  9788: a0 = a0 >> 0x20\n  9791: a0 = a0 | a3\n  9794: a2 = a2 >> 0x20\n  9797: u64 [sp + 0xa8] = a0\n  9801: u64 [sp + 0xa0] = a1\n  9805: a0 = u64 [sp + 0x70]\n  9808: a1 = u64 [sp + 0x68]\n  9811: a0 = a0 | a1\n  9814: a4 = u64 [sp + 0x78]\n  9817: a1 = s1 | a4\n  9820: a1 = a1 | a0\n  9823: a1 = a1 >> 0x20\n  9826: a0 = a0 | a4\n  9829: a0 = a0 << 0x20\n  9832: a0 = a0 | a1\n  9835: u32 [sp + 0xb0] = a2\n  9839: jump @182 if a0 != 0\n      : @178 (gas: 4)\n  9843: a3 = s1\n  9845: i32 a1 = a3 + 0\n  9847: a0 = u64 [sp + 0x18]\n  9850: ra = 152, jump @0\n      : @179 [@dyn 76] (gas: 4)\n  9856: u64 [sp + 0x78] = a0\n  9859: a0 = 0\n  9861: a1 = 0\n  9863: ra = 154, jump @0\n      : @180 [@dyn 77] (gas: 26)\n  9869: u32 [sp + 192] = 0\n  9873: u64 [sp + 248] = 0xffffffffffffffff\n  9878: u64 [sp + 240] = 0xffffffffffffffff\n  9883: u64 [sp + 232] = 0xffffffffffffffff\n  9888: u64 [sp + 224] = 0xffffffffffffffff\n  9893: a1 = sp + 0xa0\n  9897: a1 = a1 << 0x20\n  9900: t0 = a1 >> 0x20\n  9903: a1 = u64 [sp + 0x78]\n  9906: a1 = a1 << 0x20\n  9909: a1 = a1 >> 0x20\n  9912: a4 = s1 << 0x20\n  9915: a4 = a4 | a1\n  9918: a0 = a0 << 0x20\n  9921: a0 = a0 >> 0x20\n  9924: a1 = sp + 0xc0\n  9928: a1 = a1 << 0x20\n  9931: a5 = a1 | a0\n  9934: i32 a3 = sp + 0xe0\n  9938: a1 = 0xffffffffffffffff\n  9941: a2 = 0xffffffffffffffff\n  9944: a0 = t0\n  9946: ecalli 3 // 'delegate_call'\n  9948: s1 = a0 <u 0x1\n  9951: a0 = sp + 0x80\n  9955: ra = 156, jump @156\n      : @181 [@dyn 78] (gas: 11)\n  9961: a0 = u64 [sp + 0x20]\n  9964: u64 [a0 + 24] = 0\n  9967: u64 [a0 + 16] = 0\n  9970: u64 [a0 + 8] = 0\n  9973: u64 [a0] = s1\n  9975: sp = s0 + 0xfffffffffffffea0\n  9979: ra = u64 [sp + 0x158]\n  9983: s0 = u64 [sp + 0x150]\n  9987: s1 = u64 [sp + 0x148]\n  9991: sp = sp + 0x160\n  9995: ret\n      : @182 (gas: 1)\n  9997: trap\n      : @183 [@dyn 79] (gas: 111)\n  9998: a1 = u8 [a0 + 0x19]\n 10001: a2 = u8 [a0 + 0x18]\n 10004: a3 = u8 [a0 + 0x1a]\n 10007: a4 = u8 [a0 + 0x1b]\n 10010: a1 = a1 << 0x8\n 10013: a1 = a1 | a2\n 10016: a3 = a3 << 0x10\n 10019: a4 = a4 << 0x18\n 10022: a3 = a3 | a4\n 10025: a1 = a1 | a3\n 10028: a2 = u8 [a0 + 0x1d]\n 10031: a3 = u8 [a0 + 0x1c]\n 10034: a4 = u8 [a0 + 0x1e]\n 10037: a5 = u8 [a0 + 0x1f]\n 10040: a2 = a2 << 0x8\n 10043: a2 = a2 | a3\n 10046: a4 = a4 << 0x10\n 10049: a5 = a5 << 0x18\n 10052: a4 = a4 | a5\n 10055: a2 = a2 | a4\n 10058: a2 = a2 << 0x20\n 10061: t0 = a2 | a1\n 10064: a2 = u8 [a0 + 0x11]\n 10067: a3 = u8 [a0 + 0x10]\n 10070: a4 = u8 [a0 + 0x12]\n 10073: a5 = u8 [a0 + 0x13]\n 10076: a2 = a2 << 0x8\n 10079: a2 = a2 | a3\n 10082: a4 = a4 << 0x10\n 10085: a5 = a5 << 0x18\n 10088: a4 = a4 | a5\n 10091: a2 = a2 | a4\n 10094: a3 = u8 [a0 + 0x15]\n 10097: a4 = u8 [a0 + 0x14]\n 10100: a5 = u8 [a0 + 0x16]\n 10103: s1 = u8 [a0 + 0x17]\n 10106: a3 = a3 << 0x8\n 10109: a3 = a3 | a4\n 10112: a5 = a5 << 0x10\n 10115: s1 = s1 << 0x18\n 10118: a5 = a5 | s1\n 10121: a3 = a3 | a5\n 10124: a3 = a3 << 0x20\n 10127: a2 = a2 | a3\n 10130: a3 = u8 [a0 + 0x9]\n 10133: a4 = u8 [a0 + 0x8]\n 10136: a5 = u8 [a0 + 0xa]\n 10139: s1 = u8 [a0 + 0xb]\n 10142: a3 = a3 << 0x8\n 10145: a3 = a3 | a4\n 10148: a5 = a5 << 0x10\n 10151: s1 = s1 << 0x18\n 10154: a5 = a5 | s1\n 10157: a3 = a3 | a5\n 10160: a4 = u8 [a0 + 0xd]\n 10163: a5 = u8 [a0 + 0xc]\n 10166: s1 = u8 [a0 + 0xe]\n 10169: a1 = u8 [a0 + 0xf]\n 10172: a4 = a4 << 0x8\n 10175: a4 = a4 | a5\n 10178: s1 = s1 << 0x10\n 10181: a1 = a1 << 0x18\n 10184: a1 = a1 | s1\n 10187: a1 = a1 | a4\n 10190: a1 = a1 << 0x20\n 10193: a3 = a3 | a1\n 10196: a1 = u8 [a0 + 0x1]\n 10199: a4 = u8 [a0]\n 10201: a5 = u8 [a0 + 0x2]\n 10204: s1 = u8 [a0 + 0x3]\n 10207: a1 = a1 << 0x8\n 10210: a1 = a1 | a4\n 10213: a5 = a5 << 0x10\n 10216: s1 = s1 << 0x18\n 10219: a5 = a5 | s1\n 10222: a1 = a1 | a5\n 10225: a4 = u8 [a0 + 0x5]\n 10228: a5 = u8 [a0 + 0x4]\n 10231: s1 = u8 [a0 + 0x6]\n 10234: a0 = u8 [a0 + 0x7]\n 10237: a4 = a4 << 0x8\n 10240: a4 = a4 | a5\n 10243: s1 = s1 << 0x10\n 10246: a0 = a0 << 0x18\n 10249: a0 = a0 | s1\n 10252: a0 = a0 | a4\n 10255: a0 = a0 << 0x20\n 10258: a0 = a0 | a1\n 10261: s1 = reverse a0\n 10263: a4 = reverse a3\n 10265: a3 = reverse a2\n 10267: a1 = reverse t0\n 10269: a0 = a1 + 0x20\n 10272: u64 [sp + 0x48] = a1\n 10275: a1 = a0 <u a1\n 10278: a2 = a3 + a1\n 10281: u64 [sp + 0x50] = a3\n 10284: a3 = a2 <u a3\n 10287: a3 = a1 if a1 == 0\n 10290: a3 = a3 + a4\n 10293: u64 [sp + 0x58] = a4\n 10296: a1 = a3 <u a4\n 10299: a1 = a1 + s1\n 10302: a4 = a0 | a3\n 10305: a1 = a1 | a2\n 10308: a4 = a4 | a1\n 10311: a4 = a4 >> 0x20\n 10314: a1 = a1 | a3\n 10317: a1 = a1 << 0x20\n 10320: a1 = a1 | a4\n 10323: jump @195 if a1 != 0\n      : @184 (gas: 4)\n 10327: i32 a0 = a0 + 0\n 10329: a1 = 0x20\n 10332: u64 [sp + 0x18] = a0\n 10335: ra = 160, jump @0\n      : @185 [@dyn 80] (gas: 44)\n 10341: u8 [a0 + 3] = 0x8a\n 10346: u8 [a0 + 2] = 0xe0\n 10351: u8 [a0 + 1] = 0x9d\n 10356: u8 [a0 + 0] = 0xd0\n 10360: a3 = u64 [sp + 0x58]\n 10363: a1 = u64 [sp + 0x48]\n 10366: a1 = a1 | a3\n 10369: u64 [sp + 0x20] = s1\n 10372: a2 = u64 [sp + 0x50]\n 10375: a2 = a2 | s1\n 10378: a1 = a1 | a2\n 10381: a1 = a1 >> 0x20\n 10384: a2 = a2 | a3\n 10387: a2 = a2 << 0x20\n 10390: a1 = a1 | a2\n 10393: u8 [a0 + 31] = 0\n 10396: u8 [a0 + 30] = 0\n 10399: u8 [a0 + 29] = 0\n 10402: u8 [a0 + 28] = 0\n 10405: u8 [a0 + 27] = 0\n 10408: u8 [a0 + 26] = 0\n 10411: u8 [a0 + 25] = 0\n 10414: u8 [a0 + 24] = 0\n 10417: u8 [a0 + 23] = 0\n 10420: u8 [a0 + 22] = 0\n 10423: u8 [a0 + 21] = 0\n 10426: u8 [a0 + 20] = 0\n 10429: u8 [a0 + 19] = 0\n 10432: u8 [a0 + 18] = 0\n 10435: u8 [a0 + 17] = 0\n 10438: u8 [a0 + 16] = 0\n 10441: u8 [a0 + 15] = 0\n 10444: u8 [a0 + 14] = 0\n 10447: u8 [a0 + 13] = 0\n 10450: u8 [a0 + 12] = 0\n 10453: u8 [a0 + 11] = 0\n 10456: u8 [a0 + 10] = 0\n 10459: u8 [a0 + 9] = 0\n 10462: u8 [a0 + 8] = 0\n 10465: u8 [a0 + 7] = 0\n 10468: u8 [a0 + 6] = 0\n 10471: u8 [a0 + 5] = 0\n 10474: u8 [a0 + 4] = 0\n 10477: jump @195 if a1 != 0\n      : @186 (gas: 5)\n 10481: s1 = u64 [sp + 0x48]\n 10484: i32 a0 = s1 + 0\n 10486: u64 [sp + 0x10] = a0\n 10489: a1 = 0x20\n 10492: ra = 162, jump @0\n      : @187 [@dyn 81] (gas: 49)\n 10498: u8 [a0 + 31] = 0x4\n 10502: u8 [a0 + 30] = 0\n 10505: u8 [a0 + 29] = 0\n 10508: u8 [a0 + 28] = 0\n 10511: u8 [a0 + 27] = 0\n 10514: u8 [a0 + 26] = 0\n 10517: u8 [a0 + 25] = 0\n 10520: u8 [a0 + 24] = 0\n 10523: u8 [a0 + 23] = 0\n 10526: u8 [a0 + 22] = 0\n 10529: u8 [a0 + 21] = 0\n 10532: u8 [a0 + 20] = 0\n 10535: u8 [a0 + 19] = 0\n 10538: u8 [a0 + 18] = 0\n 10541: u8 [a0 + 17] = 0\n 10544: u8 [a0 + 16] = 0\n 10547: u8 [a0 + 15] = 0\n 10550: u8 [a0 + 14] = 0\n 10553: u8 [a0 + 13] = 0\n 10556: u8 [a0 + 12] = 0\n 10559: u8 [a0 + 11] = 0\n 10562: u8 [a0 + 10] = 0\n 10565: u8 [a0 + 9] = 0\n 10568: u8 [a0 + 8] = 0\n 10571: u8 [a0 + 7] = 0\n 10574: u8 [a0 + 6] = 0\n 10577: u8 [a0 + 5] = 0\n 10580: u8 [a0 + 4] = 0\n 10583: u8 [a0 + 3] = 0\n 10586: u8 [a0 + 2] = 0\n 10589: u8 [a0 + 1] = 0\n 10592: u8 [a0 + 0] = 0\n 10594: a0 = s1 + 0x40\n 10597: u64 [sp + 0x8] = a0\n 10600: a0 = a0 <u s1\n 10603: a1 = u64 [sp + 0x50]\n 10606: a2 = a1 + a0\n 10609: u64 [sp + 0x48] = a2\n 10612: a1 = a2 <u a1\n 10615: a1 = a0 if a0 == 0\n 10618: a0 = u64 [sp + 0x58]\n 10621: s1 = a0 + a1\n 10624: a0 = s1 <u a0\n 10627: a1 = u64 [sp + 0x20]\n 10630: a0 = a0 + a1\n 10633: u64 [sp + 0x58] = a0\n 10636: a0 = 0x40\n 10639: a1 = 0x20\n 10642: ra = 164, jump @0\n      : @188 [@dyn 82] (gas: 70)\n 10648: a1 = u64 [sp + 0x58]\n 10651: a1 = reverse a1\n 10653: a2 = reverse s1\n 10655: a3 = u64 [sp + 0x48]\n 10658: a3 = reverse a3\n 10660: a4 = u64 [sp + 0x8]\n 10663: a4 = reverse a4\n 10665: a5 = a4 >> 0x38\n 10668: u8 [a0 + 0x1f] = a5\n 10671: a5 = a4 >> 0x30\n 10674: u8 [a0 + 0x1e] = a5\n 10677: a5 = a4 >> 0x28\n 10680: u8 [a0 + 0x1d] = a5\n 10683: a5 = a4 >> 0x20\n 10686: u8 [a0 + 0x1c] = a5\n 10689: a5 = a4 >> 0x18\n 10692: u8 [a0 + 0x1b] = a5\n 10695: a5 = a4 >> 0x10\n 10698: u8 [a0 + 0x1a] = a5\n 10701: a5 = a4 >> 0x8\n 10704: u8 [a0 + 0x19] = a5\n 10707: u8 [a0 + 0x18] = a4\n 10710: a4 = a3 >> 0x38\n 10713: u8 [a0 + 0x17] = a4\n 10716: a4 = a3 >> 0x30\n 10719: u8 [a0 + 0x16] = a4\n 10722: a4 = a3 >> 0x28\n 10725: u8 [a0 + 0x15] = a4\n 10728: a4 = a3 >> 0x20\n 10731: u8 [a0 + 0x14] = a4\n 10734: a4 = a3 >> 0x18\n 10737: u8 [a0 + 0x13] = a4\n 10740: a4 = a3 >> 0x10\n 10743: u8 [a0 + 0x12] = a4\n 10746: a4 = a3 >> 0x8\n 10749: u8 [a0 + 0x11] = a4\n 10752: u8 [a0 + 0x10] = a3\n 10755: u8 [a0 + 0x8] = a2\n 10758: a3 = a2 >> 0x38\n 10761: u8 [a0 + 0xf] = a3\n 10764: a3 = a2 >> 0x30\n 10767: u8 [a0 + 0xe] = a3\n 10770: a3 = a2 >> 0x28\n 10773: u8 [a0 + 0xd] = a3\n 10776: a3 = a2 >> 0x20\n 10779: u8 [a0 + 0xc] = a3\n 10782: a3 = a2 >> 0x18\n 10785: u8 [a0 + 0xb] = a3\n 10788: a3 = a2 >> 0x10\n 10791: u8 [a0 + 0xa] = a3\n 10794: a2 = a2 >> 0x8\n 10797: u8 [a0 + 0x9] = a2\n 10800: u8 [a0] = a1\n 10802: a2 = a1 >> 0x38\n 10805: u8 [a0 + 0x7] = a2\n 10808: a2 = a1 >> 0x30\n 10811: u8 [a0 + 0x6] = a2\n 10814: a2 = a1 >> 0x28\n 10817: u8 [a0 + 0x5] = a2\n 10820: a2 = a1 >> 0x20\n 10823: u8 [a0 + 0x4] = a2\n 10826: a2 = a1 >> 0x18\n 10829: u8 [a0 + 0x3] = a2\n 10832: a2 = a1 >> 0x10\n 10835: u8 [a0 + 0x2] = a2\n 10838: a1 = a1 >> 0x8\n 10841: u8 [a0 + 0x1] = a1\n 10844: a1 = 0x20\n 10847: a0 = u64 [sp + 0x10]\n 10850: ra = 166, jump @0\n      : @189 [@dyn 83] (gas: 97)\n 10856: a1 = u8 [a0 + 0x11]\n 10859: a2 = u8 [a0 + 0x10]\n 10862: a3 = u8 [a0 + 0x12]\n 10865: a4 = u8 [a0 + 0x13]\n 10868: a1 = a1 << 0x8\n 10871: a1 = a1 | a2\n 10874: a3 = a3 << 0x10\n 10877: a4 = a4 << 0x18\n 10880: a3 = a3 | a4\n 10883: a1 = a1 | a3\n 10886: a2 = u8 [a0 + 0x15]\n 10889: a3 = u8 [a0 + 0x14]\n 10892: a4 = u8 [a0 + 0x16]\n 10895: a5 = u8 [a0 + 0x17]\n 10898: a2 = a2 << 0x8\n 10901: a2 = a2 | a3\n 10904: a4 = a4 << 0x10\n 10907: a5 = a5 << 0x18\n 10910: a4 = a4 | a5\n 10913: a2 = a2 | a4\n 10916: a2 = a2 << 0x20\n 10919: t0 = a2 | a1\n 10922: a2 = u8 [a0 + 0x1]\n 10925: a3 = u8 [a0]\n 10927: a4 = u8 [a0 + 0x2]\n 10930: a5 = u8 [a0 + 0x3]\n 10933: a2 = a2 << 0x8\n 10936: a2 = a2 | a3\n 10939: a4 = a4 << 0x10\n 10942: a5 = a5 << 0x18\n 10945: a4 = a4 | a5\n 10948: a2 = a2 | a4\n 10951: a3 = u8 [a0 + 0x5]\n 10954: a4 = u8 [a0 + 0x4]\n 10957: a5 = u8 [a0 + 0x6]\n 10960: s1 = u8 [a0 + 0x7]\n 10963: a3 = a3 << 0x8\n 10966: a3 = a3 | a4\n 10969: a5 = a5 << 0x10\n 10972: s1 = s1 << 0x18\n 10975: a5 = a5 | s1\n 10978: a3 = a3 | a5\n 10981: a3 = a3 << 0x20\n 10984: a2 = a2 | a3\n 10987: a3 = u8 [a0 + 0x19]\n 10990: a4 = u8 [a0 + 0x18]\n 10993: a5 = u8 [a0 + 0x1a]\n 10996: s1 = u8 [a0 + 0x1b]\n 10999: a3 = a3 << 0x8\n 11002: a3 = a3 | a4\n 11005: a5 = a5 << 0x10\n 11008: s1 = s1 << 0x18\n 11011: a5 = a5 | s1\n 11014: a3 = a3 | a5\n 11017: a4 = u8 [a0 + 0x1d]\n 11020: a5 = u8 [a0 + 0x1c]\n 11023: s1 = u8 [a0 + 0x1e]\n 11026: a1 = u8 [a0 + 0x1f]\n 11029: a4 = a4 << 0x8\n 11032: a4 = a4 | a5\n 11035: s1 = s1 << 0x10\n 11038: a1 = a1 << 0x18\n 11041: a1 = a1 | s1\n 11044: a1 = a1 | a4\n 11047: a1 = a1 << 0x20\n 11050: a3 = a3 | a1\n 11053: a1 = u8 [a0 + 0x9]\n 11056: a4 = u8 [a0 + 0x8]\n 11059: a5 = u8 [a0 + 0xa]\n 11062: s1 = u8 [a0 + 0xb]\n 11065: a1 = a1 << 0x8\n 11068: a1 = a1 | a4\n 11071: a5 = a5 << 0x10\n 11074: s1 = s1 << 0x18\n 11077: a5 = a5 | s1\n 11080: a1 = a1 | a5\n 11083: a4 = u8 [a0 + 0xd]\n 11086: a5 = u8 [a0 + 0xc]\n 11089: s1 = u8 [a0 + 0xe]\n 11092: a0 = u8 [a0 + 0xf]\n 11095: a4 = a4 << 0x8\n 11098: a4 = a4 | a5\n 11101: s1 = s1 << 0x10\n 11104: a0 = a0 << 0x18\n 11107: a0 = a0 | s1\n 11110: a0 = a0 | a4\n 11113: a0 = a0 << 0x20\n 11116: a0 = a0 | a1\n 11119: a0 = reverse a0\n 11121: u64 [sp + 0x58] = a0\n 11124: s1 = reverse a3\n 11126: a0 = reverse a2\n 11128: u64 [sp + 0x50] = a0\n 11131: a0 = reverse t0\n 11133: u64 [sp + 0x48] = a0\n 11136: ecalli 5 // 'ref_time_left'\n 11138: fallthrough\n      : @190 (gas: 27)\n 11139: a0 = u64 [sp + 0x30]\n 11142: a0 = reverse a0\n 11144: a1 = a0 << 0x20\n 11147: a2 = u64 [sp + 0x38]\n 11150: a2 = reverse a2\n 11152: a2 = a2 >> 0x20\n 11155: a1 = a1 | a2\n 11158: a2 = u64 [sp + 0x40]\n 11161: a2 = reverse a2\n 11163: a3 = a2 << 0x20\n 11166: a0 = a0 >> 0x20\n 11169: a0 = a0 | a3\n 11172: a2 = a2 >> 0x20\n 11175: u64 [sp + 0x88] = a0\n 11179: u64 [sp + 0x80] = a1\n 11183: a0 = u64 [sp + 0x50]\n 11186: a1 = u64 [sp + 0x48]\n 11189: a0 = a0 | a1\n 11192: a4 = u64 [sp + 0x58]\n 11195: a1 = s1 | a4\n 11198: a1 = a1 | a0\n 11201: a1 = a1 >> 0x20\n 11204: a0 = a0 | a4\n 11207: a0 = a0 << 0x20\n 11210: a0 = a0 | a1\n 11213: u32 [sp + 0x90] = a2\n 11217: jump @195 if a0 != 0\n      : @191 (gas: 4)\n 11221: a3 = s1\n 11223: i32 a1 = a3 + 0\n 11225: a0 = u64 [sp + 0x18]\n 11228: ra = 168, jump @0\n      : @192 [@dyn 84] (gas: 4)\n 11234: u64 [sp + 0x58] = a0\n 11237: a0 = 0\n 11239: a1 = 0\n 11241: ra = 170, jump @0\n      : @193 [@dyn 85] (gas: 26)\n 11247: u32 [sp + 160] = 0\n 11251: u64 [sp + 216] = 0xffffffffffffffff\n 11256: u64 [sp + 208] = 0xffffffffffffffff\n 11261: u64 [sp + 200] = 0xffffffffffffffff\n 11266: u64 [sp + 192] = 0xffffffffffffffff\n 11271: a1 = sp + 0x80\n 11275: a1 = a1 << 0x20\n 11278: t0 = a1 >> 0x20\n 11281: a1 = u64 [sp + 0x58]\n 11284: a1 = a1 << 0x20\n 11287: a1 = a1 >> 0x20\n 11290: a4 = s1 << 0x20\n 11293: a4 = a4 | a1\n 11296: a0 = a0 << 0x20\n 11299: a0 = a0 >> 0x20\n 11302: a1 = sp + 0xa0\n 11306: a1 = a1 << 0x20\n 11309: a5 = a1 | a0\n 11312: i32 a3 = sp + 0xc0\n 11316: a1 = 0xffffffffffffffff\n 11319: a2 = 0xffffffffffffffff\n 11322: a0 = t0\n 11324: ecalli 3 // 'delegate_call'\n 11326: s1 = a0 <u 0x1\n 11329: a0 = sp + 0x60\n 11332: ra = 172, jump @156\n      : @194 [@dyn 86] (gas: 11)\n 11338: a0 = u64 [sp + 0x28]\n 11341: u64 [a0 + 24] = 0\n 11344: u64 [a0 + 16] = 0\n 11347: u64 [a0 + 8] = 0\n 11350: u64 [a0] = s1\n 11352: sp = s0 + 0xfffffffffffffec0\n 11356: ra = u64 [sp + 0x138]\n 11360: s0 = u64 [sp + 0x130]\n 11364: s1 = u64 [sp + 0x128]\n 11368: sp = sp + 0x140\n 11372: ret\n      : @195 (gas: 1)\n 11374: trap\n      : @196 [@dyn 87] (gas: 100)\n 11375: a1 = u8 [a0 + 0x11]\n 11378: a2 = u8 [a0 + 0x10]\n 11381: a3 = u8 [a0 + 0x12]\n 11384: a4 = u8 [a0 + 0x13]\n 11387: a1 = a1 << 0x8\n 11390: a1 = a1 | a2\n 11393: a3 = a3 << 0x10\n 11396: a4 = a4 << 0x18\n 11399: a3 = a3 | a4\n 11402: a1 = a1 | a3\n 11405: a2 = u8 [a0 + 0x15]\n 11408: a3 = u8 [a0 + 0x14]\n 11411: a4 = u8 [a0 + 0x16]\n 11414: a5 = u8 [a0 + 0x17]\n 11417: a2 = a2 << 0x8\n 11420: a2 = a2 | a3\n 11423: a4 = a4 << 0x10\n 11426: a5 = a5 << 0x18\n 11429: a4 = a4 | a5\n 11432: a2 = a2 | a4\n 11435: a2 = a2 << 0x20\n 11438: t0 = a2 | a1\n 11441: a2 = u8 [a0 + 0x1]\n 11444: a3 = u8 [a0]\n 11446: a4 = u8 [a0 + 0x2]\n 11449: a5 = u8 [a0 + 0x3]\n 11452: a2 = a2 << 0x8\n 11455: a2 = a2 | a3\n 11458: a4 = a4 << 0x10\n 11461: a5 = a5 << 0x18\n 11464: a4 = a4 | a5\n 11467: a2 = a2 | a4\n 11470: a3 = u8 [a0 + 0x5]\n 11473: a4 = u8 [a0 + 0x4]\n 11476: a5 = u8 [a0 + 0x6]\n 11479: s1 = u8 [a0 + 0x7]\n 11482: a3 = a3 << 0x8\n 11485: a3 = a3 | a4\n 11488: a5 = a5 << 0x10\n 11491: s1 = s1 << 0x18\n 11494: a5 = a5 | s1\n 11497: a3 = a3 | a5\n 11500: a3 = a3 << 0x20\n 11503: a2 = a2 | a3\n 11506: a3 = u8 [a0 + 0x19]\n 11509: a4 = u8 [a0 + 0x18]\n 11512: a5 = u8 [a0 + 0x1a]\n 11515: s1 = u8 [a0 + 0x1b]\n 11518: a3 = a3 << 0x8\n 11521: a3 = a3 | a4\n 11524: a5 = a5 << 0x10\n 11527: s1 = s1 << 0x18\n 11530: a5 = a5 | s1\n 11533: a3 = a3 | a5\n 11536: a4 = u8 [a0 + 0x1d]\n 11539: a5 = u8 [a0 + 0x1c]\n 11542: s1 = u8 [a0 + 0x1e]\n 11545: a1 = u8 [a0 + 0x1f]\n 11548: a4 = a4 << 0x8\n 11551: a4 = a4 | a5\n 11554: s1 = s1 << 0x10\n 11557: a1 = a1 << 0x18\n 11560: a1 = a1 | s1\n 11563: a1 = a1 | a4\n 11566: a1 = a1 << 0x20\n 11569: a3 = a3 | a1\n 11572: a1 = u8 [a0 + 0x9]\n 11575: a4 = u8 [a0 + 0x8]\n 11578: a5 = u8 [a0 + 0xa]\n 11581: s1 = u8 [a0 + 0xb]\n 11584: a1 = a1 << 0x8\n 11587: a1 = a1 | a4\n 11590: a5 = a5 << 0x10\n 11593: s1 = s1 << 0x18\n 11596: a5 = a5 | s1\n 11599: a1 = a1 | a5\n 11602: a4 = u8 [a0 + 0xd]\n 11605: a5 = u8 [a0 + 0xc]\n 11608: s1 = u8 [a0 + 0xe]\n 11611: a0 = u8 [a0 + 0xf]\n 11614: a4 = a4 << 0x8\n 11617: a4 = a4 | a5\n 11620: s1 = s1 << 0x10\n 11623: a0 = a0 << 0x18\n 11626: a0 = a0 | s1\n 11629: a0 = a0 | a4\n 11632: a0 = a0 << 0x20\n 11635: a0 = a0 | a1\n 11638: a1 = reverse a0\n 11640: a0 = reverse a3\n 11642: a2 = reverse a2\n 11644: a3 = reverse t0\n 11646: a2 = a2 | a3\n 11649: a3 = a0 | a1\n 11652: a3 = a3 | a2\n 11655: a3 = a3 >> 0x20\n 11658: a1 = a1 | a2\n 11661: a1 = a1 << 0x20\n 11664: a1 = a1 | a3\n 11667: jump @205 if a1 != 0\n      : @197 (gas: 7)\n 11671: a1 = 0x20004\n 11676: u64 [sp + 0x18] = a1\n 11679: s1 = i32 [0x20004]\n 11684: i32 a0 = a0 + 0\n 11686: u64 [sp + 0x20] = a0\n 11689: a1 = s1\n 11691: ra = 176, jump @0\n      : @198 [@dyn 88] (gas: 27)\n 11697: i32 a0 = a0 + 0\n 11699: a1 = s1\n 11701: a2 = 0\n 11703: ecalli 0 // 'call_data_copy'\n 11704: a0 = u64 [sp + 0x18]\n 11707: s1 = i32 [a0]\n 11709: u64 [sp + 0x18] = s1\n 11712: ecalli 5 // 'ref_time_left'\n 11714: a0 = u64 [sp + 0x28]\n 11717: a0 = reverse a0\n 11719: a1 = a0 << 0x20\n 11722: a2 = u64 [sp + 0x30]\n 11725: a2 = reverse a2\n 11727: a2 = a2 >> 0x20\n 11730: a1 = a1 | a2\n 11733: a2 = u64 [sp + 0x38]\n 11736: a2 = reverse a2\n 11738: a3 = a2 << 0x20\n 11741: a0 = a0 >> 0x20\n 11744: a0 = a0 | a3\n 11747: a2 = a2 >> 0x20\n 11750: u64 [sp + 0x48] = a0\n 11753: u64 [sp + 0x40] = a1\n 11756: u32 [sp + 0x50] = a2\n 11759: a0 = u64 [sp + 0x20]\n 11762: a1 = s1\n 11764: ra = 178, jump @0\n      : @199 [@dyn 89] (gas: 4)\n 11770: s1 = a0\n 11772: a0 = 0\n 11774: a1 = 0\n 11776: ra = 180, jump @0\n      : @200 [@dyn 90] (gas: 26)\n 11782: u32 [sp + 96] = 0\n 11785: u64 [sp + 152] = 0xffffffffffffffff\n 11790: u64 [sp + 144] = 0xffffffffffffffff\n 11795: u64 [sp + 136] = 0xffffffffffffffff\n 11800: u64 [sp + 128] = 0xffffffffffffffff\n 11805: a1 = sp + 0x40\n 11808: a1 = a1 << 0x20\n 11811: t0 = a1 >> 0x20\n 11814: s1 = s1 << 0x20\n 11817: s1 = s1 >> 0x20\n 11820: a4 = u64 [sp + 0x18]\n 11823: a4 = a4 << 0x20\n 11826: a4 = a4 | s1\n 11829: a0 = a0 << 0x20\n 11832: a0 = a0 >> 0x20\n 11835: a1 = sp + 0x60\n 11838: a1 = a1 << 0x20\n 11841: a5 = a1 | a0\n 11844: i32 a3 = sp + 0x80\n 11848: a1 = 0xffffffffffffffff\n 11851: a2 = 0xffffffffffffffff\n 11854: a0 = t0\n 11856: ecalli 3 // 'delegate_call'\n 11858: u64 [sp + 0x38] = a0\n 11861: ecalli 7 // 'return_data_size'\n 11863: fallthrough\n      : @201 (gas: 3)\n 11864: s1 = a0\n 11866: a0 = a0 >> 0x20\n 11869: jump @205 if a0 != 0\n      : @202 (gas: 4)\n 11872: i32 a1 = s1 + 0\n 11874: u64 [sp + 0x30] = a1\n 11877: a0 = u64 [sp + 0x20]\n 11880: ra = 182, jump @0\n      : @203 [@dyn 91] (gas: 6)\n 11886: u32 [sp + 0xa0] = s1\n 11890: i32 a0 = a0 + 0\n 11892: i32 a1 = sp + 0xa0\n 11896: a2 = 0\n 11898: ecalli 6 // 'return_data_copy'\n 11900: fallthrough\n      : @204 (gas: 3)\n 11901: a0 = i32 [sp + 0xa0]\n 11905: a1 = u64 [sp + 0x30]\n 11908: jump @206 if a0 >=u a1\n      : @205 (gas: 1)\n 11911: trap\n      : @206 (gas: 3)\n 11912: s1 = a1\n 11914: a0 = u64 [sp + 0x20]\n 11917: ra = 184, jump @0\n      : @207 [@dyn 92] (gas: 2)\n 11923: a1 = u64 [sp + 0x38]\n 11926: jump @209 if a1 == 0\n      : @208 (gas: 5)\n 11929: i32 a1 = a0 + 0\n 11931: a0 = 0x1\n 11934: a2 = s1\n 11936: ecalli 8 // 'seal_return'\n 11938: fallthrough\n      : @209 (gas: 7)\n 11939: i32 a1 = a0 + 0\n 11941: a0 = 0\n 11943: a2 = s1\n 11945: ecalli 8 // 'seal_return'\n 11947: a0 = 0\n 11949: ra = 0xba\n 11953: jump @10\n      : @210 [export #0: 'call'] (gas: 2)\n 11956: a0 = 0\n 11958: ra = 186, jump @10\n      : @211 [@dyn 93] [export #1: 'deploy'] (gas: 2)\n 11964: a0 = 0x1\n 11967: ra = 188, jump @10\n      : @212 [@dyn 94] (gas: 48)\n 11973: sp = sp + 0xffffffffffffffa0\n 11976: u64 [sp + 0x58] = ra\n 11979: u64 [sp + 0x50] = s0\n 11982: u64 [sp + 0x48] = s1\n 11985: s0 = sp + 0x60\n 11988: sp = sp & 0xfffffffffffffff0\n 11991: a2 = u64 [a1]\n 11993: a3 = u64 [a1 + 0x8]\n 11996: a4 = u64 [a1 + 0x10]\n 11999: a1 = u64 [a1 + 0x18]\n 12002: s1 = a0\n 12004: u64 [sp + 0x18] = a1\n 12007: u64 [sp + 0x10] = a4\n 12010: u64 [sp + 0x8] = a3\n 12013: a0 = sp + 0x20\n 12016: a1 = sp\n 12018: u64 [sp] = a2\n 12020: a2 = u64 [a1]\n 12022: t0 = u64 [a1 + 0x18]\n 12025: a4 = u64 [a1 + 0x8]\n 12028: a1 = u64 [a1 + 0x10]\n 12031: a5 = a2 + 0x1f\n 12034: a2 = a5 <u a2\n 12037: a3 = a4 + a2\n 12040: a4 = a3 <u a4\n 12043: a4 = a2 if a2 == 0\n 12046: a4 = a4 + a1\n 12049: a1 = a4 <u a1\n 12052: a1 = a1 + t0\n 12055: a5 = a5 & 0xffffffffffffffe0\n 12058: u64 [a0] = a5\n 12060: u64 [a0 + 0x8] = a3\n 12063: u64 [a0 + 0x10] = a4\n 12066: u64 [a0 + 0x18] = a1\n 12069: a0 = u64 [sp + 0x30]\n 12072: a1 = u64 [sp + 0x38]\n 12075: a2 = u64 [sp + 0x20]\n 12078: a3 = u64 [sp + 0x28]\n 12081: u64 [s1 + 0x10] = a0\n 12084: u64 [s1 + 0x18] = a1\n 12087: u64 [s1] = a2\n 12089: u64 [s1 + 0x8] = a3\n 12092: sp = s0 + 0xffffffffffffffa0\n 12095: ra = u64 [sp + 0x58]\n 12098: s0 = u64 [sp + 0x50]\n 12101: s1 = u64 [sp + 0x48]\n 12104: sp = sp + 0x60\n 12107: ret\n",
				"bytecode": {
					"object": "50564d00000037000000000000010700c11000c000400480d90c000000000e0000001c0000002a00000037000000420000004f0000005f0000006f0000007a0000008c0000009700000063616c6c5f646174615f636f707963616c6c5f646174615f6c6f616463616c6c5f646174615f73697a6564656c65676174655f63616c6c6765745f73746f726167657265665f74696d655f6c65667472657475726e5f646174615f636f707972657475726e5f646174615f73697a657365616c5f72657475726e7365745f696d6d757461626c655f646174617365745f73746f7261676576616c75655f7472616e73666572726564051102aeb40463616c6caebc066465706c6f7906b5f75e02af4d65004d01520174013e02d60207041c043f044b0468042d0541056f059d05cb0546064d0659066e06ce0779098c0aa40aae0abc0ad10a010b180b6e0c7b0c060d370e4d0e1d0f2a0f09102b105c118b11f711041290129d12ac13b913ba14f3150b161716c018f119111abd1aca1a8d1baf1be01c0f1d7b1d881d0a1e481e5d1f761f811f901fdd1f46209a20f321a322a0233624062580268d26e9260e27652802299829682ae22bef2b4a2c6f2cb12dfa2d062e6e2e932ebc2ec52e8b791052093b3309010001ae9833c8780883881f8488e0553801000128390a000002ae8a123d080000023308100002c8870732003308100002c88707320000009511d87b10207b15187b161082897b19088289087b1982851082861883773308205010029f6f686f59821a6faa821b086fbb787b18787a10787908787898bc38787c1f98bc30787c1e98bc28787c1d98bc20787c1c98bc18787c1b98bc10787c1a98bb08787b1998ab38787b1798ab30787b1698ab28787b1598ab20787b1498ab18787b1398ab10787b1298aa08787a11989a38787a0f989a30787a0e989a28787a0d989a20787a0c989a18787a0b989a10787a0a98990878790998893878790798893078790698892878790598892078790498891878790398891078790298880878780182102082151882161095112832009511f07b10087b158475010a02013d0704000251050750100409501006fe02951120ff7b10d8007b15d0007b16c8009515e0008411e033074033082050100891fe46171f800046171e46171d46171c46171b46171a46171946171846171746171646171546171446171346171246171146171046170f46170e46170d46170c46170b46170a46170946170846170746170646170546170446170346170246170146074911584911404911484911508317400a0b01821750821858821948821a40d49808d4a707d487075207020295172033000a9511907b10687b15607b16589515708411f039060400027b17089767209877204911284911207b17109517309518104911183300362857058217207b17188217287b171080163049219800492190004921880049218000014921b8004921b0004921a8004921a0004811602083188000831aa000831b603309ff33070a048017b4009777208218b800d4670749219800492190004921880049218000017b18b8007b17b0008217107b17a8008217187b17a00083188000831aa0003309ff330b2033070a0a33074033082050100c2ffd7c78117c79107c7a127c7b13978808d4980897aa1097bb18d4ba0ad4a8087c79157c7a147c7b167c7c17979908d4a90997bb1097cc18d4cb0bd4b909979920d489027c79017c7a7c7b027c7c03979908d4a90997bb1097cc18d4cb0bd4b9097c7a057c7b047c7c067c760797aa08d4ba0a97cc10976618d46c0cd4ca0a97aa20d4a9097c7a197c7b187c7c1a7c761b97aa08d4ba0a97cc10976618d46c0cd4ca0a7c7b1d7c7c1c7c761e7c781f97bb08d4cb0b976610978818d46808d4b808978820d48a0a7c78097c7b087c7c0a7c760b978808d4b80897cc10976618d46c0cd4c8087c7b0d7c7c0c7c760e7c770f97bb08d4cb0b976610977718d46707d4b707977720d487076f776fa66f986f29d49808d47609d48909989920d48707977720d49707510717003307330850100efefb837833070133090a0801836664673308501010e9fb8377330833090a01390808000251080d330710000383770a090164673308501012c6fb8378330733093300140a08019511c07b10387b15307b16289515408411e03307403308205010169dfb46171f800046171e46171d46171c46171b46171a46171946171846171746171646171546171446171346171246171146171046170f46170e46170d46170c46170b46170a461709461708461707461703330604000246170246170146073908040002461706461705461704531804fb00831733080a010181171c584744f2a43f4b514745f2a43f585147771024557f52470f47a45ad400330018951140ff7b10b8007b15b0007b16a8009515c0008411e04911384911304911284911208317200a0b28a70e5147c9970ecc7052478ae09dd0970050101a8e1533001c951160ff7b1098007b1590007b1688009515a0008411e04911384911304911284911208317200a0b28270733001e951140ff7b10b8007b15b0007b16a8009515c0008411e04911784911704911684911608317600a0b289209330020951160ff7b1098007b1590007b1688009515a0008411e04911384911304911284911208317200a0b2889128168015108783300229511e0fe7b1018017b1510017b160801951520018411e04921d8004921d0004921c8004921c000014921f8004921f0004921e8004921e00048210001208318c000831ae000831b00013309ff33070a048217f0007b17308217e8007b17288217e0007b17383307403308203300ae0028bdf93307501024b8f98378330733093300260a08019511f07b10087b15647533074033082050102897f97c78017c797c7a027c7b03978808d4980897aa1097bb18d4ba0ad4a8087c79057c7a047c7b067c7c07979908d4a90997bb1097cc18d4cb0bd4b909979920d489027c79097c7a087c7b0a7c7c0b979908d4a90997bb1097cc18d4cb0bd4b9097c7a0d7c7b0c7c7c0e7c780f97aa08d4ba0a97cc10978818d4c808d4a808978820d498037c78117c7a107c7b127c7c13978808d4a80897bb1097cc18d4cb0bd4b8087c7a157c7b147c7c167c791797aa08d4ba0a97cc10979918d4c909d4a909979920d4890a7c78197c79187c7b1a7c7c1b978808d4980897bb1097cc18d4cb0bd4b8087c791d7c7b1c7c7c1e7c771f979908d4b90997cc10977718d4c707d49707977720d487076f776fa86f396f2a7b5a187b59107b58087b5782100882159511103200951160ff7b1098007b1590007b1688009515a0008411f08289187b19308289107b19288289087b192082887b18187b173833074033082050102a37f87c78197c79187c7a1a7c7b1b978808d4980897aa1097bb18d4ba0ad4a8087c791d7c7a1c7c7b1e7c7c1f979908d4a90997bb1097cc18d4cb0bd4b909979920d489027c79117c7a107c7b127c7c13979908d4a90997bb1097cc18d4cb0bd4b9097c7a157c7b147c7c167c761797aa08d4ba0a97cc10976618d46c0cd4ca0a97aa20d4a9097c7a097c7b087c7c0a7c760b97aa08d4ba0a97cc10976618d46c0cd4ca0a7c7b0d7c7c0c7c760e7c780f97bb08d4cb0b976610978818d46808d4b808978820d48a0a7c78017c7b7c7c027c7603978808d4b80897cc10976618d46c0cd4c8087c7b057c7c047c76067c770797bb08d4cb0b976610977718d46707d4b707977720d487076f736fa46f966f2c82181895871fd88708821a20c88a09d8a90ada880a821828c88a0ad88a08821b30c8b8088477e0c8c7077b1c287b1710d8c70bc86909c8b90cd36c097b1630d86c07da9b07c84a0ac87a0bd8ab06d84a09c83808c89808c886068eb88e69da6809d46b087b1c088ecadb890a520a2301d84b08d33609d8360ada980ad34b08d49808db8a0752070a013307403308207b14207b13187b1b50102c8cf66f6882196f99821a086faa821b106fbb787b1898bc38787c1f98bc30787c1e98bc28787c1d98bc20787c1c98bc18787c1b98bc10787c1a98bb08787b19787a1098ab38787b1798ab30787b1698ab28787b1598ab20787b1498ab18787b1398ab10787b1298aa08787a11787908989a38787a0f989a30787a0e989a28787a0d989a20787a0c989a18787a0b989a10787a0a98990878790978789889387879079889307879069889287879059889207879049889187879039889107879029888087878018217388218287b788218187b78188218307b78088218207b7810955160ff8210980082159000821688009511a0003200491170491168491160140700000000717b484e9518607b1778330750102eb9f549115849115049114041330704951840491148501030a1f5330824330750103257f583783307013309243300340a0801808910828a0882884917187b79107b7a087b783200821848821940821a38821730d4a808d4970ad48a0a98aa20d49808978820d4a8085208720183777b17646850103804f58377646833090a0154161f5c01330820821750103aedf47c78097c79087c7a0a7c7b0b978808d4980897aa1097bb18d4ba0ad4a8087c790d7c7a0c7c7b0e7c7c0f979908d4a90997bb1097cc18d4cb0bd4b909979920d489097c78017c7a7c7b027c7c03978808d4a80897bb1097cc18d4cb0bd4b8087c7a057c7b047c7c067c760797aa08d4ba0a97cc10976618d46c0cd4ca0a97aa20d4a8086f826f99140a0000000001000000d39a0ad42a0a989b2088bb01942b93ab510bac007c7a197c7b187c7c1a7c761b97aa08d4ba0a97cc10976618d46c0cd4ca0a7c7b1d7c7c1c7c761e7c781f97bb08d4cb0b976610978818d46808d4b808978820d48a0a7c78117c7b107c7c127c7613978808d4b80897cc10976618d46c0cd4c8087c7b157c7c147c76167c771797bb08d4cb0b976610977718d46707d4b707977720d487076f776fa8821a087ba87ba7087ba9107ba2189551908210688215608216589511703200003307330850103c97f38378330701330933003e0a0801828918828a10828b0882887b79187b7a107b7b087b783200821730821838821928821a20d49808d4a707d487075207860139070400025417037d014911584911504911484911404911784911704911684911604821800020831840831a60831b80003309ff33070a048217787b178217707b17088217687b17108217607b1718330740330820501040fff27c78117c79107c7a127c7b13978808d4980897aa1097bb18d4ba0ad4a8087c79157c7a147c7b167c7c17979908d4a90997bb1097cc18d4cb0bd4b909979920d489027c79017c7a7c7b027c7c03979908d4a90997bb1097cc18d4cb0bd4b9097c7a057c7b047c7c067c760797aa08d4ba0a97cc10976618d46c0cd4ca0a97aa20d4a9097c7a197c7b187c7c1a7c761b97aa08d4ba0a97cc10976618d46c0cd4ca0a7c7b1d7c7c1c7c761e7c781f97bb08d4cb0b976610978818d46808d4b808978820d48a0a7c78097c7b087c7c0a7c760b978808d4b80897cc10976618d46c0cd4c8087c7b0d7c7c0c7c760e7c770f97bb08d4cb0b976610977718d46707d4b707977720d487076f786fa76f996f2ad4a909d4870ad49a0a98aa20d49808978820d4a8085108170033073308501042cef1837833070133090a080183763308206467501044b8f182186f888219086f99821a106faa821b186fbb98bc38787c1f98bc30787c1e98bc28787c1d98bc20787c1c98bc18787c1b98bc10787c1a98bc08787c19787b18787a1098ab38787b1798ab30787b1698ab28787b1598ab20787b1498ab18787b1398ab10787b1298aa08787a11787908989a38787a0f989a30787a0e989a28787a0d989a20787a0c989a18787a0b989a10787a0a98990878790978789889387879079889307879069889287879059889207879049889187879039889107879029888087878013308206467501046e8f0837833092033073300480a08013200821770821878821968821a60d49808d4a707d487075207120239070400025417230902831780003308040a01821980008217880082189000821a98007b1a387b18307b17289517409518207b192033004a9511a0fe7b1058017b1550017b164801951560018411e07b17208287187b17408287107b17488287087b175082877b1758492118014921100149210801492100010149213801492130014921280149212001482140012083180001831a2001831b40013309ff33070a04821730017b1730821728017b1728821720017b173833074033082033008c0028faef8217587b17188217507b17088217487b17108217407b1733074033082050104cdaef7c78117c79107c7a127c7b13978808d4980897aa1097bb18d4ba0ad4a8087c79157c7a147c7b167c7c17979908d4a90997bb1097cc18d4cb0bd4b909979920d489027c79017c7a7c7b027c7c03979908d4a90997bb1097cc18d4cb0bd4b9097c7a057c7b047c7c067c760797aa08d4ba0a97cc10976618d46c0cd4ca0a97aa20d4a9097c7a197c7b187c7c1a7c761b97aa08d4ba0a97cc10976618d46c0cd4ca0a7c7b1d7c7c1c7c761e7c781f97bb08d4cb0b976610978818d46808d4b808978820d48a0a7c78097c7b087c7c0a7c760b978808d4b80897cc10976618d46c0cd4c8087c7b0d7c7c0c7c760e7c770f97bb08d4cb0b976610977718d46707d4b707977720d487076f786fa76f996f2ad4a909d4870ad49a0a98aa20d49808978820d4a808510817003307330850104ea9ee837833070133090a08018218088219d49808821918821a10d4a909d498088e887b1818837633082064675010507aee46171e46171d46171c46171b46171a46171946171846171746171646171546171446171346171246171146171046170f46170e46170d46170c46170b46170a461709461708461707461706461705461704461703461702461701460782181878781f33082064675010520eee837833092033073300540a08019511c07b10387b15307b16289515408411e0828910828a18828b088288d4ba0ad4980bd4ab0b98bb20d4a909979920d4b9095209506476838883170a010182171082181814090000000001000000d37909d48909987a2088aa01948a939a510a258219821a087b697b6a087b67107b68189551c08210388215308216289511403200003307330850105675ed837833070133093300580a08019511807b10787b15707b1668951580008411e0828410828c0882920882867b1610829b7b1b18829010d3c20a7b1a38d8c20ad86b0b821338da3b0a64b38288187b18388298187b1820c94008c9a8097b1928d8a8097b1430d8400a821838821b20c98b08c9a808c99804c9c206c93609821210821818c9280a8e9b88aa2085aa01db9b0a8f498218288e8bdb490bd44808db8b0a510a726476821930d49207821838d4c808d48707987720d49808978820d4870752075183288317400a010182175082185814090000000001000000d37909d48909987a2088aa01948a939a510a27821948821a407b69087b6a7b67107b6818955180821078821570821668951180003200003307330850105a59ec8378330701330933005c0a0801828918828a10828b0882887b79187b7a107b7b087b783200821730821838821928821a20d49808d4a707d487075207fc013907040002541723f301831780003308040a010182169000821a980014070000000001000000d36707d4a7079868208888017b1a1894a893785108c901821788007b1708821780007b1710491178491170491168491160014921980049219000492188004921800048114020831860831a8000831b403309ff33070a048017940082189800977720d46707821918d49808491178491170491168491160017b1898007b1790008217087b1788008217107b178000831860831a80003309ff330b2033070a0a33074033082050105e4beb7c78117c79107c7a127c7b13978808d4980897aa1097bb18d4ba0ad4a8087c79157c7a147c7b167c7c17979908d4a90997bb1097cc18d4cb0bd4b909979920d489027c79017c7a7c7b027c7c03979908d4a90997bb1097cc18d4cb0bd4b9097c7a057c7b047c7c067c760797aa08d4ba0a97cc10976618d46c0cd4ca0a97aa20d4a9097c7a197c7b187c7c1a7c761b97aa08d4ba0a97cc10976618d46c0cd4ca0a7c7b1d7c7c1c7c761e7c781f97bb08d4cb0b976610978818d46808d4b808978820d48a0a7c78097c7b087c7c0a7c760b978808d4b80897cc10976618d46c0cd4c8087c7b0d7c7c0c7c760e7c770f97bb08d4cb0b976610977718d46707d4b707977720d487076f786fa76f996f2ad4a909d4870ad49a0a98aa20d49808978820d4a80851082600330733083300602817ea330750106012ea837833070133090a08837733006228ffe98377501062fae98378330733093300640a08019511a07b10587b15507b16487b178283828008828b108288188292829a0882941882991098253d97a603d4650598aa3d979603d46a0a98993d974403d494069724038e698eacdb690c8e5788490001859401db5704d46a0adbac0446114746114646114546114446114346114246114146114046113f46113e46113d46113c46113b46113a46113946113846113746113646113546113446113346113246113146113046112f46112e46112d46112c46112b46112a461129461128781820781b1878101078130898873878172798873078172698872878172598872078172498871878172398871078172298880878182198b73878171f98b73078171e98b72878171d98b72078171c98b71878171b98b71078171a98bb08781b1998073878171798073078171698072878171598072078171498071878171398071078171298070878171198373878170f98373078170e98372878170d98372078170c98371878170b98371078170a98370878170984281f951708c878087c87097c89087c8a0a7c8b0b977708d4970797aa1097bb18d4ba0ad4a7077c890d7c8a0c7c8b0e7c8c0f979908d4a90997bb1097cc18d4cb0bd4b909979920d4790a7c87017c897c8b027c8c03977708d4970797bb1097cc18d4cb0bd4b7077c89057c8b047c8c067c8607979908d4b90997cc10976618d46c0cd4c909979920d497077c89117c8b107c8c127c8813979908d4b90997cc10978818d4c808d498089447944a944882194919187b98107b9a087b978210588215508216489511603200821730821838821928821a20d49808d4a707d487075207820139070400025417037901491158491150491148491140014911784911704911684911604821800020831840831a60831b80003309ff33070a048217707b17088217687b17108217607b171833074033082050106645e77c78117c79107c7a127c7b13978808d4980897aa1097bb18d4ba0ad4a8087c79157c7a147c7b167c7c17979908d4a90997bb1097cc18d4cb0bd4b909979920d489027c79017c7a7c7b027c7c03979908d4a90997bb1097cc18d4cb0bd4b9097c7a057c7b047c7c067c760797aa08d4ba0a97cc10976618d46c0cd4ca0a97aa20d4a9097c7a197c7b187c7c1a7c761b97aa08d4ba0a97cc10976618d46c0cd4ca0a7c7b1d7c7c1c7c761e7c781f97bb08d4cb0b976610978818d46808d4b808978820d48a0a7c78097c7b087c7c0a7c760b978808d4b80897cc10976618d46c0cd4c8087c7b0d7c7c0c7c760e7c770f97bb08d4cb0b976610977718d46707d4b707977720d487076f786fa76f996f2ad4a909d4870ad49a0a98aa20d49808978820d4a808510817003307330850106814e6837833070133090a080182180897882098862083777b170833082050106af4e56f688219106f99821a186faa98ab38787b1f98ab30787b1e98ab28787b1d98ab20787b1c98ab18787b1b98ab10787b1a98ab08787b19787a1878791046170b46170a4617094617074617064617054617044617034617024617014607989a38787a17989a30787a16989a28787a15989a20787a14989a18787a13989a10787a1298990878791178780898893878790f98893078790e98892878790d98882078780c33082082170850106c48e58378330920330733006e0a08019511807b10787b15707b1668951580008411e04911584911504911484911408317400a0b01821750821858821948821a40d49808d4a707d487075207d3013907040002541703ca019517203300709511c0fe7b1038017b1530017b162801951540018411e07b17284921f8004921f0004921e8004921e000014921180149211001492108014921000148212001208318e000831a0001831b20013309ff33070a04821710017b1738821708017b1730821700017b174033074033082033009e002876e48217387b17188217307b17088217287b17108217207b1733074033082050107256e47c78117c79107c7a127c7b13978808d4980897aa1097bb18d4ba0ad4a8087c79157c7a147c7b167c7c17979908d4a90997bb1097cc18d4cb0bd4b909979920d489027c79017c7a7c7b027c7c03979908d4a90997bb1097cc18d4cb0bd4b9097c7a057c7b047c7c067c760797aa08d4ba0a97cc10976618d46c0cd4ca0a97aa20d4a9097c7a197c7b187c7c1a7c761b97aa08d4ba0a97cc10976618d46c0cd4ca0a7c7b1d7c7c1c7c761e7c781f97bb08d4cb0b976610978818d46808d4b808978820d48a0a7c78097c7b087c7c0a7c760b978808d4b80897cc10976618d46c0cd4c8087c7b0d7c7c0c7c760e7c770f97bb08d4cb0b976610977718d46707d4b707977720d487076f786fa76f996f2ad4a909d4870ad49a0a98aa20d49808978820d4a808510817003307330850107425e3837833070133090a08018218088219d49808821918821a10d4a909d498088e887b181883763308206467501076f6e246171e46171d46171c46171b46171a46171946171846171746171646171546171446171346171246171146171046170f46170e46170d46170c46170b46170a461709461708461707461706461705461704461703461702461701460782181878781f33082064675010788ae28378330920330733007a0a080149171849171049170849073200951120ff7b10d8007b15d0007b16c8009515e0008411f0828a18828910828b087b19107b1a08d4a90988ba01949a7b1738510a7601828695671fd867087b1b18c8b8088488018477e0957920d87907c8780ad88a0bda770b492198007b1980007b1a88009517a000951880007b1b900050107c8de98217b8008219b0008218a800821aa0007b17287b1820d48707d49a08d478089888207b1930d49707977720d487075207030183a73308207b1a50107ebde18218086f888219106f99821a186faa6f6b98bc38787c1f98bc30787c1e98bc28787c1d98bc20787c1c98bc18787c1b98bc10787c1a98bc08787c19787b18787a1098ab38787b1798ab30787b1698ab28787b1598ab20787b1498ab18787b1398ab10787b1298aa08787a11787908989a38787a0f989a30787a0e989a28787a0d989a20787a0c989a18787a0b989a10787a0a989908787909787898893878790798893078790698892878790598892078790498891878790398891078790298880878780182173882187b788218287b78188218207b78088218307b7810955120ff8210d8008215d0008216c8009511e000320000491170491168491160140700000000717b484e9518607b1778330750208000e9e04911584911504911404133070495184049114850208200d0e033082433075020840085e08378330701330924330086000a08014917184917104917083308607b783200951160ff7b1098007b1590007b1688009515a0008411e064760a07015107b3007b16200a074911584911507b174095176095184049114850208800befd8217787b17388217707b17308217687b17288216600a07019568207b1618d86809821b28c89b0ad8ba0bda990b821930c89b0bd89b09821c38c8c909d4b80cd4a909d49c0c98cc20d4b909979920d4c9095209406476987720520738838783687b181050208a00c0df7a16800083778318800033090a060181178000821620821838821930821a28821b18821c10aec70e00330a33093308330b60017b6b7b6a087b69107b6818955160ff8210980082159000821688009511a00032007c78197c79187c7a1a7c7b1b978808d4980897aa1097bb18d4ba0ad4a8087c791d7c7a1c7c7b1e7c7c1f979908d4a90997bb1097cc18d4cb0bd4b909979920d489027c79117c7a107c7b127c7c13979908d4a90997bb1097cc18d4cb0bd4b9097c7a157c7b147c7c167c761797aa08d4ba0a97cc10976618d46c0cd4ca0a97aa20d4a9097c7a097c7b087c7c0a7c760b97aa08d4ba0a97cc10976618d46c0cd4ca0a7c7b0d7c7c0c7c760e7c780f97bb08d4cb0b976610978818d46808d4b808978820d48a0a7c78017c7b7c7c027c7603978808d4b80897cc10976618d46c0cd4c8087c7b057c7c047c76067c770797bb08d4cb0b976610977718d46707d4b707977720d487076f7b6fac6f9a6f289587207b1860d88708c88a097b1a68d8a90ada880ac8ca0a7b1c70d8ca087b1b78c8b808d4a70bd49808d48b0b98bb20d4a808978820d4b80852082b058376330820646750208e0013de46171f46171e46171d46171c46171b46171a46171946171846171746171646171546171446171346171246171146171046170f46170e46170d46170c46170b46170a461709461708461707461706461705461704461703774617021046170124821960959824d89809821b68c89b0ad8ba0bda990b821970c89b0bd89b09821c78c8c909d4a909d4b80ad49a0ad4b909330b5598aa20979920d4a909787b52097c047b161883873308205020900063dd8218406f888219486f99821a506faa821b586fbb98bc38787c1f98bc30787c1e98bc28787c1d98bc20787c1c98bc18787c1b98bc10787c1a98bc08787c19787b18787a1098ab38787b1798ab30787b1698ab28787b1598ab20787b1498ab18787b1398ab10787b1298aa08787a11787908989a38787a0f989a30787a0e989a28787a0d989a20787a0c989a18787a0b989a10787a0a9899087879097878988938787907988930787906988928787905988920787904988918787903988910787902988808821b70821960d4b909821a78821c68d4ca0ad4a909989920d4ba0a97aa20d4a9097878015209820382166083677b17583308205020920066dc46171f2446171e46171d46171c46171b46171a46171946171846171746171646171546171446171346171246171146171046170f46170e46170d46170c46170b46170a46170946170846170746170646170546170446170346170246170146079567607b1750d86707821868c878097b1960d88908da7708821770c88706d87607821878c887077b177833074033082050209400d0db8218786f886f69821a606faa821b506fbb98bc38787c1f98bc30787c1e98bc28787c1d98bc20787c1c98bc18787c1b98bc10787c1a98bc08787c19787b1898ab38787b1798ab30787b1698ab28787b1598ab20787b1498ab18787b1398ab10787b1298ab08787b11787a10787908989a38787a0f989a30787a0e989a28787a0d989a20787a0c989a18787a0b989a10787a0a98990878790978789889387879079889307879069889287879059889207879049889187879039889107879029888087878013308208217585020960000db7c78117c79107c7a127c7b13978808d4980897aa1097bb18d4ba0ad4a8087c79157c7a147c7b167c7c17979908d4a90997bb1097cc18d4cb0bd4b909979920d489027c79017c7a7c7b027c7c03979908d4a90997bb1097cc18d4cb0bd4b9097c7a057c7b047c7c067c760797aa08d4ba0a97cc10976618d46c0cd4ca0a97aa20d4a9097c7a197c7b187c7c1a7c761b97aa08d4ba0a97cc10976618d46c0cd4ca0a7c7b1d7c7c1c7c761e7c781f97bb08d4cb0b976610978818d46808d4b808978820d48a0a7c78097c7b087c7c0a7c760b978808d4b80897cc10976618d46c0cd4c8087c7b0d7c7c0c7c760e7c770f97bb08d4cb0b976610977718d46707d4b707977720d487076f777b17786fa66f977b17706f277b17680a05018217286f779778208219306f99989920d498088219386f99979a20987720d4a7079899207b17a8007b18a000821770821868d48707821b78d4b608d47808988820d4b707977720d487077a19b00052079e00646a83a88217185020980086d97b17783307330850209a0079d94821c0004921f800ff4921f000ff4921e800ff4921e000ff9518a000978820988220821878978820988820976b20d48b0b9777209877209518c000978820d4780c831ae0003308ff3309ff64270a038876019517800050209c00bdf88217204917184917104917087b769551a0fe821058018215500182164801951160013200007c78197c79187c7a1a7c7b1b978808d4980897aa1097bb18d4ba0ad4a8087c791d7c7a1c7c7b1e7c7c1f979908d4a90997bb1097cc18d4cb0bd4b909979920d489027c79117c7a107c7b127c7c13979908d4a90997bb1097cc18d4cb0bd4b9097c7a157c7b147c7c167c761797aa08d4ba0a97cc10976618d46c0cd4ca0a97aa20d4a9097c7a097c7b087c7c0a7c760b97aa08d4ba0a97cc10976618d46c0cd4ca0a7c7b0d7c7c0c7c760e7c780f97bb08d4cb0b976610978818d46808d4b808978820d48a0a7c78017c7b7c7c027c7603978808d4b80897cc10976618d46c0cd4c8087c7b057c7c047c76067c770797bb08d4cb0b976610977718d46707d4b707977720d487076f766fab6f9a6f289587207b1848d88708c88a097b1a50d8a90ada880ac8ba0a7b1b58d8ba08c86808d4a70bd49808d48b0b98bb20d4a808978820d4b80852081b0483773308207b17185020a000a1d74617038a00461702e0004617019d004607d000821a58821848d4a8087b1620821950d46909d49808988820d4a909979920d4980846171f46171e46171d46171c46171b46171a46171946171846171746171646171546171446171346171246171146171046170f46170e46170d46170c46170b46170a4617094617084617074617064617054617045208810382164883677b17103308205020a20004d746171f0446171e46171d46171c46171b46171a46171946171846171746171646171546171446171346171246171146171046170f46170e46170d46170c46170b46170a46170946170846170746170646170546170446170346170246170146079567407b1708d86707821850c878097b1948d88908da7708821758c88706d87607821820c887077b17583307403308205020a4006ed68218586f886f69821a486faa821b086fbb98bc38787c1f98bc30787c1e98bc28787c1d98bc20787c1c98bc18787c1b98bc10787c1a98bc08787c19787b1898ab38787b1798ab30787b1698ab28787b1598ab20787b1498ab18787b1398ab10787b1298ab08787b11787a10787908989a38787a0f989a30787a0e989a28787a0d989a20787a0c989a18787a0b989a10787a0a98990878790978789889387879079889307879069889287879059889207879049889187879039889107879029888087878013308208217105020a6009ed57c78117c79107c7a127c7b13978808d4980897aa1097bb18d4ba0ad4a8087c79157c7a147c7b167c7c17979908d4a90997bb1097cc18d4cb0bd4b909979920d489027c79017c7a7c7b027c7c03979908d4a90997bb1097cc18d4cb0bd4b9097c7a057c7b047c7c067c760797aa08d4ba0a97cc10976618d46c0cd4ca0a97aa20d4a9097c7a197c7b187c7c1a7c761b97aa08d4ba0a97cc10976618d46c0cd4ca0a7c7b1d7c7c1c7c761e7c781f97bb08d4cb0b976610978818d46808d4b808978820d48a0a7c78097c7b087c7c0a7c760b978808d4b80897cc10976618d46c0cd4c8087c7b0d7c7c0c7c760e7c770f97bb08d4cb0b976610977718d46707d4b707977720d487076f777b17586fa66f977b17506f277b17480a05018217306f779778208219386f99989920d498088219406f99979a20987720d4a7079899207b1788007b188000821750821848d48707821b58d4b608d47808988820d4b707977720d487077a19900052079d00646a83a88217185020a80024d47b1758330733085020aa0017d44821a0004921d800ff4921d000ff4921c800ff4921c000ff95188000978820988220821858978820988820976b20d48b0b9777209877209518a000978820d4780c831ac0003308ff3309ff64270a038876019517605020ac005cf38217284917184917104917087b769551c0fe821038018215300182162801951140013200007c78117c79107c7a127c7b13978808d4980897aa1097bb18d4ba0ad4a8087c79157c7a147c7b167c7c17979908d4a90997bb1097cc18d4cb0bd4b909979920d489027c79017c7a7c7b027c7c03979908d4a90997bb1097cc18d4cb0bd4b9097c7a057c7b047c7c067c760797aa08d4ba0a97cc10976618d46c0cd4ca0a97aa20d4a9097c7a197c7b187c7c1a7c761b97aa08d4ba0a97cc10976618d46c0cd4ca0a7c7b1d7c7c1c7c761e7c781f97bb08d4cb0b976610978818d46808d4b808978820d48a0a7c78097c7b087c7c0a7c760b978808d4b80897cc10976618d46c0cd4c8087c7b0d7c7c0c7c760e7c770f97bb08d4cb0b976610977718d46707d4b707977720d487076f786fa76f996f2ad4a909d4870ad49a0a98aa20d49808978820d4a8085208f40033080400027b1818390604000283777b172064685020b00055d28377646833090a82171881767b16180a058217286f779778208219306f99989920d498088219386f99979a20987720d4a7079899207b17487b18407a195082172064685020b2000cd26476330733085020b40000d248116049219800ff49219000ff49218800ff49218000ff951840978820988220976620986620821b1897bb20d46b0b977720987720951860978820d4780c831a80003308ff3309ff64270a037b17380a0701647698772052072a83687b18308217205020b60098d17a16a00083778318a00033090a06018117a000821830ae87040064868217205020b80073d182183851080d837833070164690a08018378330764690a0833073300ba002882d233075020ba007dd23307015020bc0074d29511a07b10587b15507b16489515608411f08289828a08828b1082881864767b18187b1b107b1a0895172064187b198289828218828b08828810959c1fd89c09c89b0ad8ba0bda990bc88b0bd88b08c8280884cce07b7c7b7a087b7b107b7818821730821838821920821a287b67107b68187b697b6a089551a0821058821550821648951160320049489220248414d249525252a22a2529499224499224499224499224499224499224499224494a4a4322444444921092244992244992244992242949d2244912499224214992244992242242444444241589444488482422924a429224499224499224294992244992244992244992244992244992244992244992a42a4992648552ab501d126a852a4d9224092149922449922449922421292409d5040281804444449224251010121111499294444444922425111191244969121111898810111122221589449248a14a934a424a92244992244992244992244992244992244992244992244992244992244992a42a492945444492242949429224499224499224499224499224499224499224499224499292244992244992a42a49922449922449922449924a52224992449214aa9492244992244992244992244992244992242549922449929424494444942480a49044929042499a94a4922449924415aa430a4992244992244992a424499224499224a90092a422499224499224499224499224499224492a254992b442294d52924a92241142922449482295922449429224499224499224294992244992244992244992244992244992244992244992a42a49926485524ba1524a4992244992244992244992244992244992922449922449a194962449228448111149922422229224494a448488881011a9482492449224494948922449922449922425499224499224499224499224499224499224499224499254254992ac506a4a9294524892244992244992244992a42485529a244992922449aa26012449a5942449d20aa5344922494a4992242549922449922449494a4952922449529a0490249524254912ad504a9394a4922449841069440049928a48244944444422a98824491211894422a924244992244992244992922449922449922449922449922449922449922449922449aa9224495652285552a8d224a92425499224492a4592244992244992244992244992244992244992244992244992244992244992244992244992244992244992244952922449922449922449922455494a92922449849024922424914a9224094992244992244992a4244992244992244992244992244992244992244992244992aa244992154a4d52124a2949922449922449922429499224499224499224a19426492449d22449122124111191444488880811918a4422492449929484244992244992244952922449922449922449922449922449922449922449922449559224c90aa5a62449298524499224499224499224494a5228a5492a22229224494a9424499224222222444424499224510a29a592244992244992244992244992244992242549922449924a922422229a2480a4208924410a4aa249521111911a29499220499234499224499224494a2a4114359224c92a4b121111254992244992244992244992244992244992244992244992242949922449922449aa922449922449924429489224499224499224499288489224499224499222254829a52449922449922449922449922449922449499224499224499224899404912449922449922449922449499224499224412aa52449922449922449922449922449922449499224499224419224499224499224294992244992244992244992244992244992244992244992a4544a53529292242249922489a804a920420821922449124924950892a48888689224499224499224499224499224499224499224499224499292244992244992a42a4992244992248992208410499224499224499224499224499224521244922449922449922449922425499224499204a9949224499224499224499224499224499224254992244992044992244992244992a424499224499224499224499224499224499224499224499252294d49494a928824499224a212a482082184489224492491541224491111d12449922449922449529224499224499224499224499224499224499224499224495592248990500aaa29a5a424254992145441420821499224491249a525254114359225484aad2a529020499292942455922449929424499292240900"
				},
				"methodIdentifiers": {
					"increment()": "d09de08a",
					"logicContract()": "cc0e97c9",
					"setLogicContract(address)": "5aa4470f",
					"setValue(uint256)": "55241077",
					"value()": "3fa4f245"
				}
			},
			"hash": "c2525d46db4f6c5030ac0b685430c1e2fcd7b0bea95850a5f2b6b1b74d00fb42",
			"factoryDependencies": {}
		}
	}
}