{
  "_format": "hh-sol-artifact-1",
  "contractName": "Storage",
  "sourceName": "contracts/storage.sol",
  "abi": [
    {
      "anonymous": false,
      "inputs": [
        {
          "indexed": true,
          "internalType": "address",
          "name": "who",
          "type": "address"
        },
        {
          "indexed": false,
          "internalType": "uint256",
          "name": "",
          "type": "uint256"
        }
      ],
      "name": "SomeThing",
      "type": "event"
    },
    {
      "inputs": [],
      "name": "getSelector",
      "outputs": [
        {
          "internalType": "bytes4",
          "name": "res1",
          "type": "bytes4"
        },
        {
          "internalType": "bytes32",
          "name": "res2",
          "type": "bytes32"
        }
      ],
      "stateMutability": "pure",
      "type": "function"
    },
    {
      "inputs": [],
      "name": "retrieve",
      "outputs": [
        {
          "internalType": "uint256",
          "name": "",
          "type": "uint256"
        }
      ],
      "stateMutability": "view",
      "type": "function"
    },
    {
      "inputs": [
        {
          "internalType": "uint256",
          "name": "num",
          "type": "uint256"
        }
      ],
      "name": "store",
      "outputs": [],
      "stateMutability": "nonpayable",
      "type": "function"
    }
  ],
  "bytecode": "0x6080604052348015600f57600080fd5b506102798061001f6000396000f3fe608060405234801561001057600080fd5b50600436106100415760003560e01c8063034899bc146100465780632e64cec1146100655780636057361d14610083575b600080fd5b61004e61009f565b60405161005c929190610188565b60405180910390f35b61006d6100d3565b60405161007a91906101ca565b60405180910390f35b61009d60048036038101906100989190610216565b6100dc565b005b600080636057361d60e01b91507f191c251bebd609d14e5f20aac6273bf449be4579265b6def0a08a4807e00806390509091565b60008054905090565b806000819055503373ffffffffffffffffffffffffffffffffffffffff167f191c251bebd609d14e5f20aac6273bf449be4579265b6def0a08a4807e0080638260405161012991906101ca565b60405180910390a250565b60007fffffffff0000000000000000000000000000000000000000000000000000000082169050919050565b61016981610134565b82525050565b6000819050919050565b6101828161016f565b82525050565b600060408201905061019d6000830185610160565b6101aa6020830184610179565b9392505050565b6000819050919050565b6101c4816101b1565b82525050565b60006020820190506101df60008301846101bb565b92915050565b600080fd5b6101f3816101b1565b81146101fe57600080fd5b50565b600081359050610210816101ea565b92915050565b60006020828403121561022c5761022b6101e5565b5b600061023a84828501610201565b9150509291505056fea2646970667358221220e435d25830e955c7a216e3092fa81c095472cfd781a5da909cae9ea84a00d96564736f6c634300081c0033",
  "linkReferences": {},
  "deployedLinkReferences": {}
}