{"abi":[{"type":"constructor","inputs":[{"name":"name_","type":"string","internalType":"string"},{"name":"symbol_","type":"string","internalType":"string"},{"name":"decimals_","type":"uint8","internalType":"uint8"},{"name":"initialSupply_","type":"uint256","internalType":"uint256"}],"stateMutability":"nonpayable"},{"type":"function","name":"allowance","inputs":[{"name":"owner","type":"address","internalType":"address"},{"name":"spender","type":"address","internalType":"address"}],"outputs":[{"name":"","type":"uint256","internalType":"uint256"}],"stateMutability":"view"},{"type":"function","name":"approve","inputs":[{"name":"spender","type":"address","internalType":"address"},{"name":"amount","type":"uint256","internalType":"uint256"}],"outputs":[{"name":"","type":"bool","internalType":"bool"}],"stateMutability":"nonpayable"},{"type":"function","name":"balanceOf","inputs":[{"name":"account","type":"address","internalType":"address"}],"outputs":[{"name":"","type":"uint256","internalType":"uint256"}],"stateMutability":"view"},{"type":"function","name":"burn","inputs":[{"name":"amount","type":"uint256","internalType":"uint256"}],"outputs":[{"name":"","type":"bool","internalType":"bool"}],"stateMutability":"nonpayable"},{"type":"function","name":"decimals","inputs":[],"outputs":[{"name":"","type":"uint8","internalType":"uint8"}],"stateMutability":"view"},{"type":"function","name":"mint","inputs":[{"name":"to","type":"address","internalType":"address"},{"name":"amount","type":"uint256","internalType":"uint256"}],"outputs":[{"name":"","type":"bool","internalType":"bool"}],"stateMutability":"nonpayable"},{"type":"function","name":"name","inputs":[],"outputs":[{"name":"","type":"string","internalType":"string"}],"stateMutability":"view"},{"type":"function","name":"symbol","inputs":[],"outputs":[{"name":"","type":"string","internalType":"string"}],"stateMutability":"view"},{"type":"function","name":"totalSupply","inputs":[],"outputs":[{"name":"","type":"uint256","internalType":"uint256"}],"stateMutability":"view"},{"type":"function","name":"transfer","inputs":[{"name":"to","type":"address","internalType":"address"},{"name":"amount","type":"uint256","internalType":"uint256"}],"outputs":[{"name":"","type":"bool","internalType":"bool"}],"stateMutability":"nonpayable"},{"type":"function","name":"transferFrom","inputs":[{"name":"from","type":"address","internalType":"address"},{"name":"to","type":"address","internalType":"address"},{"name":"amount","type":"uint256","internalType":"uint256"}],"outputs":[{"name":"","type":"bool","internalType":"bool"}],"stateMutability":"nonpayable"},{"type":"event","name":"Approval","inputs":[{"name":"owner","type":"address","indexed":true,"internalType":"address"},{"name":"spender","type":"address","indexed":true,"internalType":"address"},{"name":"value","type":"uint256","indexed":false,"internalType":"uint256"}],"anonymous":false},{"type":"event","name":"Transfer","inputs":[{"name":"from","type":"address","indexed":true,"internalType":"address"},{"name":"to","type":"address","indexed":true,"internalType":"address"},{"name":"value","type":"uint256","indexed":false,"internalType":"uint256"}],"anonymous":false}],"bytecode":{"object":"0x608060405234801561001057600080fd5b506040516122983803806122988339818101604052810190610032919061036a565b83600090816100419190610620565b5082600190816100519190610620565b5081600260006101000a81548160ff021916908360ff16021790555033600660006101000a81548173ffffffffffffffffffffffffffffffffffffffff021916908373ffffffffffffffffffffffffffffffffffffffff1602179055508160ff16600a6100be9190610854565b816100c9919061089f565b600381905550600354600460003373ffffffffffffffffffffffffffffffffffffffff1673ffffffffffffffffffffffffffffffffffffffff168152602001908152602001600020819055503373ffffffffffffffffffffffffffffffffffffffff16600073ffffffffffffffffffffffffffffffffffffffff167fddf252ad1be2c89b69c2b068fc378daa952ba7f163c4a11628f55a4df523b3ef60035460405161017591906108f0565b60405180910390a35050505061090b565b6000604051905090565b600080fd5b600080fd5b600080fd5b600080fd5b6000601f19601f8301169050919050565b7f4e487b7100000000000000000000000000000000000000000000000000000000600052604160045260246000fd5b6101ed826101a4565b810181811067ffffffffffffffff8211171561020c5761020b6101b5565b5b80604052505050565b600061021f610186565b905061022b82826101e4565b919050565b600067ffffffffffffffff82111561024b5761024a6101b5565b5b610254826101a4565b9050602081019050919050565b60005b8381101561027f578082015181840152602081019050610264565b60008484015250505050565b600061029e61029984610230565b610215565b9050828152602081018484840111156102ba576102b961019f565b5b6102c5848285610261565b509392505050565b600082601f8301126102e2576102e161019a565b5b81516102f284826020860161028b565b91505092915050565b600060ff82169050919050565b610311816102fb565b811461031c57600080fd5b50565b60008151905061032e81610308565b92915050565b6000819050919050565b61034781610334565b811461035257600080fd5b50565b6000815190506103648161033e565b92915050565b6000806000806080858703121561038457610383610190565b5b600085015167ffffffffffffffff8111156103a2576103a1610195565b5b6103ae878288016102cd565b945050602085015167ffffffffffffffff8111156103cf576103ce610195565b5b6103db878288016102cd565b93505060406103ec8782880161031f565b92505060606103fd87828801610355565b91505092959194509250565b600081519050919050565b7f4e487b7100000000000000000000000000000000000000000000000000000000600052602260045260246000fd5b6000600282049050600182168061045b57607f821691505b60208210810361046e5761046d610414565b5b50919050565b60008190508160005260206000209050919050565b60006020601f8301049050919050565b600082821b905092915050565b6000600883026104d67fffffffffffffffffffffffffffffffffffffffffffffffffffffffffffffffff82610499565b6104e08683610499565b95508019841693508086168417925050509392505050565b6000819050919050565b600061051d61051861051384610334565b6104f8565b610334565b9050919050565b6000819050919050565b61053783610502565b61054b61054382610524565b8484546104a6565b825550505050565b600090565b610560610553565b61056b81848461052e565b505050565b5b8181101561058f57610584600082610558565b600181019050610571565b5050565b601f8211156105d4576105a581610474565b6105ae84610489565b810160208510156105bd578190505b6105d16105c985610489565b830182610570565b50505b505050565b600082821c905092915050565b60006105f7600019846008026105d9565b1980831691505092915050565b600061061083836105e6565b9150826002028217905092915050565b61062982610409565b67ffffffffffffffff811115610642576106416101b5565b5b61064c8254610443565b610657828285610593565b600060209050601f83116001811461068a5760008415610678578287015190505b6106828582610604565b8655506106ea565b601f19841661069886610474565b60005b828110156106c05784890151825560018201915060208501945060208101905061069b565b868310156106dd57848901516106d9601f8916826105e6565b8355505b6001600288020188555050505b505050505050565b7f4e487b7100000000000000000000000000000000000000000000000000000000600052601160045260246000fd5b60008160011c9050919050565b6000808291508390505b600185111561077857808604811115610754576107536106f2565b5b60018516156107635780820291505b808102905061077185610721565b9450610738565b94509492505050565b600082610791576001905061084d565b8161079f576000905061084d565b81600181146107b557600281146107bf576107ee565b600191505061084d565b60ff8411156107d1576107d06106f2565b5b8360020a9150848211156107e8576107e76106f2565b5b5061084d565b5060208310610133831016604e8410600b84101617156108235782820a90508381111561081e5761081d6106f2565b5b61084d565b610830848484600161072e565b92509050818404811115610847576108466106f2565b5b81810290505b9392505050565b600061085f82610334565b915061086a83610334565b92506108977fffffffffffffffffffffffffffffffffffffffffffffffffffffffffffffffff8484610781565b905092915050565b60006108aa82610334565b91506108b583610334565b92508282026108c381610334565b915082820484148315176108da576108d96106f2565b5b5092915050565b6108ea81610334565b82525050565b600060208201905061090560008301846108e1565b92915050565b61197e8061091a6000396000f3fe608060405234801561001057600080fd5b50600436106100a95760003560e01c806340c10f191161007157806340c10f191461016857806342966c681461019857806370a08231146101c857806395d89b41146101f8578063a9059cbb14610216578063dd62ed3e14610246576100a9565b806306fdde03146100ae578063095ea7b3146100cc57806318160ddd146100fc57806323b872dd1461011a578063313ce5671461014a575b600080fd5b6100b6610276565b6040516100c3919061101e565b60405180910390f35b6100e660048036038101906100e191906110d9565b610308565b6040516100f39190611134565b60405180910390f35b610104610468565b604051610111919061115e565b60405180910390f35b610134600480360381019061012f9190611179565b610472565b6040516101419190611134565b60405180910390f35b610152610841565b60405161015f91906111e8565b60405180910390f35b610182600480360381019061017d91906110d9565b610858565b60405161018f9190611134565b60405180910390f35b6101b260048036038101906101ad9190611203565b610a7b565b6040516101bf9190611134565b60405180910390f35b6101e260048036038101906101dd9190611230565b610c1f565b6040516101ef919061115e565b60405180910390f35b610200610c68565b60405161020d919061101e565b60405180910390f35b610230600480360381019061022b91906110d9565b610cfa565b60405161023d9190611134565b60405180910390f35b610260600480360381019061025b919061125d565b610f07565b60405161026d919061115e565b60405180910390f35b606060008054610285906112cc565b80601f01602080910402602001604051908101604052809291908181526020018280546102b1906112cc565b80156102fe5780601f106102d3576101008083540402835291602001916102fe565b820191906000526020600020905b8154815290600101906020018083116102e157829003601f168201915b5050505050905090565b60008073ffffffffffffffffffffffffffffffffffffffff168373ffffffffffffffffffffffffffffffffffffffff1603610378576040517f08c379a000000000000000000000000000000000000000000000000000000000815260040161036f9061136f565b60405180910390fd5b81600560003373ffffffffffffffffffffffffffffffffffffffff1673ffffffffffffffffffffffffffffffffffffffff16815260200190815260200160002060008573ffffffffffffffffffffffffffffffffffffffff1673ffffffffffffffffffffffffffffffffffffffff168152602001908152602001600020819055508273ffffffffffffffffffffffffffffffffffffffff163373ffffffffffffffffffffffffffffffffffffffff167f8c5be1e5ebec7d5bd14f71427d1e84f3dd0314c0f7b2291e5b200ac8c7c3b92584604051610456919061115e565b60405180910390a36001905092915050565b6000600354905090565b60008073ffffffffffffffffffffffffffffffffffffffff168473ffffffffffffffffffffffffffffffffffffffff16036104e2576040517f08c379a00000000000000000000000000000000000000000000000000000000081526004016104d990611401565b60405180910390fd5b600073ffffffffffffffffffffffffffffffffffffffff168373ffffffffffffffffffffffffffffffffffffffff1603610551576040517f08c379a000000000000000000000000000000000000000000000000000000000815260040161054890611493565b60405180910390fd5b81600460008673ffffffffffffffffffffffffffffffffffffffff1673ffffffffffffffffffffffffffffffffffffffff1681526020019081526020016000205410156105d3576040517f08c379a00000000000000000000000000000000000000000000000000000000081526004016105ca90611525565b60405180910390fd5b81600560008673ffffffffffffffffffffffffffffffffffffffff1673ffffffffffffffffffffffffffffffffffffffff16815260200190815260200160002060003373ffffffffffffffffffffffffffffffffffffffff1673ffffffffffffffffffffffffffffffffffffffff168152602001908152602001600020541015610692576040517f08c379a0000000000000000000000000000000000000000000000000000000008152600401610689906115b7565b60405180910390fd5b81600460008673ffffffffffffffffffffffffffffffffffffffff1673ffffffffffffffffffffffffffffffffffffffff16815260200190815260200160002060008282546106e19190611606565b9250508190555081600460008573ffffffffffffffffffffffffffffffffffffffff1673ffffffffffffffffffffffffffffffffffffffff1681526020019081526020016000206000828254610737919061163a565b9250508190555081600560008673ffffffffffffffffffffffffffffffffffffffff1673ffffffffffffffffffffffffffffffffffffffff16815260200190815260200160002060003373ffffffffffffffffffffffffffffffffffffffff1673ffffffffffffffffffffffffffffffffffffffff16815260200190815260200160002060008282546107ca9190611606565b925050819055508273ffffffffffffffffffffffffffffffffffffffff168473ffffffffffffffffffffffffffffffffffffffff167fddf252ad1be2c89b69c2b068fc378daa952ba7f163c4a11628f55a4df523b3ef8460405161082e919061115e565b60405180910390a3600190509392505050565b6000600260009054906101000a900460ff16905090565b6000600660009054906101000a900473ffffffffffffffffffffffffffffffffffffffff1673ffffffffffffffffffffffffffffffffffffffff163373ffffffffffffffffffffffffffffffffffffffff16146108ea576040517f08c379a00000000000000000000000000000000000000000000000000000000081526004016108e1906116e0565b60405180910390fd5b600073ffffffffffffffffffffffffffffffffffffffff168373ffffffffffffffffffffffffffffffffffffffff1603610959576040517f08c379a000000000000000000000000000000000000000000000000000000000815260040161095090611772565b60405180910390fd5b6000821161099c576040517f08c379a000000000000000000000000000000000000000000000000000000000815260040161099390611804565b60405180910390fd5b81600360008282546109ae919061163a565b9250508190555081600460008573ffffffffffffffffffffffffffffffffffffffff1673ffffffffffffffffffffffffffffffffffffffff1681526020019081526020016000206000828254610a04919061163a565b925050819055508273ffffffffffffffffffffffffffffffffffffffff16600073ffffffffffffffffffffffffffffffffffffffff167fddf252ad1be2c89b69c2b068fc378daa952ba7f163c4a11628f55a4df523b3ef84604051610a69919061115e565b60405180910390a36001905092915050565b6000808211610abf576040517f08c379a0000000000000000000000000000000000000000000000000000000008152600401610ab690611896565b60405180910390fd5b81600460003373ffffffffffffffffffffffffffffffffffffffff1673ffffffffffffffffffffffffffffffffffffffff168152602001908152602001600020541015610b41576040517f08c379a0000000000000000000000000000000000000000000000000000000008152600401610b3890611928565b60405180910390fd5b8160036000828254610b539190611606565b9250508190555081600460003373ffffffffffffffffffffffffffffffffffffffff1673ffffffffffffffffffffffffffffffffffffffff1681526020019081526020016000206000828254610ba99190611606565b92505081905550600073ffffffffffffffffffffffffffffffffffffffff163373ffffffffffffffffffffffffffffffffffffffff167fddf252ad1be2c89b69c2b068fc378daa952ba7f163c4a11628f55a4df523b3ef84604051610c0e919061115e565b60405180910390a360019050919050565b6000600460008373ffffffffffffffffffffffffffffffffffffffff1673ffffffffffffffffffffffffffffffffffffffff168152602001908152602001600020549050919050565b606060018054610c77906112cc565b80601f0160208091040260200160405190810160405280929190818152602001828054610ca3906112cc565b8015610cf05780601f10610cc557610100808354040283529160200191610cf0565b820191906000526020600020905b815481529060010190602001808311610cd357829003601f168201915b5050505050905090565b60008073ffffffffffffffffffffffffffffffffffffffff168373ffffffffffffffffffffffffffffffffffffffff1603610d6a576040517f08c379a0000000000000000000000000000000000000000000000000000000008152600401610d6190611493565b60405180910390fd5b81600460003373ffffffffffffffffffffffffffffffffffffffff1673ffffffffffffffffffffffffffffffffffffffff168152602001908152602001600020541015610dec576040517f08c379a0000000000000000000000000000000000000000000000000000000008152600401610de390611525565b60405180910390fd5b81600460003373ffffffffffffffffffffffffffffffffffffffff1673ffffffffffffffffffffffffffffffffffffffff1681526020019081526020016000206000828254610e3b9190611606565b9250508190555081600460008573ffffffffffffffffffffffffffffffffffffffff1673ffffffffffffffffffffffffffffffffffffffff1681526020019081526020016000206000828254610e91919061163a565b925050819055508273ffffffffffffffffffffffffffffffffffffffff163373ffffffffffffffffffffffffffffffffffffffff167fddf252ad1be2c89b69c2b068fc378daa952ba7f163c4a11628f55a4df523b3ef84604051610ef5919061115e565b60405180910390a36001905092915050565b6000600560008473ffffffffffffffffffffffffffffffffffffffff1673ffffffffffffffffffffffffffffffffffffffff16815260200190815260200160002060008373ffffffffffffffffffffffffffffffffffffffff1673ffffffffffffffffffffffffffffffffffffffff16815260200190815260200160002054905092915050565b600081519050919050565b600082825260208201905092915050565b60005b83811015610fc8578082015181840152602081019050610fad565b60008484015250505050565b6000601f19601f8301169050919050565b6000610ff082610f8e565b610ffa8185610f99565b935061100a818560208601610faa565b61101381610fd4565b840191505092915050565b600060208201905081810360008301526110388184610fe5565b905092915050565b600080fd5b600073ffffffffffffffffffffffffffffffffffffffff82169050919050565b600061107082611045565b9050919050565b61108081611065565b811461108b57600080fd5b50565b60008135905061109d81611077565b92915050565b6000819050919050565b6110b6816110a3565b81146110c157600080fd5b50565b6000813590506110d3816110ad565b92915050565b600080604083850312156110f0576110ef611040565b5b60006110fe8582860161108e565b925050602061110f858286016110c4565b9150509250929050565b60008115159050919050565b61112e81611119565b82525050565b60006020820190506111496000830184611125565b92915050565b611158816110a3565b82525050565b6000602082019050611173600083018461114f565b92915050565b60008060006060848603121561119257611191611040565b5b60006111a08682870161108e565b93505060206111b18682870161108e565b92505060406111c2868287016110c4565b9150509250925092565b600060ff82169050919050565b6111e2816111cc565b82525050565b60006020820190506111fd60008301846111d9565b92915050565b60006020828403121561121957611218611040565b5b6000611227848285016110c4565b91505092915050565b60006020828403121561124657611245611040565b5b60006112548482850161108e565b91505092915050565b6000806040838503121561127457611273611040565b5b60006112828582860161108e565b92505060206112938582860161108e565b9150509250929050565b7f4e487b7100000000000000000000000000000000000000000000000000000000600052602260045260246000fd5b600060028204905060018216806112e457607f821691505b6020821081036112f7576112f661129d565b5b50919050565b7f5061786f6e546f6b656e3a20617070726f766520746f20746865207a65726f2060008201527f6164647265737300000000000000000000000000000000000000000000000000602082015250565b6000611359602783610f99565b9150611364826112fd565b604082019050919050565b600060208201905081810360008301526113888161134c565b9050919050565b7f5061786f6e546f6b656e3a207472616e736665722066726f6d20746865207a6560008201527f726f206164647265737300000000000000000000000000000000000000000000602082015250565b60006113eb602a83610f99565b91506113f68261138f565b604082019050919050565b6000602082019050818103600083015261141a816113de565b9050919050565b7f5061786f6e546f6b656e3a207472616e7366657220746f20746865207a65726f60008201527f2061646472657373000000000000000000000000000000000000000000000000602082015250565b600061147d602883610f99565b915061148882611421565b604082019050919050565b600060208201905081810360008301526114ac81611470565b9050919050565b7f5061786f6e546f6b656e3a207472616e7366657220616d6f756e74206578636560008201527f6564732062616c616e6365000000000000000000000000000000000000000000602082015250565b600061150f602b83610f99565b915061151a826114b3565b604082019050919050565b6000602082019050818103600083015261153e81611502565b9050919050565b7f5061786f6e546f6b656e3a207472616e7366657220616d6f756e74206578636560008201527f65647320616c6c6f77616e636500000000000000000000000000000000000000602082015250565b60006115a1602d83610f99565b91506115ac82611545565b604082019050919050565b600060208201905081810360008301526115d081611594565b9050919050565b7f4e487b7100000000000000000000000000000000000000000000000000000000600052601160045260246000fd5b6000611611826110a3565b915061161c836110a3565b9250828203905081811115611634576116336115d7565b5b92915050565b6000611645826110a3565b9150611650836110a3565b9250828201905080821115611668576116676115d7565b5b92915050565b7f5061786f6e546f6b656e3a2063616c6c6572206973206e6f7420746865206f7760008201527f6e65720000000000000000000000000000000000000000000000000000000000602082015250565b60006116ca602383610f99565b91506116d58261166e565b604082019050919050565b600060208201905081810360008301526116f9816116bd565b9050919050565b7f5061786f6e546f6b656e3a206d696e7420746f20746865207a65726f2061646460008201527f7265737300000000000000000000000000000000000000000000000000000000602082015250565b600061175c602483610f99565b915061176782611700565b604082019050919050565b6000602082019050818103600083015261178b8161174f565b9050919050565b7f5061786f6e546f6b656e3a206d696e7420616d6f756e74206d7573742062652060008201527f67726561746572207468616e207a65726f000000000000000000000000000000602082015250565b60006117ee603183610f99565b91506117f982611792565b604082019050919050565b6000602082019050818103600083015261181d816117e1565b9050919050565b7f5061786f6e546f6b656e3a206275726e20616d6f756e74206d7573742062652060008201527f67726561746572207468616e207a65726f000000000000000000000000000000602082015250565b6000611880603183610f99565b915061188b82611824565b604082019050919050565b600060208201905081810360008301526118af81611873565b9050919050565b7f5061786f6e546f6b656e3a206275726e20616d6f756e7420657863656564732060008201527f62616c616e636500000000000000000000000000000000000000000000000000602082015250565b6000611912602783610f99565b915061191d826118b6565b604082019050919050565b6000602082019050818103600083015261194181611905565b905091905056fea26469706673582212205e713b61eb1d70bac057dcf92c6bdd1e244e30ef070407bcab79dafb5fca990d64736f6c634300081c0033","linkReferences":{}},"methodIdentifiers":{"allowance(address,address)":"dd62ed3e","approve(address,uint256)":"095ea7b3","balanceOf(address)":"70a08231","burn(uint256)":"42966c68","decimals()":"313ce567","mint(address,uint256)":"40c10f19","name()":"06fdde03","symbol()":"95d89b41","totalSupply()":"18160ddd","transfer(address,uint256)":"a9059cbb","transferFrom(address,address,uint256)":"23b872dd"},"id":20}